{
  "contracts/Sessions.sol": {
    "Sessions": {
      "abi": [
        {
          "inputs": [],
          "stateMutability": "nonpayable",
          "type": "constructor"
        },
        {
          "inputs": [],
          "name": "ReentrancyGuardReentrantCall",
          "type": "error"
        },
        {
          "anonymous": false,
          "inputs": [
            {
              "indexed": true,
              "internalType": "uint256",
              "name": "videoId",
              "type": "uint256"
            },
            {
              "indexed": true,
              "internalType": "address",
              "name": "user",
              "type": "address"
            },
            {
              "indexed": false,
              "internalType": "string",
              "name": "commentText",
              "type": "string"
            }
          ],
          "name": "CommentAdded",
          "type": "event"
        },
        {
          "anonymous": false,
          "inputs": [
            {
              "indexed": true,
              "internalType": "address",
              "name": "follower",
              "type": "address"
            },
            {
              "indexed": true,
              "internalType": "address",
              "name": "creator",
              "type": "address"
            }
          ],
          "name": "CreatorFollowed",
          "type": "event"
        },
        {
          "anonymous": false,
          "inputs": [
            {
              "indexed": true,
              "internalType": "address",
              "name": "creator",
              "type": "address"
            },
            {
              "indexed": false,
              "internalType": "string",
              "name": "metadataUri",
              "type": "string"
            }
          ],
          "name": "CreatorProfileUpdated",
          "type": "event"
        },
        {
          "anonymous": false,
          "inputs": [
            {
              "indexed": true,
              "internalType": "address",
              "name": "tippedBy",
              "type": "address"
            },
            {
              "indexed": true,
              "internalType": "address",
              "name": "creator",
              "type": "address"
            },
            {
              "indexed": false,
              "internalType": "uint256",
              "name": "amount",
              "type": "uint256"
            }
          ],
          "name": "CreatorTipped",
          "type": "event"
        },
        {
          "anonymous": false,
          "inputs": [
            {
              "indexed": true,
              "internalType": "address",
              "name": "unfollower",
              "type": "address"
            },
            {
              "indexed": true,
              "internalType": "address",
              "name": "creator",
              "type": "address"
            }
          ],
          "name": "CreatorUnfollowed",
          "type": "event"
        },
        {
          "anonymous": false,
          "inputs": [
            {
              "indexed": false,
              "internalType": "uint256",
              "name": "emergencyPrice",
              "type": "uint256"
            },
            {
              "indexed": false,
              "internalType": "bool",
              "name": "useEmergency",
              "type": "bool"
            }
          ],
          "name": "EmergencyPriceSet",
          "type": "event"
        },
        {
          "anonymous": false,
          "inputs": [
            {
              "indexed": false,
              "internalType": "uint256",
              "name": "newFee",
              "type": "uint256"
            }
          ],
          "name": "FeeUpdated",
          "type": "event"
        },
        {
          "anonymous": false,
          "inputs": [
            {
              "indexed": false,
              "internalType": "uint256",
              "name": "newMintLimit",
              "type": "uint256"
            }
          ],
          "name": "GlobalMintLimitUpdated",
          "type": "event"
        },
        {
          "anonymous": false,
          "inputs": [
            {
              "indexed": false,
              "internalType": "uint256",
              "name": "newMintPrice",
              "type": "uint256"
            }
          ],
          "name": "MaxMintPriceUpdated",
          "type": "event"
        },
        {
          "anonymous": false,
          "inputs": [
            {
              "indexed": true,
              "internalType": "uint256",
              "name": "videoId",
              "type": "uint256"
            },
            {
              "indexed": false,
              "internalType": "uint256",
              "name": "newMintLimit",
              "type": "uint256"
            }
          ],
          "name": "MintLimitUpdated",
          "type": "event"
        },
        {
          "anonymous": false,
          "inputs": [
            {
              "indexed": true,
              "internalType": "uint256",
              "name": "videoId",
              "type": "uint256"
            },
            {
              "indexed": false,
              "internalType": "uint256",
              "name": "newPrice",
              "type": "uint256"
            }
          ],
          "name": "MintPriceUpdated",
          "type": "event"
        },
        {
          "anonymous": false,
          "inputs": [
            {
              "indexed": true,
              "internalType": "address",
              "name": "prevOwner",
              "type": "address"
            },
            {
              "indexed": true,
              "internalType": "address",
              "name": "newOwner",
              "type": "address"
            }
          ],
          "name": "OwnershipTransferred",
          "type": "event"
        },
        {
          "anonymous": false,
          "inputs": [
            {
              "indexed": false,
              "internalType": "address",
              "name": "newWallet",
              "type": "address"
            }
          ],
          "name": "ProjectWalletUpdated",
          "type": "event"
        },
        {
          "anonymous": false,
          "inputs": [
            {
              "indexed": false,
              "internalType": "uint256",
              "name": "projectSharePercentage",
              "type": "uint256"
            },
            {
              "indexed": false,
              "internalType": "uint256",
              "name": "creatorSharePercentage",
              "type": "uint256"
            },
            {
              "indexed": false,
              "internalType": "uint256",
              "name": "minterSharePercentage",
              "type": "uint256"
            }
          ],
          "name": "RevenueSplitUpdated",
          "type": "event"
        },
        {
          "anonymous": false,
          "inputs": [
            {
              "indexed": true,
              "internalType": "uint256",
              "name": "videoId",
              "type": "uint256"
            },
            {
              "indexed": true,
              "internalType": "address",
              "name": "user",
              "type": "address"
            }
          ],
          "name": "VideoLiked",
          "type": "event"
        },
        {
          "anonymous": false,
          "inputs": [
            {
              "indexed": true,
              "internalType": "uint256",
              "name": "videoId",
              "type": "uint256"
            },
            {
              "indexed": true,
              "internalType": "address",
              "name": "minter",
              "type": "address"
            },
            {
              "indexed": false,
              "internalType": "uint256",
              "name": "price",
              "type": "uint256"
            }
          ],
          "name": "VideoMinted",
          "type": "event"
        },
        {
          "anonymous": false,
          "inputs": [
            {
              "indexed": true,
              "internalType": "uint256",
              "name": "videoId",
              "type": "uint256"
            },
            {
              "indexed": true,
              "internalType": "address",
              "name": "user",
              "type": "address"
            }
          ],
          "name": "VideoUnliked",
          "type": "event"
        },
        {
          "anonymous": false,
          "inputs": [
            {
              "indexed": true,
              "internalType": "uint256",
              "name": "videoId",
              "type": "uint256"
            },
            {
              "indexed": true,
              "internalType": "address",
              "name": "creator",
              "type": "address"
            },
            {
              "indexed": false,
              "internalType": "uint256",
              "name": "mediaId",
              "type": "uint256"
            },
            {
              "indexed": false,
              "internalType": "uint256",
              "name": "mintLimit",
              "type": "uint256"
            },
            {
              "indexed": false,
              "internalType": "uint256",
              "name": "priceInWei",
              "type": "uint256"
            }
          ],
          "name": "VideoUploaded",
          "type": "event"
        },
        {
          "inputs": [],
          "name": "MAX_PRICE_AGE",
          "outputs": [
            {
              "internalType": "uint256",
              "name": "",
              "type": "uint256"
            }
          ],
          "stateMutability": "view",
          "type": "function"
        },
        {
          "inputs": [],
          "name": "MIN_TIMESTAMP_BUFFER",
          "outputs": [
            {
              "internalType": "uint256",
              "name": "",
              "type": "uint256"
            }
          ],
          "stateMutability": "view",
          "type": "function"
        },
        {
          "inputs": [],
          "name": "USDC_SCALAR",
          "outputs": [
            {
              "internalType": "uint256",
              "name": "",
              "type": "uint256"
            }
          ],
          "stateMutability": "view",
          "type": "function"
        },
        {
          "inputs": [],
          "name": "acceptOwnership",
          "outputs": [],
          "stateMutability": "nonpayable",
          "type": "function"
        },
        {
          "inputs": [
            {
              "internalType": "uint256",
              "name": "_videoId",
              "type": "uint256"
            },
            {
              "internalType": "string",
              "name": "_commentText",
              "type": "string"
            }
          ],
          "name": "commentOnVideo",
          "outputs": [],
          "stateMutability": "nonpayable",
          "type": "function"
        },
        {
          "inputs": [
            {
              "internalType": "uint256",
              "name": "",
              "type": "uint256"
            },
            {
              "internalType": "uint256",
              "name": "",
              "type": "uint256"
            }
          ],
          "name": "comments",
          "outputs": [
            {
              "internalType": "address",
              "name": "commenter",
              "type": "address"
            },
            {
              "internalType": "string",
              "name": "text",
              "type": "string"
            },
            {
              "internalType": "uint256",
              "name": "timestamp",
              "type": "uint256"
            }
          ],
          "stateMutability": "view",
          "type": "function"
        },
        {
          "inputs": [],
          "name": "creatorSharePercentage",
          "outputs": [
            {
              "internalType": "uint256",
              "name": "",
              "type": "uint256"
            }
          ],
          "stateMutability": "view",
          "type": "function"
        },
        {
          "inputs": [
            {
              "internalType": "address",
              "name": "",
              "type": "address"
            }
          ],
          "name": "creators",
          "outputs": [
            {
              "internalType": "string",
              "name": "metadataUri",
              "type": "string"
            },
            {
              "internalType": "uint256",
              "name": "totalVideos",
              "type": "uint256"
            },
            {
              "internalType": "uint256",
              "name": "totalFollowers",
              "type": "uint256"
            },
            {
              "internalType": "uint256",
              "name": "totalTipsReceived",
              "type": "uint256"
            }
          ],
          "stateMutability": "view",
          "type": "function"
        },
        {
          "inputs": [
            {
              "internalType": "address",
              "name": "_creator",
              "type": "address"
            }
          ],
          "name": "followCreator",
          "outputs": [],
          "stateMutability": "nonpayable",
          "type": "function"
        },
        {
          "inputs": [
            {
              "internalType": "address",
              "name": "",
              "type": "address"
            },
            {
              "internalType": "address",
              "name": "",
              "type": "address"
            }
          ],
          "name": "following",
          "outputs": [
            {
              "internalType": "bool",
              "name": "",
              "type": "bool"
            }
          ],
          "stateMutability": "view",
          "type": "function"
        },
        {
          "inputs": [],
          "name": "getBalance",
          "outputs": [
            {
              "internalType": "uint256",
              "name": "",
              "type": "uint256"
            }
          ],
          "stateMutability": "view",
          "type": "function"
        },
        {
          "inputs": [
            {
              "internalType": "address",
              "name": "_creator",
              "type": "address"
            }
          ],
          "name": "getCreatorProfile",
          "outputs": [
            {
              "components": [
                {
                  "internalType": "string",
                  "name": "metadataUri",
                  "type": "string"
                },
                {
                  "internalType": "uint256",
                  "name": "totalVideos",
                  "type": "uint256"
                },
                {
                  "internalType": "uint256",
                  "name": "totalFollowers",
                  "type": "uint256"
                },
                {
                  "internalType": "uint256",
                  "name": "totalTipsReceived",
                  "type": "uint256"
                }
              ],
              "internalType": "struct ISessions.Creator",
              "name": "",
              "type": "tuple"
            }
          ],
          "stateMutability": "view",
          "type": "function"
        },
        {
          "inputs": [],
          "name": "getEthPrice",
          "outputs": [
            {
              "internalType": "uint256",
              "name": "",
              "type": "uint256"
            }
          ],
          "stateMutability": "view",
          "type": "function"
        },
        {
          "inputs": [],
          "name": "getEthPriceWithFallback",
          "outputs": [
            {
              "internalType": "uint256",
              "name": "",
              "type": "uint256"
            }
          ],
          "stateMutability": "view",
          "type": "function"
        },
        {
          "inputs": [],
          "name": "getSharedRevenue",
          "outputs": [
            {
              "internalType": "uint256[3]",
              "name": "",
              "type": "uint256[3]"
            }
          ],
          "stateMutability": "view",
          "type": "function"
        },
        {
          "inputs": [
            {
              "internalType": "uint256",
              "name": "_videoId",
              "type": "uint256"
            }
          ],
          "name": "getTotalComments",
          "outputs": [
            {
              "internalType": "uint256",
              "name": "",
              "type": "uint256"
            }
          ],
          "stateMutability": "view",
          "type": "function"
        },
        {
          "inputs": [
            {
              "internalType": "address",
              "name": "_creator",
              "type": "address"
            }
          ],
          "name": "getTotalFollowers",
          "outputs": [
            {
              "internalType": "uint256",
              "name": "",
              "type": "uint256"
            }
          ],
          "stateMutability": "view",
          "type": "function"
        },
        {
          "inputs": [],
          "name": "getUsdcFeeInEth",
          "outputs": [
            {
              "internalType": "uint256",
              "name": "",
              "type": "uint256"
            }
          ],
          "stateMutability": "view",
          "type": "function"
        },
        {
          "inputs": [
            {
              "internalType": "uint256",
              "name": "_videoId",
              "type": "uint256"
            }
          ],
          "name": "getVideoComments",
          "outputs": [
            {
              "components": [
                {
                  "internalType": "address",
                  "name": "commenter",
                  "type": "address"
                },
                {
                  "internalType": "string",
                  "name": "text",
                  "type": "string"
                },
                {
                  "internalType": "uint256",
                  "name": "timestamp",
                  "type": "uint256"
                }
              ],
              "internalType": "struct ISessions.Comment[]",
              "name": "",
              "type": "tuple[]"
            }
          ],
          "stateMutability": "view",
          "type": "function"
        },
        {
          "inputs": [
            {
              "internalType": "uint256",
              "name": "_videoId",
              "type": "uint256"
            },
            {
              "internalType": "uint256",
              "name": "offset",
              "type": "uint256"
            },
            {
              "internalType": "uint256",
              "name": "limit",
              "type": "uint256"
            }
          ],
          "name": "getVideoCommentsPaginated",
          "outputs": [
            {
              "components": [
                {
                  "internalType": "address",
                  "name": "commenter",
                  "type": "address"
                },
                {
                  "internalType": "string",
                  "name": "text",
                  "type": "string"
                },
                {
                  "internalType": "uint256",
                  "name": "timestamp",
                  "type": "uint256"
                }
              ],
              "internalType": "struct ISessions.Comment[]",
              "name": "",
              "type": "tuple[]"
            }
          ],
          "stateMutability": "view",
          "type": "function"
        },
        {
          "inputs": [
            {
              "internalType": "uint256",
              "name": "_videoId",
              "type": "uint256"
            },
            {
              "internalType": "address",
              "name": "_user",
              "type": "address"
            }
          ],
          "name": "hasLikedVideo",
          "outputs": [
            {
              "internalType": "bool",
              "name": "",
              "type": "bool"
            }
          ],
          "stateMutability": "view",
          "type": "function"
        },
        {
          "inputs": [
            {
              "internalType": "address",
              "name": "_follower",
              "type": "address"
            },
            {
              "internalType": "address",
              "name": "_creator",
              "type": "address"
            }
          ],
          "name": "isFollowing",
          "outputs": [
            {
              "internalType": "bool",
              "name": "",
              "type": "bool"
            }
          ],
          "stateMutability": "view",
          "type": "function"
        },
        {
          "inputs": [
            {
              "internalType": "uint256",
              "name": "_videoId",
              "type": "uint256"
            }
          ],
          "name": "likeVideo",
          "outputs": [],
          "stateMutability": "nonpayable",
          "type": "function"
        },
        {
          "inputs": [
            {
              "internalType": "uint256",
              "name": "",
              "type": "uint256"
            },
            {
              "internalType": "address",
              "name": "",
              "type": "address"
            }
          ],
          "name": "likedBy",
          "outputs": [
            {
              "internalType": "bool",
              "name": "",
              "type": "bool"
            }
          ],
          "stateMutability": "view",
          "type": "function"
        },
        {
          "inputs": [],
          "name": "maxMintPrice",
          "outputs": [
            {
              "internalType": "uint256",
              "name": "",
              "type": "uint256"
            }
          ],
          "stateMutability": "view",
          "type": "function"
        },
        {
          "inputs": [],
          "name": "mintLimit",
          "outputs": [
            {
              "internalType": "uint256",
              "name": "",
              "type": "uint256"
            }
          ],
          "stateMutability": "view",
          "type": "function"
        },
        {
          "inputs": [
            {
              "internalType": "uint256",
              "name": "_videoId",
              "type": "uint256"
            }
          ],
          "name": "mintVideo",
          "outputs": [],
          "stateMutability": "payable",
          "type": "function"
        },
        {
          "inputs": [],
          "name": "minterSharePercentage",
          "outputs": [
            {
              "internalType": "uint256",
              "name": "",
              "type": "uint256"
            }
          ],
          "stateMutability": "view",
          "type": "function"
        },
        {
          "inputs": [],
          "name": "owner",
          "outputs": [
            {
              "internalType": "address",
              "name": "",
              "type": "address"
            }
          ],
          "stateMutability": "view",
          "type": "function"
        },
        {
          "inputs": [],
          "name": "pendingOwner",
          "outputs": [
            {
              "internalType": "address",
              "name": "",
              "type": "address"
            }
          ],
          "stateMutability": "view",
          "type": "function"
        },
        {
          "inputs": [],
          "name": "projectSharePercentage",
          "outputs": [
            {
              "internalType": "uint256",
              "name": "",
              "type": "uint256"
            }
          ],
          "stateMutability": "view",
          "type": "function"
        },
        {
          "inputs": [],
          "name": "projectWallet",
          "outputs": [
            {
              "internalType": "address",
              "name": "",
              "type": "address"
            }
          ],
          "stateMutability": "view",
          "type": "function"
        },
        {
          "inputs": [
            {
              "internalType": "uint256",
              "name": "_emergencyPrice",
              "type": "uint256"
            },
            {
              "internalType": "bool",
              "name": "_useEmergency",
              "type": "bool"
            }
          ],
          "name": "setEmergencyPrice",
          "outputs": [],
          "stateMutability": "nonpayable",
          "type": "function"
        },
        {
          "inputs": [
            {
              "internalType": "uint256",
              "name": "_newFee",
              "type": "uint256"
            }
          ],
          "name": "setFee",
          "outputs": [],
          "stateMutability": "nonpayable",
          "type": "function"
        },
        {
          "inputs": [
            {
              "internalType": "address",
              "name": "_projectWallet",
              "type": "address"
            }
          ],
          "name": "setProjectWallet",
          "outputs": [],
          "stateMutability": "nonpayable",
          "type": "function"
        },
        {
          "inputs": [
            {
              "internalType": "uint256",
              "name": "_projectSharePercentage",
              "type": "uint256"
            },
            {
              "internalType": "uint256",
              "name": "_creatorSharePercentage",
              "type": "uint256"
            },
            {
              "internalType": "uint256",
              "name": "_minterSharePercentage",
              "type": "uint256"
            }
          ],
          "name": "setRevenueSplit",
          "outputs": [],
          "stateMutability": "nonpayable",
          "type": "function"
        },
        {
          "inputs": [
            {
              "internalType": "address",
              "name": "_creator",
              "type": "address"
            }
          ],
          "name": "tipCreator",
          "outputs": [],
          "stateMutability": "payable",
          "type": "function"
        },
        {
          "inputs": [
            {
              "internalType": "address",
              "name": "_newOwner",
              "type": "address"
            }
          ],
          "name": "transferOwnership",
          "outputs": [],
          "stateMutability": "nonpayable",
          "type": "function"
        },
        {
          "inputs": [
            {
              "internalType": "address",
              "name": "_creator",
              "type": "address"
            }
          ],
          "name": "unfollowCreator",
          "outputs": [],
          "stateMutability": "nonpayable",
          "type": "function"
        },
        {
          "inputs": [
            {
              "internalType": "uint256",
              "name": "_videoId",
              "type": "uint256"
            }
          ],
          "name": "unlikeVideo",
          "outputs": [],
          "stateMutability": "nonpayable",
          "type": "function"
        },
        {
          "inputs": [
            {
              "internalType": "uint256",
              "name": "_newMintLimit",
              "type": "uint256"
            }
          ],
          "name": "updateGlobalMintLimit",
          "outputs": [],
          "stateMutability": "nonpayable",
          "type": "function"
        },
        {
          "inputs": [
            {
              "internalType": "uint256",
              "name": "_newMaxMintPrice",
              "type": "uint256"
            }
          ],
          "name": "updateMaximumMintPrice",
          "outputs": [],
          "stateMutability": "nonpayable",
          "type": "function"
        },
        {
          "inputs": [
            {
              "internalType": "uint256",
              "name": "_videoId",
              "type": "uint256"
            },
            {
              "internalType": "uint256",
              "name": "_newMintLimit",
              "type": "uint256"
            }
          ],
          "name": "updateMintLimit",
          "outputs": [],
          "stateMutability": "nonpayable",
          "type": "function"
        },
        {
          "inputs": [
            {
              "internalType": "uint256",
              "name": "_videoId",
              "type": "uint256"
            },
            {
              "internalType": "uint256",
              "name": "_newPrice",
              "type": "uint256"
            }
          ],
          "name": "updateMintPrice",
          "outputs": [],
          "stateMutability": "nonpayable",
          "type": "function"
        },
        {
          "inputs": [
            {
              "internalType": "string",
              "name": "_metadataUri",
              "type": "string"
            }
          ],
          "name": "updateProfile",
          "outputs": [],
          "stateMutability": "nonpayable",
          "type": "function"
        },
        {
          "inputs": [
            {
              "internalType": "uint256",
              "name": "_mediaId",
              "type": "uint256"
            },
            {
              "internalType": "uint256",
              "name": "_mintLimit",
              "type": "uint256"
            },
            {
              "internalType": "uint256",
              "name": "_priceInWei",
              "type": "uint256"
            }
          ],
          "name": "uploadVideo",
          "outputs": [],
          "stateMutability": "payable",
          "type": "function"
        },
        {
          "inputs": [],
          "name": "usdcFee",
          "outputs": [
            {
              "internalType": "uint256",
              "name": "",
              "type": "uint256"
            }
          ],
          "stateMutability": "view",
          "type": "function"
        },
        {
          "inputs": [
            {
              "internalType": "uint256",
              "name": "",
              "type": "uint256"
            }
          ],
          "name": "videos",
          "outputs": [
            {
              "internalType": "address",
              "name": "creator",
              "type": "address"
            },
            {
              "internalType": "uint256",
              "name": "mediaId",
              "type": "uint256"
            },
            {
              "internalType": "uint256",
              "name": "totalMints",
              "type": "uint256"
            },
            {
              "internalType": "uint256",
              "name": "mintLimit",
              "type": "uint256"
            },
            {
              "internalType": "uint256",
              "name": "price",
              "type": "uint256"
            },
            {
              "internalType": "uint256",
              "name": "likes",
              "type": "uint256"
            }
          ],
          "stateMutability": "view",
          "type": "function"
        },
        {
          "inputs": [],
          "name": "videosCount",
          "outputs": [
            {
              "internalType": "uint256",
              "name": "",
              "type": "uint256"
            }
          ],
          "stateMutability": "view",
          "type": "function"
        },
        {
          "inputs": [],
          "name": "withdraw",
          "outputs": [],
          "stateMutability": "nonpayable",
          "type": "function"
        }
      ],
      "evm": {
        "bytecode": {
          "linkReferences": {},
          "object": "60806040526000600455620f423f600555670de0b6b3a7640000600655603c600755601e600855600a60095534801561003757600080fd5b50600160008190555033600160006101000a81548173ffffffffffffffffffffffffffffffffffffffff021916908373ffffffffffffffffffffffffffffffffffffffff16021790555033600360006101000a81548173ffffffffffffffffffffffffffffffffffffffff021916908373ffffffffffffffffffffffffffffffffffffffff160217905550606463042c1d806100d3919061016c565b600a81905550734adc67696ba383f43dd60a9e78f2c97fbbfc7cb1600b60006101000a81548173ffffffffffffffffffffffffffffffffffffffff021916908373ffffffffffffffffffffffffffffffffffffffff16021790555061019d565b6000819050919050565b7f4e487b7100000000000000000000000000000000000000000000000000000000600052601260045260246000fd5b600061017782610133565b915061018283610133565b9250826101925761019161013d565b5b828204905092915050565b615b9e806101ac6000396000f3fe6080604052600436106102c85760003560e01c806379ba509711610175578063beb08ab9116100dc578063e6821bf511610095578063ef08523b1161006f578063ef08523b14610ae4578063f2fde38b14610b0f578063f3a8caf514610b38578063fc6c776f14610b63576102c8565b8063e6821bf514610a50578063e8ed165314610a92578063ec9ca25814610abb576102c8565b8063beb08ab914610906578063c0a1996314610931578063ce9ae0011461096e578063d2825af3146109ab578063daf6160c146109e8578063e30c397814610a25576102c8565b806399ec3a421161012e57806399ec3a42146107e25780639d7f7e861461081f5780639e39e58d1461084a578063a05614e814610887578063a5b6f941146108b2578063a9cfab0b146108db576102c8565b806379ba5097146106f05780637ce2a824146107075780638a780447146107235780638da5cb5b1461074c578063933166e114610777578063996517cf146107b7576102c8565b80632e7a81cb116102345780634fb9b047116101ed578063587520fa116101c7578063587520fa1461064357806365c4e4aa1461068057806367c9b0171461069c57806369fe0e2d146106c7576102c8565b80634fb9b047146105bf57806353ae3586146105ea57806355e6a80614610606576102c8565b80632e7a81cb146104c157806332cb9eea146104ec5780633ccfd60b14610517578063445e475d1461052e57806346a094d2146105595780634d90bc3714610596576102c8565b8063136f5cdd11610286578063136f5cdd146103c9578063140da7cc146103f4578063150f885e1461041d57806318196191146104465780631b9ee4d11461046f57806327260d5c14610498576102c8565b80629299e3146102cd57806308796fda146102f657806308d5c32714610321578063098970971461034c57806311abd3241461037557806312065fe01461039e575b600080fd5b3480156102d957600080fd5b506102f460048036038101906102ef9190613eab565b610ba2565b005b34801561030257600080fd5b5061030b610d3f565b6040516103189190613f0d565b60405180910390f35b34801561032d57600080fd5b50610336610d44565b6040516103439190613f0d565b60405180910390f35b34801561035857600080fd5b50610373600480360381019061036e9190613f54565b610d83565b005b34801561038157600080fd5b5061039c60048036038101906103979190613f54565b610ea5565b005b3480156103aa57600080fd5b506103b361112e565b6040516103c09190613f0d565b60405180910390f35b3480156103d557600080fd5b506103de611136565b6040516103eb9190613f0d565b60405180910390f35b34801561040057600080fd5b5061041b60048036038101906104169190613f81565b61113c565b005b34801561042957600080fd5b50610444600480360381019061043f9190613fd4565b61127a565b005b34801561045257600080fd5b5061046d60048036038101906104689190614072565b611377565b005b34801561047b57600080fd5b50610496600480360381019061049191906140d7565b61161f565b005b3480156104a457600080fd5b506104bf60048036038101906104ba9190613f54565b611750565b005b3480156104cd57600080fd5b506104d6611981565b6040516104e39190613f0d565b60405180910390f35b3480156104f857600080fd5b50610501611987565b60405161050e9190613f0d565b60405180910390f35b34801561052357600080fd5b5061052c61198d565b005b34801561053a57600080fd5b50610543611aee565b6040516105509190613f0d565b60405180910390f35b34801561056557600080fd5b50610580600480360381019061057b9190614117565b611af4565b60405161058d9190614166565b60405180910390f35b3480156105a257600080fd5b506105bd60048036038101906105b89190614072565b611b5c565b005b3480156105cb57600080fd5b506105d4611dee565b6040516105e19190613f0d565b60405180910390f35b61060460048036038101906105ff9190613f81565b611df4565b005b34801561061257600080fd5b5061062d60048036038101906106289190614072565b612119565b60405161063a9190613f0d565b60405180910390f35b34801561064f57600080fd5b5061066a60048036038101906106659190613f54565b612165565b6040516106779190613f0d565b60405180910390f35b61069a60048036038101906106959190614072565b612185565b005b3480156106a857600080fd5b506106b16123b5565b6040516106be9190613f0d565b60405180910390f35b3480156106d357600080fd5b506106ee60048036038101906106e99190613f54565b6125c5565b005b3480156106fc57600080fd5b506107056126dc565b005b610721600480360381019061071c9190613f54565b612873565b005b34801561072f57600080fd5b5061074a60048036038101906107459190614072565b612a81565b005b34801561075857600080fd5b50610761612bfb565b60405161076e9190614190565b60405180910390f35b34801561078357600080fd5b5061079e60048036038101906107999190614072565b612c21565b6040516107ae949392919061422a565b60405180910390f35b3480156107c357600080fd5b506107cc612cd9565b6040516107d99190613f0d565b60405180910390f35b3480156107ee57600080fd5b5061080960048036038101906108049190614276565b612cdf565b6040516108169190614166565b60405180910390f35b34801561082b57600080fd5b50610834612d73565b6040516108419190613f0d565b60405180910390f35b34801561085657600080fd5b50610871600480360381019061086c9190614072565b612d79565b60405161087e9190614372565b60405180910390f35b34801561089357600080fd5b5061089c612e82565b6040516108a99190613f0d565b60405180910390f35b3480156108be57600080fd5b506108d960048036038101906108d49190613f54565b612eb1565b005b3480156108e757600080fd5b506108f0612fd3565b6040516108fd9190614430565b60405180910390f35b34801561091257600080fd5b5061091b613001565b6040516109289190614190565b60405180910390f35b34801561093d57600080fd5b5061095860048036038101906109539190614117565b613027565b6040516109659190614166565b60405180910390f35b34801561097a57600080fd5b5061099560048036038101906109909190614276565b613056565b6040516109a29190614166565b60405180910390f35b3480156109b757600080fd5b506109d260048036038101906109cd9190613f81565b613085565b6040516109df919061456c565b60405180910390f35b3480156109f457600080fd5b50610a0f6004803603810190610a0a9190613f54565b613300565b604051610a1c919061456c565b60405180910390f35b348015610a3157600080fd5b50610a3a613464565b604051610a479190614190565b60405180910390f35b348015610a5c57600080fd5b50610a776004803603810190610a729190613f54565b61348a565b604051610a899695949392919061458e565b60405180910390f35b348015610a9e57600080fd5b50610ab96004803603810190610ab491906145ef565b6134e6565b005b348015610ac757600080fd5b50610ae26004803603810190610add9190613fd4565b6136bc565b005b348015610af057600080fd5b50610af96137b9565b604051610b069190613f0d565b60405180910390f35b348015610b1b57600080fd5b50610b366004803603810190610b319190614072565b6137bf565b005b348015610b4457600080fd5b50610b4d613902565b604051610b5a9190613f0d565b60405180910390f35b348015610b6f57600080fd5b50610b8a6004803603810190610b859190613fd4565b613907565b604051610b999392919061464b565b60405180910390f35b6000600d60003373ffffffffffffffffffffffffffffffffffffffff1673ffffffffffffffffffffffffffffffffffffffff1681526020019081526020016000206000018054610bf1906146b8565b905003610c9757604051806080016040528082815260200160008152602001600081526020016000815250600d60003373ffffffffffffffffffffffffffffffffffffffff1673ffffffffffffffffffffffffffffffffffffffff1681526020019081526020016000206000820151816000019081610c709190614895565b50602082015181600101556040820151816002015560608201518160030155905050610cee565b6000600d60003373ffffffffffffffffffffffffffffffffffffffff1673ffffffffffffffffffffffffffffffffffffffff168152602001908152602001600020905081816000019081610ceb9190614895565b50505b3373ffffffffffffffffffffffffffffffffffffffff167fb07b7c8b0281bfa225d936eb4b081f263727dcaa3a2160038b8a947d75df5cb282604051610d349190614967565b60405180910390a250565b606481565b600080610d4f6123b5565b90506000816c0c9f2c9cd04674edea40000000600a54610d6f91906149b8565b610d799190614a29565b9050809250505090565b600160009054906101000a900473ffffffffffffffffffffffffffffffffffffffff1673ffffffffffffffffffffffffffffffffffffffff163373ffffffffffffffffffffffffffffffffffffffff1614610e13576040517f08c379a0000000000000000000000000000000000000000000000000000000008152600401610e0a90614aa6565b60405180910390fd5b600081118015610e2557506005548114155b610e64576040517f08c379a0000000000000000000000000000000000000000000000000000000008152600401610e5b90614b12565b60405180910390fd5b806005819055507ff56cd1c2276dd17bcff78ff95f3dcc99cb9595b770bc12da977b9c095c9bf96b81604051610e9a9190613f0d565b60405180910390a150565b80600073ffffffffffffffffffffffffffffffffffffffff16600c600083815260200190815260200160002060000160009054906101000a900473ffffffffffffffffffffffffffffffffffffffff1673ffffffffffffffffffffffffffffffffffffffff1603610f4b576040517f08c379a0000000000000000000000000000000000000000000000000000000008152600401610f4290614b7e565b60405180910390fd5b610f536139f6565b600f600083815260200190815260200160002060003373ffffffffffffffffffffffffffffffffffffffff1673ffffffffffffffffffffffffffffffffffffffff16815260200190815260200160002060009054906101000a900460ff16610ff0576040517f08c379a0000000000000000000000000000000000000000000000000000000008152600401610fe790614bea565b60405180910390fd5b6000600c60008481526020019081526020016000206005015411611049576040517f08c379a000000000000000000000000000000000000000000000000000000000815260040161104090614c56565b60405180910390fd5b600c6000838152602001908152602001600020600501600081548092919061107090614c76565b91905055506000600f600084815260200190815260200160002060003373ffffffffffffffffffffffffffffffffffffffff1673ffffffffffffffffffffffffffffffffffffffff16815260200190815260200160002060006101000a81548160ff0219169083151502179055503373ffffffffffffffffffffffffffffffffffffffff16827fe1ea13f5a6d14e33425b04b4cd2185c1919991c8b880eecaa279f4906475d6f960405160405180910390a361112a613a3c565b5050565b600047905090565b600a5481565b600160009054906101000a900473ffffffffffffffffffffffffffffffffffffffff1673ffffffffffffffffffffffffffffffffffffffff163373ffffffffffffffffffffffffffffffffffffffff16146111cc576040517f08c379a00000000000000000000000000000000000000000000000000000000081526004016111c390614aa6565b60405180910390fd5b60648183856111db9190614c9f565b6111e59190614c9f565b14611225576040517f08c379a000000000000000000000000000000000000000000000000000000000815260040161121c90614d1f565b60405180910390fd5b8260088190555081600781905550806009819055507f41fbb987eff495897d3076fa6ad5de848eb98f1d4e2c6922ebf510d75a79a57583838360405161126d93929190614d3f565b60405180910390a1505050565b813373ffffffffffffffffffffffffffffffffffffffff16600c600083815260200190815260200160002060000160009054906101000a900473ffffffffffffffffffffffffffffffffffffffff1673ffffffffffffffffffffffffffffffffffffffff161461131f576040517f08c379a000000000000000000000000000000000000000000000000000000000815260040161131690614aa6565b60405180910390fd5b81600c600085815260200190815260200160002060030181905550827f864790bdf9878a0378c6fc2b0ce53bf74ca13b901bc97a1cb94aa88f1600e4828360405161136a9190613f0d565b60405180910390a2505050565b61137f6139f6565b600e60003373ffffffffffffffffffffffffffffffffffffffff1673ffffffffffffffffffffffffffffffffffffffff16815260200190815260200160002060008273ffffffffffffffffffffffffffffffffffffffff1673ffffffffffffffffffffffffffffffffffffffff16815260200190815260200160002060009054906101000a900460ff16611448576040517f08c379a000000000000000000000000000000000000000000000000000000000815260040161143f90614dc2565b60405180910390fd5b6000600d60008373ffffffffffffffffffffffffffffffffffffffff1673ffffffffffffffffffffffffffffffffffffffff16815260200190815260200160002060020154116114cd576040517f08c379a00000000000000000000000000000000000000000000000000000000081526004016114c490614e2e565b60405180910390fd5b6000600e60003373ffffffffffffffffffffffffffffffffffffffff1673ffffffffffffffffffffffffffffffffffffffff16815260200190815260200160002060008373ffffffffffffffffffffffffffffffffffffffff1673ffffffffffffffffffffffffffffffffffffffff16815260200190815260200160002060006101000a81548160ff021916908315150217905550600d60008273ffffffffffffffffffffffffffffffffffffffff1673ffffffffffffffffffffffffffffffffffffffff16815260200190815260200160002060020160008154809291906115b590614c76565b91905055508073ffffffffffffffffffffffffffffffffffffffff163373ffffffffffffffffffffffffffffffffffffffff167f673e2dc2dff10ec8a44c707c34be5b2833e3b75618cb3bf22e1e31c1d6a1066860405160405180910390a361161c613a3c565b50565b600160009054906101000a900473ffffffffffffffffffffffffffffffffffffffff1673ffffffffffffffffffffffffffffffffffffffff163373ffffffffffffffffffffffffffffffffffffffff16146116af576040517f08c379a00000000000000000000000000000000000000000000000000000000081526004016116a690614aa6565b60405180910390fd5b600082116116f2576040517f08c379a00000000000000000000000000000000000000000000000000000000081526004016116e990614e9a565b60405180910390fd5b8160118190555080601260006101000a81548160ff0219169083151502179055507fa9495e17c26190da2181ac3c23342384e968c7ed3daf98df831d65060f83aeca8282604051611744929190614eba565b60405180910390a15050565b80600073ffffffffffffffffffffffffffffffffffffffff16600c600083815260200190815260200160002060000160009054906101000a900473ffffffffffffffffffffffffffffffffffffffff1673ffffffffffffffffffffffffffffffffffffffff16036117f6576040517f08c379a00000000000000000000000000000000000000000000000000000000081526004016117ed90614b7e565b60405180910390fd5b6117fe6139f6565b600f600083815260200190815260200160002060003373ffffffffffffffffffffffffffffffffffffffff1673ffffffffffffffffffffffffffffffffffffffff16815260200190815260200160002060009054906101000a900460ff161561189c576040517f08c379a000000000000000000000000000000000000000000000000000000000815260040161189390614f2f565b60405180910390fd5b600c600083815260200190815260200160002060050160008154809291906118c390614f4f565b91905055506001600f600084815260200190815260200160002060003373ffffffffffffffffffffffffffffffffffffffff1673ffffffffffffffffffffffffffffffffffffffff16815260200190815260200160002060006101000a81548160ff0219169083151502179055503373ffffffffffffffffffffffffffffffffffffffff16827f252555045b2bb75bbf4e656932c7fc2d63e8e7d9acc300a6b55d6575a2c8d42860405160405180910390a361197d613a3c565b5050565b60075481565b60065481565b600160009054906101000a900473ffffffffffffffffffffffffffffffffffffffff1673ffffffffffffffffffffffffffffffffffffffff163373ffffffffffffffffffffffffffffffffffffffff1614611a1d576040517f08c379a0000000000000000000000000000000000000000000000000000000008152600401611a1490614aa6565b60405180910390fd5b6000600360009054906101000a900473ffffffffffffffffffffffffffffffffffffffff1673ffffffffffffffffffffffffffffffffffffffff1647604051611a6590614fc8565b60006040518083038185875af1925050503d8060008114611aa2576040519150601f19603f3d011682016040523d82523d6000602084013e611aa7565b606091505b5050905080611aeb576040517f08c379a0000000000000000000000000000000000000000000000000000000008152600401611ae290615029565b60405180910390fd5b50565b60085481565b6000600f600084815260200190815260200160002060008373ffffffffffffffffffffffffffffffffffffffff1673ffffffffffffffffffffffffffffffffffffffff16815260200190815260200160002060009054906101000a900460ff16905092915050565b611b646139f6565b8073ffffffffffffffffffffffffffffffffffffffff163373ffffffffffffffffffffffffffffffffffffffff1603611bd2576040517f08c379a0000000000000000000000000000000000000000000000000000000008152600401611bc990615095565b60405180910390fd5b600e60003373ffffffffffffffffffffffffffffffffffffffff1673ffffffffffffffffffffffffffffffffffffffff16815260200190815260200160002060008273ffffffffffffffffffffffffffffffffffffffff1673ffffffffffffffffffffffffffffffffffffffff16815260200190815260200160002060009054906101000a900460ff1615611c9c576040517f08c379a0000000000000000000000000000000000000000000000000000000008152600401611c9390615101565b60405180910390fd5b6001600e60003373ffffffffffffffffffffffffffffffffffffffff1673ffffffffffffffffffffffffffffffffffffffff16815260200190815260200160002060008373ffffffffffffffffffffffffffffffffffffffff1673ffffffffffffffffffffffffffffffffffffffff16815260200190815260200160002060006101000a81548160ff021916908315150217905550600d60008273ffffffffffffffffffffffffffffffffffffffff1673ffffffffffffffffffffffffffffffffffffffff1681526020019081526020016000206002016000815480929190611d8490614f4f565b91905055508073ffffffffffffffffffffffffffffffffffffffff163373ffffffffffffffffffffffffffffffffffffffff167f1e4f76f27ac4380b0e6c2d1a24f025857826721375cb34acd4ac2cccd831eead60405160405180910390a3611deb613a3c565b50565b60095481565b611dfc6139f6565b6000611e06610d44565b905080670de0b6b3a764000034611e1d91906149b8565b1015611e5e576040517f08c379a0000000000000000000000000000000000000000000000000000000008152600401611e559061516d565b60405180910390fd5b60008311611ea1576040517f08c379a0000000000000000000000000000000000000000000000000000000008152600401611e98906151d9565b60405180910390fd5b600554831115611ee6576040517f08c379a0000000000000000000000000000000000000000000000000000000008152600401611edd90615245565b60405180910390fd5b60008211611f29576040517f08c379a0000000000000000000000000000000000000000000000000000000008152600401611f20906152b1565b60405180910390fd5b600654821115611f6e576040517f08c379a0000000000000000000000000000000000000000000000000000000008152600401611f659061531d565b60405180910390fd5b83600c60008681526020019081526020016000206001015403611fc6576040517f08c379a0000000000000000000000000000000000000000000000000000000008152600401611fbd90615389565b60405180910390fd5b60006040518060c001604052803373ffffffffffffffffffffffffffffffffffffffff168152602001868152602001600081526020018581526020018481526020016000815250905080600c600087815260200190815260200160002060008201518160000160006101000a81548173ffffffffffffffffffffffffffffffffffffffff021916908373ffffffffffffffffffffffffffffffffffffffff1602179055506020820151816001015560408201518160020155606082015181600301556080820151816004015560a082015181600501559050503373ffffffffffffffffffffffffffffffffffffffff16857fee2bb18d8855dfdb5d995a58bfd62de687f23bff5f41f6d2919ebb3bdf2be3a78787876040516120ea93929190614d3f565b60405180910390a36004600081548092919061210590614f4f565b91905055505050612114613a3c565b505050565b6000600d60008373ffffffffffffffffffffffffffffffffffffffff1673ffffffffffffffffffffffffffffffffffffffff168152602001908152602001600020600201549050919050565b600060106000838152602001908152602001600020805490509050919050565b61218d6139f6565b600034116121d0576040517f08c379a00000000000000000000000000000000000000000000000000000000081526004016121c7906153f5565b60405180910390fd5b600073ffffffffffffffffffffffffffffffffffffffff168173ffffffffffffffffffffffffffffffffffffffff160361223f576040517f08c379a000000000000000000000000000000000000000000000000000000000815260040161223690615461565b60405180910390fd5b34600d60008373ffffffffffffffffffffffffffffffffffffffff1673ffffffffffffffffffffffffffffffffffffffff16815260200190815260200160002060030160008282546122919190614c9f565b9250508190555060008173ffffffffffffffffffffffffffffffffffffffff16346040516122be90614fc8565b60006040518083038185875af1925050503d80600081146122fb576040519150601f19603f3d011682016040523d82523d6000602084013e612300565b606091505b5050905080612344576040517f08c379a000000000000000000000000000000000000000000000000000000000815260040161233b906154cd565b60405180910390fd5b8173ffffffffffffffffffffffffffffffffffffffff163373ffffffffffffffffffffffffffffffffffffffff167fa32d9d0d87d6c17bab78e0fe62ab9560e6f09ec4a903287bac5dd223e358c186346040516123a19190613f0d565b60405180910390a3506123b2613a3c565b50565b600080600080600080600b60009054906101000a900473ffffffffffffffffffffffffffffffffffffffff1673ffffffffffffffffffffffffffffffffffffffff1663feaf968c6040518163ffffffff1660e01b815260040160a060405180830381865afa15801561242b573d6000803e3d6000fd5b505050506040513d601f19601f8201168201806040525081019061244f919061557a565b9450945094509450945060008569ffffffffffffffffffff16116124a8576040517f08c379a000000000000000000000000000000000000000000000000000000000815260040161249f90615641565b60405180910390fd5b8469ffffffffffffffffffff168169ffffffffffffffffffff161015612503576040517f08c379a00000000000000000000000000000000000000000000000000000000081526004016124fa906156ad565b60405180910390fd5b60008413612546576040517f08c379a000000000000000000000000000000000000000000000000000000000815260040161253d90615719565b60405180910390fd5b6000824211612556576000612563565b82426125629190615739565b5b9050610e1081106125a9576040517f08c379a00000000000000000000000000000000000000000000000000000000081526004016125a0906157b9565b60405180910390fd5b6402540be400856125ba91906149b8565b965050505050505090565b600160009054906101000a900473ffffffffffffffffffffffffffffffffffffffff1673ffffffffffffffffffffffffffffffffffffffff163373ffffffffffffffffffffffffffffffffffffffff1614612655576040517f08c379a000000000000000000000000000000000000000000000000000000000815260040161264c90614aa6565b60405180910390fd5b620f424081111561269b576040517f08c379a000000000000000000000000000000000000000000000000000000000815260040161269290615825565b60405180910390fd5b80600a819055507f8c4d35e54a3f2ef1134138fd8ea3daee6a3c89e10d2665996babdf70261e2c76816040516126d19190613f0d565b60405180910390a150565b600260009054906101000a900473ffffffffffffffffffffffffffffffffffffffff1673ffffffffffffffffffffffffffffffffffffffff163373ffffffffffffffffffffffffffffffffffffffff161461276c576040517f08c379a000000000000000000000000000000000000000000000000000000000815260040161276390614aa6565b60405180910390fd5b6000600160009054906101000a900473ffffffffffffffffffffffffffffffffffffffff16905033600160006101000a81548173ffffffffffffffffffffffffffffffffffffffff021916908373ffffffffffffffffffffffffffffffffffffffff1602179055506000600260006101000a81548173ffffffffffffffffffffffffffffffffffffffff021916908373ffffffffffffffffffffffffffffffffffffffff1602179055503373ffffffffffffffffffffffffffffffffffffffff168173ffffffffffffffffffffffffffffffffffffffff167f8be0079c531659141344cd1fd0a4f28419497f9722a3daafe3b4186f6b6457e060405160405180910390a350565b80600c6000828152602001908152602001600020600401543410156128cd576040517f08c379a00000000000000000000000000000000000000000000000000000000081526004016128c490615891565b60405180910390fd5b81600073ffffffffffffffffffffffffffffffffffffffff16600c600083815260200190815260200160002060000160009054906101000a900473ffffffffffffffffffffffffffffffffffffffff1673ffffffffffffffffffffffffffffffffffffffff1603612973576040517f08c379a000000000000000000000000000000000000000000000000000000000815260040161296a90614b7e565b60405180910390fd5b61297b6139f6565b6000600c6000858152602001908152602001600020905080600301548160020154106129dc576040517f08c379a00000000000000000000000000000000000000000000000000000000081526004016129d3906158fd565b60405180910390fd5b8060020160008154809291906129f190614f4f565b9190505550612a24348260000160009054906101000a900473ffffffffffffffffffffffffffffffffffffffff16613a46565b3373ffffffffffffffffffffffffffffffffffffffff16847f6ca565cbe12d6a229e5001591809c6900e82e4dc3d5abc5d7f48e1a9c2073e9d34604051612a6b9190613f0d565b60405180910390a350612a7c613a3c565b505050565b600160009054906101000a900473ffffffffffffffffffffffffffffffffffffffff1673ffffffffffffffffffffffffffffffffffffffff163373ffffffffffffffffffffffffffffffffffffffff1614612b11576040517f08c379a0000000000000000000000000000000000000000000000000000000008152600401612b0890614aa6565b60405180910390fd5b600073ffffffffffffffffffffffffffffffffffffffff168173ffffffffffffffffffffffffffffffffffffffff1603612b80576040517f08c379a0000000000000000000000000000000000000000000000000000000008152600401612b7790615969565b60405180910390fd5b80600360006101000a81548173ffffffffffffffffffffffffffffffffffffffff021916908373ffffffffffffffffffffffffffffffffffffffff1602179055507fec859decd72bbc1028a5d9cff18865d253e0a9c46133f5de383c3cd73ab89b6581604051612bf09190614190565b60405180910390a150565b600160009054906101000a900473ffffffffffffffffffffffffffffffffffffffff1681565b600d602052806000526040600020600091509050806000018054612c44906146b8565b80601f0160208091040260200160405190810160405280929190818152602001828054612c70906146b8565b8015612cbd5780601f10612c9257610100808354040283529160200191612cbd565b820191906000526020600020905b815481529060010190602001808311612ca057829003601f168201915b5050505050908060010154908060020154908060030154905084565b60055481565b6000600e60008473ffffffffffffffffffffffffffffffffffffffff1673ffffffffffffffffffffffffffffffffffffffff16815260200190815260200160002060008373ffffffffffffffffffffffffffffffffffffffff1673ffffffffffffffffffffffffffffffffffffffff16815260200190815260200160002060009054906101000a900460ff16905092915050565b610e1081565b612d81613cd0565b600d60008373ffffffffffffffffffffffffffffffffffffffff1673ffffffffffffffffffffffffffffffffffffffff168152602001908152602001600020604051806080016040529081600082018054612ddb906146b8565b80601f0160208091040260200160405190810160405280929190818152602001828054612e07906146b8565b8015612e545780601f10612e2957610100808354040283529160200191612e54565b820191906000526020600020905b815481529060010190602001808311612e3757829003601f168201915b5050505050815260200160018201548152602001600282015481526020016003820154815250509050919050565b6000601260009054906101000a900460ff1615612ea3576011549050612eae565b612eab6123b5565b90505b90565b600160009054906101000a900473ffffffffffffffffffffffffffffffffffffffff1673ffffffffffffffffffffffffffffffffffffffff163373ffffffffffffffffffffffffffffffffffffffff1614612f41576040517f08c379a0000000000000000000000000000000000000000000000000000000008152600401612f3890614aa6565b60405180910390fd5b600081118015612f5357506006548114155b612f92576040517f08c379a0000000000000000000000000000000000000000000000000000000008152600401612f89906159d5565b60405180910390fd5b806006819055507f732603a291622cec912f16c1f255237a3c66fdaaebc8c61e72c21600547f61ee81604051612fc89190613f0d565b60405180910390a150565b612fdb613cf8565b604051806060016040528060085481526020016007548152602001600954815250905090565b600360009054906101000a900473ffffffffffffffffffffffffffffffffffffffff1681565b600f6020528160005260406000206020528060005260406000206000915091509054906101000a900460ff1681565b600e6020528160005260406000206020528060005260406000206000915091509054906101000a900460ff1681565b6060600060106000868152602001908152602001600020905060008180549050905080851061310c57600067ffffffffffffffff8111156130c9576130c8613d80565b5b60405190808252806020026020018201604052801561310257816020015b6130ef613d1a565b8152602001906001900390816130e75790505b50925050506132f9565b6000848661311a9190614c9f565b905081811115613128578190505b600086826131369190615739565b905060008167ffffffffffffffff81111561315457613153613d80565b5b60405190808252806020026020018201604052801561318d57816020015b61317a613d1a565b8152602001906001900390816131725790505b50905060005b828110156132ef5785818a6131a89190614c9f565b815481106131b9576131b86159f5565b5b90600052602060002090600302016040518060600160405290816000820160009054906101000a900473ffffffffffffffffffffffffffffffffffffffff1673ffffffffffffffffffffffffffffffffffffffff1673ffffffffffffffffffffffffffffffffffffffff168152602001600182018054613238906146b8565b80601f0160208091040260200160405190810160405280929190818152602001828054613264906146b8565b80156132b15780601f10613286576101008083540402835291602001916132b1565b820191906000526020600020905b81548152906001019060200180831161329457829003601f168201915b505050505081526020016002820154815250508282815181106132d7576132d66159f5565b5b60200260200101819052508080600101915050613193565b5080955050505050505b9392505050565b606060106000838152602001908152602001600020805480602002602001604051908101604052809291908181526020016000905b8282101561345957838290600052602060002090600302016040518060600160405290816000820160009054906101000a900473ffffffffffffffffffffffffffffffffffffffff1673ffffffffffffffffffffffffffffffffffffffff1673ffffffffffffffffffffffffffffffffffffffff1681526020016001820180546133be906146b8565b80601f01602080910402602001604051908101604052809291908181526020018280546133ea906146b8565b80156134375780601f1061340c57610100808354040283529160200191613437565b820191906000526020600020905b81548152906001019060200180831161341a57829003601f168201915b5050505050815260200160028201548152505081526020019060010190613335565b505050509050919050565b600260009054906101000a900473ffffffffffffffffffffffffffffffffffffffff1681565b600c6020528060005260406000206000915090508060000160009054906101000a900473ffffffffffffffffffffffffffffffffffffffff16908060010154908060020154908060030154908060040154908060050154905086565b81600073ffffffffffffffffffffffffffffffffffffffff16600c600083815260200190815260200160002060000160009054906101000a900473ffffffffffffffffffffffffffffffffffffffff1673ffffffffffffffffffffffffffffffffffffffff160361358c576040517f08c379a000000000000000000000000000000000000000000000000000000000815260040161358390614b7e565b60405180910390fd5b600060405180606001604052803373ffffffffffffffffffffffffffffffffffffffff1681526020018481526020014281525090506010600085815260200190815260200160002081908060018154018082558091505060019003906000526020600020906003020160009091909190915060008201518160000160006101000a81548173ffffffffffffffffffffffffffffffffffffffff021916908373ffffffffffffffffffffffffffffffffffffffff160217905550602082015181600101908161365a9190614895565b506040820151816002015550503373ffffffffffffffffffffffffffffffffffffffff16847fcc2d7dd2085ae6644799a42c0174adf9afc10a43f26db5eac3ddd1f96d1d64be856040516136ae9190614967565b60405180910390a350505050565b813373ffffffffffffffffffffffffffffffffffffffff16600c600083815260200190815260200160002060000160009054906101000a900473ffffffffffffffffffffffffffffffffffffffff1673ffffffffffffffffffffffffffffffffffffffff1614613761576040517f08c379a000000000000000000000000000000000000000000000000000000000815260040161375890614aa6565b60405180910390fd5b81600c600085815260200190815260200160002060040181905550827f2e1c9e000c6e8dda4d03536adb13b7cb6034ccff90d17f01de381e4d5097b525836040516137ac9190613f0d565b60405180910390a2505050565b60045481565b600160009054906101000a900473ffffffffffffffffffffffffffffffffffffffff1673ffffffffffffffffffffffffffffffffffffffff163373ffffffffffffffffffffffffffffffffffffffff161461384f576040517f08c379a000000000000000000000000000000000000000000000000000000000815260040161384690614aa6565b60405180910390fd5b600073ffffffffffffffffffffffffffffffffffffffff168173ffffffffffffffffffffffffffffffffffffffff16036138be576040517f08c379a00000000000000000000000000000000000000000000000000000000081526004016138b590615969565b60405180910390fd5b80600260006101000a81548173ffffffffffffffffffffffffffffffffffffffff021916908373ffffffffffffffffffffffffffffffffffffffff16021790555050565b601e81565b6010602052816000526040600020818154811061392357600080fd5b9060005260206000209060030201600091509150508060000160009054906101000a900473ffffffffffffffffffffffffffffffffffffffff169080600101805461396d906146b8565b80601f0160208091040260200160405190810160405280929190818152602001828054613999906146b8565b80156139e65780601f106139bb576101008083540402835291602001916139e6565b820191906000526020600020905b8154815290600101906020018083116139c957829003601f168201915b5050505050908060020154905083565b600260005403613a32576040517f3ee5aeb500000000000000000000000000000000000000000000000000000000815260040160405180910390fd5b6002600081905550565b6001600081905550565b6000606460075484613a5891906149b8565b613a629190614a29565b90506000606460095485613a7691906149b8565b613a809190614a29565b90506000606460085486613a9491906149b8565b613a9e9190614a29565b905060008473ffffffffffffffffffffffffffffffffffffffff1684604051613ac690614fc8565b60006040518083038185875af1925050503d8060008114613b03576040519150601f19603f3d011682016040523d82523d6000602084013e613b08565b606091505b5050905080613b4c576040517f08c379a0000000000000000000000000000000000000000000000000000000008152600401613b4390615a70565b60405180910390fd5b60003373ffffffffffffffffffffffffffffffffffffffff1684604051613b7290614fc8565b60006040518083038185875af1925050503d8060008114613baf576040519150601f19603f3d011682016040523d82523d6000602084013e613bb4565b606091505b5050905080613bf8576040517f08c379a0000000000000000000000000000000000000000000000000000000008152600401613bef90615adc565b60405180910390fd5b6000600360009054906101000a900473ffffffffffffffffffffffffffffffffffffffff1673ffffffffffffffffffffffffffffffffffffffff1684604051613c4090614fc8565b60006040518083038185875af1925050503d8060008114613c7d576040519150601f19603f3d011682016040523d82523d6000602084013e613c82565b606091505b5050905080613cc6576040517f08c379a0000000000000000000000000000000000000000000000000000000008152600401613cbd90615b48565b60405180910390fd5b5050505050505050565b6040518060800160405280606081526020016000815260200160008152602001600081525090565b6040518060600160405280600390602082028036833780820191505090505090565b6040518060600160405280600073ffffffffffffffffffffffffffffffffffffffff16815260200160608152602001600081525090565b6000604051905090565b600080fd5b600080fd5b600080fd5b600080fd5b6000601f19601f8301169050919050565b7f4e487b7100000000000000000000000000000000000000000000000000000000600052604160045260246000fd5b613db882613d6f565b810181811067ffffffffffffffff82111715613dd757613dd6613d80565b5b80604052505050565b6000613dea613d51565b9050613df68282613daf565b919050565b600067ffffffffffffffff821115613e1657613e15613d80565b5b613e1f82613d6f565b9050602081019050919050565b82818337600083830152505050565b6000613e4e613e4984613dfb565b613de0565b905082815260208101848484011115613e6a57613e69613d6a565b5b613e75848285613e2c565b509392505050565b600082601f830112613e9257613e91613d65565b5b8135613ea2848260208601613e3b565b91505092915050565b600060208284031215613ec157613ec0613d5b565b5b600082013567ffffffffffffffff811115613edf57613ede613d60565b5b613eeb84828501613e7d565b91505092915050565b6000819050919050565b613f0781613ef4565b82525050565b6000602082019050613f226000830184613efe565b92915050565b613f3181613ef4565b8114613f3c57600080fd5b50565b600081359050613f4e81613f28565b92915050565b600060208284031215613f6a57613f69613d5b565b5b6000613f7884828501613f3f565b91505092915050565b600080600060608486031215613f9a57613f99613d5b565b5b6000613fa886828701613f3f565b9350506020613fb986828701613f3f565b9250506040613fca86828701613f3f565b9150509250925092565b60008060408385031215613feb57613fea613d5b565b5b6000613ff985828601613f3f565b925050602061400a85828601613f3f565b9150509250929050565b600073ffffffffffffffffffffffffffffffffffffffff82169050919050565b600061403f82614014565b9050919050565b61404f81614034565b811461405a57600080fd5b50565b60008135905061406c81614046565b92915050565b60006020828403121561408857614087613d5b565b5b60006140968482850161405d565b91505092915050565b60008115159050919050565b6140b48161409f565b81146140bf57600080fd5b50565b6000813590506140d1816140ab565b92915050565b600080604083850312156140ee576140ed613d5b565b5b60006140fc85828601613f3f565b925050602061410d858286016140c2565b9150509250929050565b6000806040838503121561412e5761412d613d5b565b5b600061413c85828601613f3f565b925050602061414d8582860161405d565b9150509250929050565b6141608161409f565b82525050565b600060208201905061417b6000830184614157565b92915050565b61418a81614034565b82525050565b60006020820190506141a56000830184614181565b92915050565b600081519050919050565b600082825260208201905092915050565b60005b838110156141e55780820151818401526020810190506141ca565b60008484015250505050565b60006141fc826141ab565b61420681856141b6565b93506142168185602086016141c7565b61421f81613d6f565b840191505092915050565b6000608082019050818103600083015261424481876141f1565b90506142536020830186613efe565b6142606040830185613efe565b61426d6060830184613efe565b95945050505050565b6000806040838503121561428d5761428c613d5b565b5b600061429b8582860161405d565b92505060206142ac8582860161405d565b9150509250929050565b600082825260208201905092915050565b60006142d2826141ab565b6142dc81856142b6565b93506142ec8185602086016141c7565b6142f581613d6f565b840191505092915050565b61430981613ef4565b82525050565b6000608083016000830151848203600086015261432c82826142c7565b91505060208301516143416020860182614300565b5060408301516143546040860182614300565b5060608301516143676060860182614300565b508091505092915050565b6000602082019050818103600083015261438c818461430f565b905092915050565b600060039050919050565b600081905092915050565b6000819050919050565b60006143c08383614300565b60208301905092915050565b6000602082019050919050565b6143e281614394565b6143ec818461439f565b92506143f7826143aa565b8060005b8381101561442857815161440f87826143b4565b965061441a836143cc565b9250506001810190506143fb565b505050505050565b600060608201905061444560008301846143d9565b92915050565b600081519050919050565b600082825260208201905092915050565b6000819050602082019050919050565b61448081614034565b82525050565b600060608301600083015161449e6000860182614477565b50602083015184820360208601526144b682826142c7565b91505060408301516144cb6040860182614300565b508091505092915050565b60006144e28383614486565b905092915050565b6000602082019050919050565b60006145028261444b565b61450c8185614456565b93508360208202850161451e85614467565b8060005b8581101561455a578484038952815161453b85826144d6565b9450614546836144ea565b925060208a01995050600181019050614522565b50829750879550505050505092915050565b6000602082019050818103600083015261458681846144f7565b905092915050565b600060c0820190506145a36000830189614181565b6145b06020830188613efe565b6145bd6040830187613efe565b6145ca6060830186613efe565b6145d76080830185613efe565b6145e460a0830184613efe565b979650505050505050565b6000806040838503121561460657614605613d5b565b5b600061461485828601613f3f565b925050602083013567ffffffffffffffff81111561463557614634613d60565b5b61464185828601613e7d565b9150509250929050565b60006060820190506146606000830186614181565b818103602083015261467281856141f1565b90506146816040830184613efe565b949350505050565b7f4e487b7100000000000000000000000000000000000000000000000000000000600052602260045260246000fd5b600060028204905060018216806146d057607f821691505b6020821081036146e3576146e2614689565b5b50919050565b60008190508160005260206000209050919050565b60006020601f8301049050919050565b600082821b905092915050565b60006008830261474b7fffffffffffffffffffffffffffffffffffffffffffffffffffffffffffffffff8261470e565b614755868361470e565b95508019841693508086168417925050509392505050565b6000819050919050565b600061479261478d61478884613ef4565b61476d565b613ef4565b9050919050565b6000819050919050565b6147ac83614777565b6147c06147b882614799565b84845461471b565b825550505050565b600090565b6147d56147c8565b6147e08184846147a3565b505050565b5b81811015614804576147f96000826147cd565b6001810190506147e6565b5050565b601f8211156148495761481a816146e9565b614823846146fe565b81016020851015614832578190505b61484661483e856146fe565b8301826147e5565b50505b505050565b600082821c905092915050565b600061486c6000198460080261484e565b1980831691505092915050565b6000614885838361485b565b9150826002028217905092915050565b61489e826141ab565b67ffffffffffffffff8111156148b7576148b6613d80565b5b6148c182546146b8565b6148cc828285614808565b600060209050601f8311600181146148ff57600084156148ed578287015190505b6148f78582614879565b86555061495f565b601f19841661490d866146e9565b60005b8281101561493557848901518255600182019150602085019450602081019050614910565b86831015614952578489015161494e601f89168261485b565b8355505b6001600288020188555050505b505050505050565b6000602082019050818103600083015261498181846141f1565b905092915050565b7f4e487b7100000000000000000000000000000000000000000000000000000000600052601160045260246000fd5b60006149c382613ef4565b91506149ce83613ef4565b92508282026149dc81613ef4565b915082820484148315176149f3576149f2614989565b5b5092915050565b7f4e487b7100000000000000000000000000000000000000000000000000000000600052601260045260246000fd5b6000614a3482613ef4565b9150614a3f83613ef4565b925082614a4f57614a4e6149fa565b5b828204905092915050565b7f4e6f7420617574686f72697a6564000000000000000000000000000000000000600082015250565b6000614a90600e836141b6565b9150614a9b82614a5a565b602082019050919050565b60006020820190508181036000830152614abf81614a83565b9050919050565b7f496e76616c6964206d696e74206c696d69740000000000000000000000000000600082015250565b6000614afc6012836141b6565b9150614b0782614ac6565b602082019050919050565b60006020820190508181036000830152614b2b81614aef565b9050919050565b7f566964656f20646f65736e277420657869737400000000000000000000000000600082015250565b6000614b686013836141b6565b9150614b7382614b32565b602082019050919050565b60006020820190508181036000830152614b9781614b5b565b9050919050565b7f43616e6e6f7420756e6c696b6520766964656f00000000000000000000000000600082015250565b6000614bd46013836141b6565b9150614bdf82614b9e565b602082019050919050565b60006020820190508181036000830152614c0381614bc7565b9050919050565b7f4e6f206c696b657320746f2072656d6f76650000000000000000000000000000600082015250565b6000614c406012836141b6565b9150614c4b82614c0a565b602082019050919050565b60006020820190508181036000830152614c6f81614c33565b9050919050565b6000614c8182613ef4565b915060008203614c9457614c93614989565b5b600182039050919050565b6000614caa82613ef4565b9150614cb583613ef4565b9250828201905080821115614ccd57614ccc614989565b5b92915050565b7f496e76616c69642073706c697420726174696f00000000000000000000000000600082015250565b6000614d096013836141b6565b9150614d1482614cd3565b602082019050919050565b60006020820190508181036000830152614d3881614cfc565b9050919050565b6000606082019050614d546000830186613efe565b614d616020830185613efe565b614d6e6040830184613efe565b949350505050565b7f4e6f7420666f6c6c6f77696e672063726561746f720000000000000000000000600082015250565b6000614dac6015836141b6565b9150614db782614d76565b602082019050919050565b60006020820190508181036000830152614ddb81614d9f565b9050919050565b7f4e6f20666f6c6c6f7765727320746f2072656d6f766500000000000000000000600082015250565b6000614e186016836141b6565b9150614e2382614de2565b602082019050919050565b60006020820190508181036000830152614e4781614e0b565b9050919050565b7f496e76616c696420656d657267656e6379207072696365000000000000000000600082015250565b6000614e846017836141b6565b9150614e8f82614e4e565b602082019050919050565b60006020820190508181036000830152614eb381614e77565b9050919050565b6000604082019050614ecf6000830185613efe565b614edc6020830184614157565b9392505050565b7f766964656f20616c7265616479206c696b656400000000000000000000000000600082015250565b6000614f196013836141b6565b9150614f2482614ee3565b602082019050919050565b60006020820190508181036000830152614f4881614f0c565b9050919050565b6000614f5a82613ef4565b91507fffffffffffffffffffffffffffffffffffffffffffffffffffffffffffffffff8203614f8c57614f8b614989565b5b600182019050919050565b600081905092915050565b50565b6000614fb2600083614f97565b9150614fbd82614fa2565b600082019050919050565b6000614fd382614fa5565b9150819050919050565b7f7769746864726177206661696c65640000000000000000000000000000000000600082015250565b6000615013600f836141b6565b915061501e82614fdd565b602082019050919050565b6000602082019050818103600083015261504281615006565b9050919050565b7f43616e6e6f7420666f6c6c6f772073656c660000000000000000000000000000600082015250565b600061507f6012836141b6565b915061508a82615049565b602082019050919050565b600060208201905081810360008301526150ae81615072565b9050919050565b7f416c726561647920666f6c6c6f77696e67000000000000000000000000000000600082015250565b60006150eb6011836141b6565b91506150f6826150b5565b602082019050919050565b6000602082019050818103600083015261511a816150de565b9050919050565b7f496e73756666696369656e742075706c6f616420666565000000000000000000600082015250565b60006151576017836141b6565b915061516282615121565b602082019050919050565b600060208201905081810360008301526151868161514a565b9050919050565b7f496e76616c6964204d696e74204c696d69742100000000000000000000000000600082015250565b60006151c36013836141b6565b91506151ce8261518d565b602082019050919050565b600060208201905081810360008301526151f2816151b6565b9050919050565b7f4d696e74206c696d697420746f6f206869676800000000000000000000000000600082015250565b600061522f6013836141b6565b915061523a826151f9565b602082019050919050565b6000602082019050818103600083015261525e81615222565b9050919050565b7f4d696e7420707269636520746f6f206c6f772100000000000000000000000000600082015250565b600061529b6013836141b6565b91506152a682615265565b602082019050919050565b600060208201905081810360008301526152ca8161528e565b9050919050565b7f4d696e7420707269636520746f6f206869676800000000000000000000000000600082015250565b60006153076013836141b6565b9150615312826152d1565b602082019050919050565b60006020820190508181036000830152615336816152fa565b9050919050565b7f566964656f20616c726561647920657869737473210000000000000000000000600082015250565b60006153736015836141b6565b915061537e8261533d565b602082019050919050565b600060208201905081810360008301526153a281615366565b9050919050565b7f496e76616c69642074697020616d6f756e740000000000000000000000000000600082015250565b60006153df6012836141b6565b91506153ea826153a9565b602082019050919050565b6000602082019050818103600083015261540e816153d2565b9050919050565b7f496e76616c69642063726561746f722061646472657373000000000000000000600082015250565b600061544b6017836141b6565b915061545682615415565b602082019050919050565b6000602082019050818103600083015261547a8161543e565b9050919050565b7f4661696c656420746f207469702063726561746f720000000000000000000000600082015250565b60006154b76015836141b6565b91506154c282615481565b602082019050919050565b600060208201905081810360008301526154e6816154aa565b9050919050565b600069ffffffffffffffffffff82169050919050565b61550c816154ed565b811461551757600080fd5b50565b60008151905061552981615503565b92915050565b6000819050919050565b6155428161552f565b811461554d57600080fd5b50565b60008151905061555f81615539565b92915050565b60008151905061557481613f28565b92915050565b600080600080600060a0868803121561559657615595613d5b565b5b60006155a48882890161551a565b95505060206155b588828901615550565b94505060406155c688828901615565565b93505060606155d788828901615565565b92505060806155e88882890161551a565b9150509295509295909350565b7f496e76616c696420726f756e6420494400000000000000000000000000000000600082015250565b600061562b6010836141b6565b9150615636826155f5565b602082019050919050565b6000602082019050818103600083015261565a8161561e565b9050919050565b7f5374616c65207072696365206461746100000000000000000000000000000000600082015250565b60006156976010836141b6565b91506156a282615661565b602082019050919050565b600060208201905081810360008301526156c68161568a565b9050919050565b7f496e76616c69642070726963652066726f6d206f7261636c6500000000000000600082015250565b60006157036019836141b6565b915061570e826156cd565b602082019050919050565b60006020820190508181036000830152615732816156f6565b9050919050565b600061574482613ef4565b915061574f83613ef4565b925082820390508181111561576757615766614989565b5b92915050565b7f5072696365206461746120746f6f206f6c640000000000000000000000000000600082015250565b60006157a36012836141b6565b91506157ae8261576d565b602082019050919050565b600060208201905081810360008301526157d281615796565b9050919050565b7f46656520697320746f6f20686967680000000000000000000000000000000000600082015250565b600061580f600f836141b6565b915061581a826157d9565b602082019050919050565b6000602082019050818103600083015261583e81615802565b9050919050565b7f496e636f7272656374206d696e74206665650000000000000000000000000000600082015250565b600061587b6012836141b6565b915061588682615845565b602082019050919050565b600060208201905081810360008301526158aa8161586e565b9050919050565b7f4d696e74206c696d697420726561636865640000000000000000000000000000600082015250565b60006158e76012836141b6565b91506158f2826158b1565b602082019050919050565b60006020820190508181036000830152615916816158da565b9050919050565b7f496e76616c696420616464726573730000000000000000000000000000000000600082015250565b6000615953600f836141b6565b915061595e8261591d565b602082019050919050565b6000602082019050818103600083015261598281615946565b9050919050565b7f496e76616c6964204d696e742066656500000000000000000000000000000000600082015250565b60006159bf6010836141b6565b91506159ca82615989565b602082019050919050565b600060208201905081810360008301526159ee816159b2565b9050919050565b7f4e487b7100000000000000000000000000000000000000000000000000000000600052603260045260246000fd5b7f43726561746f72207061796d656e74206661696c656400000000000000000000600082015250565b6000615a5a6016836141b6565b9150615a6582615a24565b602082019050919050565b60006020820190508181036000830152615a8981615a4d565b9050919050565b7f4d696e746572207061796d656e74206661696c65640000000000000000000000600082015250565b6000615ac66015836141b6565b9150615ad182615a90565b602082019050919050565b60006020820190508181036000830152615af581615ab9565b9050919050565b7f50726f6a656374207061796d656e74206661696c656400000000000000000000600082015250565b6000615b326016836141b6565b9150615b3d82615afc565b602082019050919050565b60006020820190508181036000830152615b6181615b25565b905091905056fea2646970667358221220f8a8f8ae55702aa5995f09d2f23ed852505d4537d0fdb1d90d8d23f7d011b90364736f6c634300081c0033",
          "opcodes": "PUSH1 0x80 PUSH1 0x40 MSTORE PUSH1 0x0 PUSH1 0x4 SSTORE PUSH3 0xF423F PUSH1 0x5 SSTORE PUSH8 0xDE0B6B3A7640000 PUSH1 0x6 SSTORE PUSH1 0x3C PUSH1 0x7 SSTORE PUSH1 0x1E PUSH1 0x8 SSTORE PUSH1 0xA PUSH1 0x9 SSTORE CALLVALUE DUP1 ISZERO PUSH2 0x37 JUMPI PUSH1 0x0 DUP1 REVERT JUMPDEST POP PUSH1 0x1 PUSH1 0x0 DUP2 SWAP1 SSTORE POP CALLER PUSH1 0x1 PUSH1 0x0 PUSH2 0x100 EXP DUP2 SLOAD DUP2 PUSH20 0xFFFFFFFFFFFFFFFFFFFFFFFFFFFFFFFFFFFFFFFF MUL NOT AND SWAP1 DUP4 PUSH20 0xFFFFFFFFFFFFFFFFFFFFFFFFFFFFFFFFFFFFFFFF AND MUL OR SWAP1 SSTORE POP CALLER PUSH1 0x3 PUSH1 0x0 PUSH2 0x100 EXP DUP2 SLOAD DUP2 PUSH20 0xFFFFFFFFFFFFFFFFFFFFFFFFFFFFFFFFFFFFFFFF MUL NOT AND SWAP1 DUP4 PUSH20 0xFFFFFFFFFFFFFFFFFFFFFFFFFFFFFFFFFFFFFFFF AND MUL OR SWAP1 SSTORE POP PUSH1 0x64 PUSH4 0x42C1D80 PUSH2 0xD3 SWAP2 SWAP1 PUSH2 0x16C JUMP JUMPDEST PUSH1 0xA DUP2 SWAP1 SSTORE POP PUSH20 0x4ADC67696BA383F43DD60A9E78F2C97FBBFC7CB1 PUSH1 0xB PUSH1 0x0 PUSH2 0x100 EXP DUP2 SLOAD DUP2 PUSH20 0xFFFFFFFFFFFFFFFFFFFFFFFFFFFFFFFFFFFFFFFF MUL NOT AND SWAP1 DUP4 PUSH20 0xFFFFFFFFFFFFFFFFFFFFFFFFFFFFFFFFFFFFFFFF AND MUL OR SWAP1 SSTORE POP PUSH2 0x19D JUMP JUMPDEST PUSH1 0x0 DUP2 SWAP1 POP SWAP2 SWAP1 POP JUMP JUMPDEST PUSH32 0x4E487B7100000000000000000000000000000000000000000000000000000000 PUSH1 0x0 MSTORE PUSH1 0x12 PUSH1 0x4 MSTORE PUSH1 0x24 PUSH1 0x0 REVERT JUMPDEST PUSH1 0x0 PUSH2 0x177 DUP3 PUSH2 0x133 JUMP JUMPDEST SWAP2 POP PUSH2 0x182 DUP4 PUSH2 0x133 JUMP JUMPDEST SWAP3 POP DUP3 PUSH2 0x192 JUMPI PUSH2 0x191 PUSH2 0x13D JUMP JUMPDEST JUMPDEST DUP3 DUP3 DIV SWAP1 POP SWAP3 SWAP2 POP POP JUMP JUMPDEST PUSH2 0x5B9E DUP1 PUSH2 0x1AC PUSH1 0x0 CODECOPY PUSH1 0x0 RETURN INVALID PUSH1 0x80 PUSH1 0x40 MSTORE PUSH1 0x4 CALLDATASIZE LT PUSH2 0x2C8 JUMPI PUSH1 0x0 CALLDATALOAD PUSH1 0xE0 SHR DUP1 PUSH4 0x79BA5097 GT PUSH2 0x175 JUMPI DUP1 PUSH4 0xBEB08AB9 GT PUSH2 0xDC JUMPI DUP1 PUSH4 0xE6821BF5 GT PUSH2 0x95 JUMPI DUP1 PUSH4 0xEF08523B GT PUSH2 0x6F JUMPI DUP1 PUSH4 0xEF08523B EQ PUSH2 0xAE4 JUMPI DUP1 PUSH4 0xF2FDE38B EQ PUSH2 0xB0F JUMPI DUP1 PUSH4 0xF3A8CAF5 EQ PUSH2 0xB38 JUMPI DUP1 PUSH4 0xFC6C776F EQ PUSH2 0xB63 JUMPI PUSH2 0x2C8 JUMP JUMPDEST DUP1 PUSH4 0xE6821BF5 EQ PUSH2 0xA50 JUMPI DUP1 PUSH4 0xE8ED1653 EQ PUSH2 0xA92 JUMPI DUP1 PUSH4 0xEC9CA258 EQ PUSH2 0xABB JUMPI PUSH2 0x2C8 JUMP JUMPDEST DUP1 PUSH4 0xBEB08AB9 EQ PUSH2 0x906 JUMPI DUP1 PUSH4 0xC0A19963 EQ PUSH2 0x931 JUMPI DUP1 PUSH4 0xCE9AE001 EQ PUSH2 0x96E JUMPI DUP1 PUSH4 0xD2825AF3 EQ PUSH2 0x9AB JUMPI DUP1 PUSH4 0xDAF6160C EQ PUSH2 0x9E8 JUMPI DUP1 PUSH4 0xE30C3978 EQ PUSH2 0xA25 JUMPI PUSH2 0x2C8 JUMP JUMPDEST DUP1 PUSH4 0x99EC3A42 GT PUSH2 0x12E JUMPI DUP1 PUSH4 0x99EC3A42 EQ PUSH2 0x7E2 JUMPI DUP1 PUSH4 0x9D7F7E86 EQ PUSH2 0x81F JUMPI DUP1 PUSH4 0x9E39E58D EQ PUSH2 0x84A JUMPI DUP1 PUSH4 0xA05614E8 EQ PUSH2 0x887 JUMPI DUP1 PUSH4 0xA5B6F941 EQ PUSH2 0x8B2 JUMPI DUP1 PUSH4 0xA9CFAB0B EQ PUSH2 0x8DB JUMPI PUSH2 0x2C8 JUMP JUMPDEST DUP1 PUSH4 0x79BA5097 EQ PUSH2 0x6F0 JUMPI DUP1 PUSH4 0x7CE2A824 EQ PUSH2 0x707 JUMPI DUP1 PUSH4 0x8A780447 EQ PUSH2 0x723 JUMPI DUP1 PUSH4 0x8DA5CB5B EQ PUSH2 0x74C JUMPI DUP1 PUSH4 0x933166E1 EQ PUSH2 0x777 JUMPI DUP1 PUSH4 0x996517CF EQ PUSH2 0x7B7 JUMPI PUSH2 0x2C8 JUMP JUMPDEST DUP1 PUSH4 0x2E7A81CB GT PUSH2 0x234 JUMPI DUP1 PUSH4 0x4FB9B047 GT PUSH2 0x1ED JUMPI DUP1 PUSH4 0x587520FA GT PUSH2 0x1C7 JUMPI DUP1 PUSH4 0x587520FA EQ PUSH2 0x643 JUMPI DUP1 PUSH4 0x65C4E4AA EQ PUSH2 0x680 JUMPI DUP1 PUSH4 0x67C9B017 EQ PUSH2 0x69C JUMPI DUP1 PUSH4 0x69FE0E2D EQ PUSH2 0x6C7 JUMPI PUSH2 0x2C8 JUMP JUMPDEST DUP1 PUSH4 0x4FB9B047 EQ PUSH2 0x5BF JUMPI DUP1 PUSH4 0x53AE3586 EQ PUSH2 0x5EA JUMPI DUP1 PUSH4 0x55E6A806 EQ PUSH2 0x606 JUMPI PUSH2 0x2C8 JUMP JUMPDEST DUP1 PUSH4 0x2E7A81CB EQ PUSH2 0x4C1 JUMPI DUP1 PUSH4 0x32CB9EEA EQ PUSH2 0x4EC JUMPI DUP1 PUSH4 0x3CCFD60B EQ PUSH2 0x517 JUMPI DUP1 PUSH4 0x445E475D EQ PUSH2 0x52E JUMPI DUP1 PUSH4 0x46A094D2 EQ PUSH2 0x559 JUMPI DUP1 PUSH4 0x4D90BC37 EQ PUSH2 0x596 JUMPI PUSH2 0x2C8 JUMP JUMPDEST DUP1 PUSH4 0x136F5CDD GT PUSH2 0x286 JUMPI DUP1 PUSH4 0x136F5CDD EQ PUSH2 0x3C9 JUMPI DUP1 PUSH4 0x140DA7CC EQ PUSH2 0x3F4 JUMPI DUP1 PUSH4 0x150F885E EQ PUSH2 0x41D JUMPI DUP1 PUSH4 0x18196191 EQ PUSH2 0x446 JUMPI DUP1 PUSH4 0x1B9EE4D1 EQ PUSH2 0x46F JUMPI DUP1 PUSH4 0x27260D5C EQ PUSH2 0x498 JUMPI PUSH2 0x2C8 JUMP JUMPDEST DUP1 PUSH3 0x9299E3 EQ PUSH2 0x2CD JUMPI DUP1 PUSH4 0x8796FDA EQ PUSH2 0x2F6 JUMPI DUP1 PUSH4 0x8D5C327 EQ PUSH2 0x321 JUMPI DUP1 PUSH4 0x9897097 EQ PUSH2 0x34C JUMPI DUP1 PUSH4 0x11ABD324 EQ PUSH2 0x375 JUMPI DUP1 PUSH4 0x12065FE0 EQ PUSH2 0x39E JUMPI JUMPDEST PUSH1 0x0 DUP1 REVERT JUMPDEST CALLVALUE DUP1 ISZERO PUSH2 0x2D9 JUMPI PUSH1 0x0 DUP1 REVERT JUMPDEST POP PUSH2 0x2F4 PUSH1 0x4 DUP1 CALLDATASIZE SUB DUP2 ADD SWAP1 PUSH2 0x2EF SWAP2 SWAP1 PUSH2 0x3EAB JUMP JUMPDEST PUSH2 0xBA2 JUMP JUMPDEST STOP JUMPDEST CALLVALUE DUP1 ISZERO PUSH2 0x302 JUMPI PUSH1 0x0 DUP1 REVERT JUMPDEST POP PUSH2 0x30B PUSH2 0xD3F JUMP JUMPDEST PUSH1 0x40 MLOAD PUSH2 0x318 SWAP2 SWAP1 PUSH2 0x3F0D JUMP JUMPDEST PUSH1 0x40 MLOAD DUP1 SWAP2 SUB SWAP1 RETURN JUMPDEST CALLVALUE DUP1 ISZERO PUSH2 0x32D JUMPI PUSH1 0x0 DUP1 REVERT JUMPDEST POP PUSH2 0x336 PUSH2 0xD44 JUMP JUMPDEST PUSH1 0x40 MLOAD PUSH2 0x343 SWAP2 SWAP1 PUSH2 0x3F0D JUMP JUMPDEST PUSH1 0x40 MLOAD DUP1 SWAP2 SUB SWAP1 RETURN JUMPDEST CALLVALUE DUP1 ISZERO PUSH2 0x358 JUMPI PUSH1 0x0 DUP1 REVERT JUMPDEST POP PUSH2 0x373 PUSH1 0x4 DUP1 CALLDATASIZE SUB DUP2 ADD SWAP1 PUSH2 0x36E SWAP2 SWAP1 PUSH2 0x3F54 JUMP JUMPDEST PUSH2 0xD83 JUMP JUMPDEST STOP JUMPDEST CALLVALUE DUP1 ISZERO PUSH2 0x381 JUMPI PUSH1 0x0 DUP1 REVERT JUMPDEST POP PUSH2 0x39C PUSH1 0x4 DUP1 CALLDATASIZE SUB DUP2 ADD SWAP1 PUSH2 0x397 SWAP2 SWAP1 PUSH2 0x3F54 JUMP JUMPDEST PUSH2 0xEA5 JUMP JUMPDEST STOP JUMPDEST CALLVALUE DUP1 ISZERO PUSH2 0x3AA JUMPI PUSH1 0x0 DUP1 REVERT JUMPDEST POP PUSH2 0x3B3 PUSH2 0x112E JUMP JUMPDEST PUSH1 0x40 MLOAD PUSH2 0x3C0 SWAP2 SWAP1 PUSH2 0x3F0D JUMP JUMPDEST PUSH1 0x40 MLOAD DUP1 SWAP2 SUB SWAP1 RETURN JUMPDEST CALLVALUE DUP1 ISZERO PUSH2 0x3D5 JUMPI PUSH1 0x0 DUP1 REVERT JUMPDEST POP PUSH2 0x3DE PUSH2 0x1136 JUMP JUMPDEST PUSH1 0x40 MLOAD PUSH2 0x3EB SWAP2 SWAP1 PUSH2 0x3F0D JUMP JUMPDEST PUSH1 0x40 MLOAD DUP1 SWAP2 SUB SWAP1 RETURN JUMPDEST CALLVALUE DUP1 ISZERO PUSH2 0x400 JUMPI PUSH1 0x0 DUP1 REVERT JUMPDEST POP PUSH2 0x41B PUSH1 0x4 DUP1 CALLDATASIZE SUB DUP2 ADD SWAP1 PUSH2 0x416 SWAP2 SWAP1 PUSH2 0x3F81 JUMP JUMPDEST PUSH2 0x113C JUMP JUMPDEST STOP JUMPDEST CALLVALUE DUP1 ISZERO PUSH2 0x429 JUMPI PUSH1 0x0 DUP1 REVERT JUMPDEST POP PUSH2 0x444 PUSH1 0x4 DUP1 CALLDATASIZE SUB DUP2 ADD SWAP1 PUSH2 0x43F SWAP2 SWAP1 PUSH2 0x3FD4 JUMP JUMPDEST PUSH2 0x127A JUMP JUMPDEST STOP JUMPDEST CALLVALUE DUP1 ISZERO PUSH2 0x452 JUMPI PUSH1 0x0 DUP1 REVERT JUMPDEST POP PUSH2 0x46D PUSH1 0x4 DUP1 CALLDATASIZE SUB DUP2 ADD SWAP1 PUSH2 0x468 SWAP2 SWAP1 PUSH2 0x4072 JUMP JUMPDEST PUSH2 0x1377 JUMP JUMPDEST STOP JUMPDEST CALLVALUE DUP1 ISZERO PUSH2 0x47B JUMPI PUSH1 0x0 DUP1 REVERT JUMPDEST POP PUSH2 0x496 PUSH1 0x4 DUP1 CALLDATASIZE SUB DUP2 ADD SWAP1 PUSH2 0x491 SWAP2 SWAP1 PUSH2 0x40D7 JUMP JUMPDEST PUSH2 0x161F JUMP JUMPDEST STOP JUMPDEST CALLVALUE DUP1 ISZERO PUSH2 0x4A4 JUMPI PUSH1 0x0 DUP1 REVERT JUMPDEST POP PUSH2 0x4BF PUSH1 0x4 DUP1 CALLDATASIZE SUB DUP2 ADD SWAP1 PUSH2 0x4BA SWAP2 SWAP1 PUSH2 0x3F54 JUMP JUMPDEST PUSH2 0x1750 JUMP JUMPDEST STOP JUMPDEST CALLVALUE DUP1 ISZERO PUSH2 0x4CD JUMPI PUSH1 0x0 DUP1 REVERT JUMPDEST POP PUSH2 0x4D6 PUSH2 0x1981 JUMP JUMPDEST PUSH1 0x40 MLOAD PUSH2 0x4E3 SWAP2 SWAP1 PUSH2 0x3F0D JUMP JUMPDEST PUSH1 0x40 MLOAD DUP1 SWAP2 SUB SWAP1 RETURN JUMPDEST CALLVALUE DUP1 ISZERO PUSH2 0x4F8 JUMPI PUSH1 0x0 DUP1 REVERT JUMPDEST POP PUSH2 0x501 PUSH2 0x1987 JUMP JUMPDEST PUSH1 0x40 MLOAD PUSH2 0x50E SWAP2 SWAP1 PUSH2 0x3F0D JUMP JUMPDEST PUSH1 0x40 MLOAD DUP1 SWAP2 SUB SWAP1 RETURN JUMPDEST CALLVALUE DUP1 ISZERO PUSH2 0x523 JUMPI PUSH1 0x0 DUP1 REVERT JUMPDEST POP PUSH2 0x52C PUSH2 0x198D JUMP JUMPDEST STOP JUMPDEST CALLVALUE DUP1 ISZERO PUSH2 0x53A JUMPI PUSH1 0x0 DUP1 REVERT JUMPDEST POP PUSH2 0x543 PUSH2 0x1AEE JUMP JUMPDEST PUSH1 0x40 MLOAD PUSH2 0x550 SWAP2 SWAP1 PUSH2 0x3F0D JUMP JUMPDEST PUSH1 0x40 MLOAD DUP1 SWAP2 SUB SWAP1 RETURN JUMPDEST CALLVALUE DUP1 ISZERO PUSH2 0x565 JUMPI PUSH1 0x0 DUP1 REVERT JUMPDEST POP PUSH2 0x580 PUSH1 0x4 DUP1 CALLDATASIZE SUB DUP2 ADD SWAP1 PUSH2 0x57B SWAP2 SWAP1 PUSH2 0x4117 JUMP JUMPDEST PUSH2 0x1AF4 JUMP JUMPDEST PUSH1 0x40 MLOAD PUSH2 0x58D SWAP2 SWAP1 PUSH2 0x4166 JUMP JUMPDEST PUSH1 0x40 MLOAD DUP1 SWAP2 SUB SWAP1 RETURN JUMPDEST CALLVALUE DUP1 ISZERO PUSH2 0x5A2 JUMPI PUSH1 0x0 DUP1 REVERT JUMPDEST POP PUSH2 0x5BD PUSH1 0x4 DUP1 CALLDATASIZE SUB DUP2 ADD SWAP1 PUSH2 0x5B8 SWAP2 SWAP1 PUSH2 0x4072 JUMP JUMPDEST PUSH2 0x1B5C JUMP JUMPDEST STOP JUMPDEST CALLVALUE DUP1 ISZERO PUSH2 0x5CB JUMPI PUSH1 0x0 DUP1 REVERT JUMPDEST POP PUSH2 0x5D4 PUSH2 0x1DEE JUMP JUMPDEST PUSH1 0x40 MLOAD PUSH2 0x5E1 SWAP2 SWAP1 PUSH2 0x3F0D JUMP JUMPDEST PUSH1 0x40 MLOAD DUP1 SWAP2 SUB SWAP1 RETURN JUMPDEST PUSH2 0x604 PUSH1 0x4 DUP1 CALLDATASIZE SUB DUP2 ADD SWAP1 PUSH2 0x5FF SWAP2 SWAP1 PUSH2 0x3F81 JUMP JUMPDEST PUSH2 0x1DF4 JUMP JUMPDEST STOP JUMPDEST CALLVALUE DUP1 ISZERO PUSH2 0x612 JUMPI PUSH1 0x0 DUP1 REVERT JUMPDEST POP PUSH2 0x62D PUSH1 0x4 DUP1 CALLDATASIZE SUB DUP2 ADD SWAP1 PUSH2 0x628 SWAP2 SWAP1 PUSH2 0x4072 JUMP JUMPDEST PUSH2 0x2119 JUMP JUMPDEST PUSH1 0x40 MLOAD PUSH2 0x63A SWAP2 SWAP1 PUSH2 0x3F0D JUMP JUMPDEST PUSH1 0x40 MLOAD DUP1 SWAP2 SUB SWAP1 RETURN JUMPDEST CALLVALUE DUP1 ISZERO PUSH2 0x64F JUMPI PUSH1 0x0 DUP1 REVERT JUMPDEST POP PUSH2 0x66A PUSH1 0x4 DUP1 CALLDATASIZE SUB DUP2 ADD SWAP1 PUSH2 0x665 SWAP2 SWAP1 PUSH2 0x3F54 JUMP JUMPDEST PUSH2 0x2165 JUMP JUMPDEST PUSH1 0x40 MLOAD PUSH2 0x677 SWAP2 SWAP1 PUSH2 0x3F0D JUMP JUMPDEST PUSH1 0x40 MLOAD DUP1 SWAP2 SUB SWAP1 RETURN JUMPDEST PUSH2 0x69A PUSH1 0x4 DUP1 CALLDATASIZE SUB DUP2 ADD SWAP1 PUSH2 0x695 SWAP2 SWAP1 PUSH2 0x4072 JUMP JUMPDEST PUSH2 0x2185 JUMP JUMPDEST STOP JUMPDEST CALLVALUE DUP1 ISZERO PUSH2 0x6A8 JUMPI PUSH1 0x0 DUP1 REVERT JUMPDEST POP PUSH2 0x6B1 PUSH2 0x23B5 JUMP JUMPDEST PUSH1 0x40 MLOAD PUSH2 0x6BE SWAP2 SWAP1 PUSH2 0x3F0D JUMP JUMPDEST PUSH1 0x40 MLOAD DUP1 SWAP2 SUB SWAP1 RETURN JUMPDEST CALLVALUE DUP1 ISZERO PUSH2 0x6D3 JUMPI PUSH1 0x0 DUP1 REVERT JUMPDEST POP PUSH2 0x6EE PUSH1 0x4 DUP1 CALLDATASIZE SUB DUP2 ADD SWAP1 PUSH2 0x6E9 SWAP2 SWAP1 PUSH2 0x3F54 JUMP JUMPDEST PUSH2 0x25C5 JUMP JUMPDEST STOP JUMPDEST CALLVALUE DUP1 ISZERO PUSH2 0x6FC JUMPI PUSH1 0x0 DUP1 REVERT JUMPDEST POP PUSH2 0x705 PUSH2 0x26DC JUMP JUMPDEST STOP JUMPDEST PUSH2 0x721 PUSH1 0x4 DUP1 CALLDATASIZE SUB DUP2 ADD SWAP1 PUSH2 0x71C SWAP2 SWAP1 PUSH2 0x3F54 JUMP JUMPDEST PUSH2 0x2873 JUMP JUMPDEST STOP JUMPDEST CALLVALUE DUP1 ISZERO PUSH2 0x72F JUMPI PUSH1 0x0 DUP1 REVERT JUMPDEST POP PUSH2 0x74A PUSH1 0x4 DUP1 CALLDATASIZE SUB DUP2 ADD SWAP1 PUSH2 0x745 SWAP2 SWAP1 PUSH2 0x4072 JUMP JUMPDEST PUSH2 0x2A81 JUMP JUMPDEST STOP JUMPDEST CALLVALUE DUP1 ISZERO PUSH2 0x758 JUMPI PUSH1 0x0 DUP1 REVERT JUMPDEST POP PUSH2 0x761 PUSH2 0x2BFB JUMP JUMPDEST PUSH1 0x40 MLOAD PUSH2 0x76E SWAP2 SWAP1 PUSH2 0x4190 JUMP JUMPDEST PUSH1 0x40 MLOAD DUP1 SWAP2 SUB SWAP1 RETURN JUMPDEST CALLVALUE DUP1 ISZERO PUSH2 0x783 JUMPI PUSH1 0x0 DUP1 REVERT JUMPDEST POP PUSH2 0x79E PUSH1 0x4 DUP1 CALLDATASIZE SUB DUP2 ADD SWAP1 PUSH2 0x799 SWAP2 SWAP1 PUSH2 0x4072 JUMP JUMPDEST PUSH2 0x2C21 JUMP JUMPDEST PUSH1 0x40 MLOAD PUSH2 0x7AE SWAP5 SWAP4 SWAP3 SWAP2 SWAP1 PUSH2 0x422A JUMP JUMPDEST PUSH1 0x40 MLOAD DUP1 SWAP2 SUB SWAP1 RETURN JUMPDEST CALLVALUE DUP1 ISZERO PUSH2 0x7C3 JUMPI PUSH1 0x0 DUP1 REVERT JUMPDEST POP PUSH2 0x7CC PUSH2 0x2CD9 JUMP JUMPDEST PUSH1 0x40 MLOAD PUSH2 0x7D9 SWAP2 SWAP1 PUSH2 0x3F0D JUMP JUMPDEST PUSH1 0x40 MLOAD DUP1 SWAP2 SUB SWAP1 RETURN JUMPDEST CALLVALUE DUP1 ISZERO PUSH2 0x7EE JUMPI PUSH1 0x0 DUP1 REVERT JUMPDEST POP PUSH2 0x809 PUSH1 0x4 DUP1 CALLDATASIZE SUB DUP2 ADD SWAP1 PUSH2 0x804 SWAP2 SWAP1 PUSH2 0x4276 JUMP JUMPDEST PUSH2 0x2CDF JUMP JUMPDEST PUSH1 0x40 MLOAD PUSH2 0x816 SWAP2 SWAP1 PUSH2 0x4166 JUMP JUMPDEST PUSH1 0x40 MLOAD DUP1 SWAP2 SUB SWAP1 RETURN JUMPDEST CALLVALUE DUP1 ISZERO PUSH2 0x82B JUMPI PUSH1 0x0 DUP1 REVERT JUMPDEST POP PUSH2 0x834 PUSH2 0x2D73 JUMP JUMPDEST PUSH1 0x40 MLOAD PUSH2 0x841 SWAP2 SWAP1 PUSH2 0x3F0D JUMP JUMPDEST PUSH1 0x40 MLOAD DUP1 SWAP2 SUB SWAP1 RETURN JUMPDEST CALLVALUE DUP1 ISZERO PUSH2 0x856 JUMPI PUSH1 0x0 DUP1 REVERT JUMPDEST POP PUSH2 0x871 PUSH1 0x4 DUP1 CALLDATASIZE SUB DUP2 ADD SWAP1 PUSH2 0x86C SWAP2 SWAP1 PUSH2 0x4072 JUMP JUMPDEST PUSH2 0x2D79 JUMP JUMPDEST PUSH1 0x40 MLOAD PUSH2 0x87E SWAP2 SWAP1 PUSH2 0x4372 JUMP JUMPDEST PUSH1 0x40 MLOAD DUP1 SWAP2 SUB SWAP1 RETURN JUMPDEST CALLVALUE DUP1 ISZERO PUSH2 0x893 JUMPI PUSH1 0x0 DUP1 REVERT JUMPDEST POP PUSH2 0x89C PUSH2 0x2E82 JUMP JUMPDEST PUSH1 0x40 MLOAD PUSH2 0x8A9 SWAP2 SWAP1 PUSH2 0x3F0D JUMP JUMPDEST PUSH1 0x40 MLOAD DUP1 SWAP2 SUB SWAP1 RETURN JUMPDEST CALLVALUE DUP1 ISZERO PUSH2 0x8BE JUMPI PUSH1 0x0 DUP1 REVERT JUMPDEST POP PUSH2 0x8D9 PUSH1 0x4 DUP1 CALLDATASIZE SUB DUP2 ADD SWAP1 PUSH2 0x8D4 SWAP2 SWAP1 PUSH2 0x3F54 JUMP JUMPDEST PUSH2 0x2EB1 JUMP JUMPDEST STOP JUMPDEST CALLVALUE DUP1 ISZERO PUSH2 0x8E7 JUMPI PUSH1 0x0 DUP1 REVERT JUMPDEST POP PUSH2 0x8F0 PUSH2 0x2FD3 JUMP JUMPDEST PUSH1 0x40 MLOAD PUSH2 0x8FD SWAP2 SWAP1 PUSH2 0x4430 JUMP JUMPDEST PUSH1 0x40 MLOAD DUP1 SWAP2 SUB SWAP1 RETURN JUMPDEST CALLVALUE DUP1 ISZERO PUSH2 0x912 JUMPI PUSH1 0x0 DUP1 REVERT JUMPDEST POP PUSH2 0x91B PUSH2 0x3001 JUMP JUMPDEST PUSH1 0x40 MLOAD PUSH2 0x928 SWAP2 SWAP1 PUSH2 0x4190 JUMP JUMPDEST PUSH1 0x40 MLOAD DUP1 SWAP2 SUB SWAP1 RETURN JUMPDEST CALLVALUE DUP1 ISZERO PUSH2 0x93D JUMPI PUSH1 0x0 DUP1 REVERT JUMPDEST POP PUSH2 0x958 PUSH1 0x4 DUP1 CALLDATASIZE SUB DUP2 ADD SWAP1 PUSH2 0x953 SWAP2 SWAP1 PUSH2 0x4117 JUMP JUMPDEST PUSH2 0x3027 JUMP JUMPDEST PUSH1 0x40 MLOAD PUSH2 0x965 SWAP2 SWAP1 PUSH2 0x4166 JUMP JUMPDEST PUSH1 0x40 MLOAD DUP1 SWAP2 SUB SWAP1 RETURN JUMPDEST CALLVALUE DUP1 ISZERO PUSH2 0x97A JUMPI PUSH1 0x0 DUP1 REVERT JUMPDEST POP PUSH2 0x995 PUSH1 0x4 DUP1 CALLDATASIZE SUB DUP2 ADD SWAP1 PUSH2 0x990 SWAP2 SWAP1 PUSH2 0x4276 JUMP JUMPDEST PUSH2 0x3056 JUMP JUMPDEST PUSH1 0x40 MLOAD PUSH2 0x9A2 SWAP2 SWAP1 PUSH2 0x4166 JUMP JUMPDEST PUSH1 0x40 MLOAD DUP1 SWAP2 SUB SWAP1 RETURN JUMPDEST CALLVALUE DUP1 ISZERO PUSH2 0x9B7 JUMPI PUSH1 0x0 DUP1 REVERT JUMPDEST POP PUSH2 0x9D2 PUSH1 0x4 DUP1 CALLDATASIZE SUB DUP2 ADD SWAP1 PUSH2 0x9CD SWAP2 SWAP1 PUSH2 0x3F81 JUMP JUMPDEST PUSH2 0x3085 JUMP JUMPDEST PUSH1 0x40 MLOAD PUSH2 0x9DF SWAP2 SWAP1 PUSH2 0x456C JUMP JUMPDEST PUSH1 0x40 MLOAD DUP1 SWAP2 SUB SWAP1 RETURN JUMPDEST CALLVALUE DUP1 ISZERO PUSH2 0x9F4 JUMPI PUSH1 0x0 DUP1 REVERT JUMPDEST POP PUSH2 0xA0F PUSH1 0x4 DUP1 CALLDATASIZE SUB DUP2 ADD SWAP1 PUSH2 0xA0A SWAP2 SWAP1 PUSH2 0x3F54 JUMP JUMPDEST PUSH2 0x3300 JUMP JUMPDEST PUSH1 0x40 MLOAD PUSH2 0xA1C SWAP2 SWAP1 PUSH2 0x456C JUMP JUMPDEST PUSH1 0x40 MLOAD DUP1 SWAP2 SUB SWAP1 RETURN JUMPDEST CALLVALUE DUP1 ISZERO PUSH2 0xA31 JUMPI PUSH1 0x0 DUP1 REVERT JUMPDEST POP PUSH2 0xA3A PUSH2 0x3464 JUMP JUMPDEST PUSH1 0x40 MLOAD PUSH2 0xA47 SWAP2 SWAP1 PUSH2 0x4190 JUMP JUMPDEST PUSH1 0x40 MLOAD DUP1 SWAP2 SUB SWAP1 RETURN JUMPDEST CALLVALUE DUP1 ISZERO PUSH2 0xA5C JUMPI PUSH1 0x0 DUP1 REVERT JUMPDEST POP PUSH2 0xA77 PUSH1 0x4 DUP1 CALLDATASIZE SUB DUP2 ADD SWAP1 PUSH2 0xA72 SWAP2 SWAP1 PUSH2 0x3F54 JUMP JUMPDEST PUSH2 0x348A JUMP JUMPDEST PUSH1 0x40 MLOAD PUSH2 0xA89 SWAP7 SWAP6 SWAP5 SWAP4 SWAP3 SWAP2 SWAP1 PUSH2 0x458E JUMP JUMPDEST PUSH1 0x40 MLOAD DUP1 SWAP2 SUB SWAP1 RETURN JUMPDEST CALLVALUE DUP1 ISZERO PUSH2 0xA9E JUMPI PUSH1 0x0 DUP1 REVERT JUMPDEST POP PUSH2 0xAB9 PUSH1 0x4 DUP1 CALLDATASIZE SUB DUP2 ADD SWAP1 PUSH2 0xAB4 SWAP2 SWAP1 PUSH2 0x45EF JUMP JUMPDEST PUSH2 0x34E6 JUMP JUMPDEST STOP JUMPDEST CALLVALUE DUP1 ISZERO PUSH2 0xAC7 JUMPI PUSH1 0x0 DUP1 REVERT JUMPDEST POP PUSH2 0xAE2 PUSH1 0x4 DUP1 CALLDATASIZE SUB DUP2 ADD SWAP1 PUSH2 0xADD SWAP2 SWAP1 PUSH2 0x3FD4 JUMP JUMPDEST PUSH2 0x36BC JUMP JUMPDEST STOP JUMPDEST CALLVALUE DUP1 ISZERO PUSH2 0xAF0 JUMPI PUSH1 0x0 DUP1 REVERT JUMPDEST POP PUSH2 0xAF9 PUSH2 0x37B9 JUMP JUMPDEST PUSH1 0x40 MLOAD PUSH2 0xB06 SWAP2 SWAP1 PUSH2 0x3F0D JUMP JUMPDEST PUSH1 0x40 MLOAD DUP1 SWAP2 SUB SWAP1 RETURN JUMPDEST CALLVALUE DUP1 ISZERO PUSH2 0xB1B JUMPI PUSH1 0x0 DUP1 REVERT JUMPDEST POP PUSH2 0xB36 PUSH1 0x4 DUP1 CALLDATASIZE SUB DUP2 ADD SWAP1 PUSH2 0xB31 SWAP2 SWAP1 PUSH2 0x4072 JUMP JUMPDEST PUSH2 0x37BF JUMP JUMPDEST STOP JUMPDEST CALLVALUE DUP1 ISZERO PUSH2 0xB44 JUMPI PUSH1 0x0 DUP1 REVERT JUMPDEST POP PUSH2 0xB4D PUSH2 0x3902 JUMP JUMPDEST PUSH1 0x40 MLOAD PUSH2 0xB5A SWAP2 SWAP1 PUSH2 0x3F0D JUMP JUMPDEST PUSH1 0x40 MLOAD DUP1 SWAP2 SUB SWAP1 RETURN JUMPDEST CALLVALUE DUP1 ISZERO PUSH2 0xB6F JUMPI PUSH1 0x0 DUP1 REVERT JUMPDEST POP PUSH2 0xB8A PUSH1 0x4 DUP1 CALLDATASIZE SUB DUP2 ADD SWAP1 PUSH2 0xB85 SWAP2 SWAP1 PUSH2 0x3FD4 JUMP JUMPDEST PUSH2 0x3907 JUMP JUMPDEST PUSH1 0x40 MLOAD PUSH2 0xB99 SWAP4 SWAP3 SWAP2 SWAP1 PUSH2 0x464B JUMP JUMPDEST PUSH1 0x40 MLOAD DUP1 SWAP2 SUB SWAP1 RETURN JUMPDEST PUSH1 0x0 PUSH1 0xD PUSH1 0x0 CALLER PUSH20 0xFFFFFFFFFFFFFFFFFFFFFFFFFFFFFFFFFFFFFFFF AND PUSH20 0xFFFFFFFFFFFFFFFFFFFFFFFFFFFFFFFFFFFFFFFF AND DUP2 MSTORE PUSH1 0x20 ADD SWAP1 DUP2 MSTORE PUSH1 0x20 ADD PUSH1 0x0 KECCAK256 PUSH1 0x0 ADD DUP1 SLOAD PUSH2 0xBF1 SWAP1 PUSH2 0x46B8 JUMP JUMPDEST SWAP1 POP SUB PUSH2 0xC97 JUMPI PUSH1 0x40 MLOAD DUP1 PUSH1 0x80 ADD PUSH1 0x40 MSTORE DUP1 DUP3 DUP2 MSTORE PUSH1 0x20 ADD PUSH1 0x0 DUP2 MSTORE PUSH1 0x20 ADD PUSH1 0x0 DUP2 MSTORE PUSH1 0x20 ADD PUSH1 0x0 DUP2 MSTORE POP PUSH1 0xD PUSH1 0x0 CALLER PUSH20 0xFFFFFFFFFFFFFFFFFFFFFFFFFFFFFFFFFFFFFFFF AND PUSH20 0xFFFFFFFFFFFFFFFFFFFFFFFFFFFFFFFFFFFFFFFF AND DUP2 MSTORE PUSH1 0x20 ADD SWAP1 DUP2 MSTORE PUSH1 0x20 ADD PUSH1 0x0 KECCAK256 PUSH1 0x0 DUP3 ADD MLOAD DUP2 PUSH1 0x0 ADD SWAP1 DUP2 PUSH2 0xC70 SWAP2 SWAP1 PUSH2 0x4895 JUMP JUMPDEST POP PUSH1 0x20 DUP3 ADD MLOAD DUP2 PUSH1 0x1 ADD SSTORE PUSH1 0x40 DUP3 ADD MLOAD DUP2 PUSH1 0x2 ADD SSTORE PUSH1 0x60 DUP3 ADD MLOAD DUP2 PUSH1 0x3 ADD SSTORE SWAP1 POP POP PUSH2 0xCEE JUMP JUMPDEST PUSH1 0x0 PUSH1 0xD PUSH1 0x0 CALLER PUSH20 0xFFFFFFFFFFFFFFFFFFFFFFFFFFFFFFFFFFFFFFFF AND PUSH20 0xFFFFFFFFFFFFFFFFFFFFFFFFFFFFFFFFFFFFFFFF AND DUP2 MSTORE PUSH1 0x20 ADD SWAP1 DUP2 MSTORE PUSH1 0x20 ADD PUSH1 0x0 KECCAK256 SWAP1 POP DUP2 DUP2 PUSH1 0x0 ADD SWAP1 DUP2 PUSH2 0xCEB SWAP2 SWAP1 PUSH2 0x4895 JUMP JUMPDEST POP POP JUMPDEST CALLER PUSH20 0xFFFFFFFFFFFFFFFFFFFFFFFFFFFFFFFFFFFFFFFF AND PUSH32 0xB07B7C8B0281BFA225D936EB4B081F263727DCAA3A2160038B8A947D75DF5CB2 DUP3 PUSH1 0x40 MLOAD PUSH2 0xD34 SWAP2 SWAP1 PUSH2 0x4967 JUMP JUMPDEST PUSH1 0x40 MLOAD DUP1 SWAP2 SUB SWAP1 LOG2 POP JUMP JUMPDEST PUSH1 0x64 DUP2 JUMP JUMPDEST PUSH1 0x0 DUP1 PUSH2 0xD4F PUSH2 0x23B5 JUMP JUMPDEST SWAP1 POP PUSH1 0x0 DUP2 PUSH13 0xC9F2C9CD04674EDEA40000000 PUSH1 0xA SLOAD PUSH2 0xD6F SWAP2 SWAP1 PUSH2 0x49B8 JUMP JUMPDEST PUSH2 0xD79 SWAP2 SWAP1 PUSH2 0x4A29 JUMP JUMPDEST SWAP1 POP DUP1 SWAP3 POP POP POP SWAP1 JUMP JUMPDEST PUSH1 0x1 PUSH1 0x0 SWAP1 SLOAD SWAP1 PUSH2 0x100 EXP SWAP1 DIV PUSH20 0xFFFFFFFFFFFFFFFFFFFFFFFFFFFFFFFFFFFFFFFF AND PUSH20 0xFFFFFFFFFFFFFFFFFFFFFFFFFFFFFFFFFFFFFFFF AND CALLER PUSH20 0xFFFFFFFFFFFFFFFFFFFFFFFFFFFFFFFFFFFFFFFF AND EQ PUSH2 0xE13 JUMPI PUSH1 0x40 MLOAD PUSH32 0x8C379A000000000000000000000000000000000000000000000000000000000 DUP2 MSTORE PUSH1 0x4 ADD PUSH2 0xE0A SWAP1 PUSH2 0x4AA6 JUMP JUMPDEST PUSH1 0x40 MLOAD DUP1 SWAP2 SUB SWAP1 REVERT JUMPDEST PUSH1 0x0 DUP2 GT DUP1 ISZERO PUSH2 0xE25 JUMPI POP PUSH1 0x5 SLOAD DUP2 EQ ISZERO JUMPDEST PUSH2 0xE64 JUMPI PUSH1 0x40 MLOAD PUSH32 0x8C379A000000000000000000000000000000000000000000000000000000000 DUP2 MSTORE PUSH1 0x4 ADD PUSH2 0xE5B SWAP1 PUSH2 0x4B12 JUMP JUMPDEST PUSH1 0x40 MLOAD DUP1 SWAP2 SUB SWAP1 REVERT JUMPDEST DUP1 PUSH1 0x5 DUP2 SWAP1 SSTORE POP PUSH32 0xF56CD1C2276DD17BCFF78FF95F3DCC99CB9595B770BC12DA977B9C095C9BF96B DUP2 PUSH1 0x40 MLOAD PUSH2 0xE9A SWAP2 SWAP1 PUSH2 0x3F0D JUMP JUMPDEST PUSH1 0x40 MLOAD DUP1 SWAP2 SUB SWAP1 LOG1 POP JUMP JUMPDEST DUP1 PUSH1 0x0 PUSH20 0xFFFFFFFFFFFFFFFFFFFFFFFFFFFFFFFFFFFFFFFF AND PUSH1 0xC PUSH1 0x0 DUP4 DUP2 MSTORE PUSH1 0x20 ADD SWAP1 DUP2 MSTORE PUSH1 0x20 ADD PUSH1 0x0 KECCAK256 PUSH1 0x0 ADD PUSH1 0x0 SWAP1 SLOAD SWAP1 PUSH2 0x100 EXP SWAP1 DIV PUSH20 0xFFFFFFFFFFFFFFFFFFFFFFFFFFFFFFFFFFFFFFFF AND PUSH20 0xFFFFFFFFFFFFFFFFFFFFFFFFFFFFFFFFFFFFFFFF AND SUB PUSH2 0xF4B JUMPI PUSH1 0x40 MLOAD PUSH32 0x8C379A000000000000000000000000000000000000000000000000000000000 DUP2 MSTORE PUSH1 0x4 ADD PUSH2 0xF42 SWAP1 PUSH2 0x4B7E JUMP JUMPDEST PUSH1 0x40 MLOAD DUP1 SWAP2 SUB SWAP1 REVERT JUMPDEST PUSH2 0xF53 PUSH2 0x39F6 JUMP JUMPDEST PUSH1 0xF PUSH1 0x0 DUP4 DUP2 MSTORE PUSH1 0x20 ADD SWAP1 DUP2 MSTORE PUSH1 0x20 ADD PUSH1 0x0 KECCAK256 PUSH1 0x0 CALLER PUSH20 0xFFFFFFFFFFFFFFFFFFFFFFFFFFFFFFFFFFFFFFFF AND PUSH20 0xFFFFFFFFFFFFFFFFFFFFFFFFFFFFFFFFFFFFFFFF AND DUP2 MSTORE PUSH1 0x20 ADD SWAP1 DUP2 MSTORE PUSH1 0x20 ADD PUSH1 0x0 KECCAK256 PUSH1 0x0 SWAP1 SLOAD SWAP1 PUSH2 0x100 EXP SWAP1 DIV PUSH1 0xFF AND PUSH2 0xFF0 JUMPI PUSH1 0x40 MLOAD PUSH32 0x8C379A000000000000000000000000000000000000000000000000000000000 DUP2 MSTORE PUSH1 0x4 ADD PUSH2 0xFE7 SWAP1 PUSH2 0x4BEA JUMP JUMPDEST PUSH1 0x40 MLOAD DUP1 SWAP2 SUB SWAP1 REVERT JUMPDEST PUSH1 0x0 PUSH1 0xC PUSH1 0x0 DUP5 DUP2 MSTORE PUSH1 0x20 ADD SWAP1 DUP2 MSTORE PUSH1 0x20 ADD PUSH1 0x0 KECCAK256 PUSH1 0x5 ADD SLOAD GT PUSH2 0x1049 JUMPI PUSH1 0x40 MLOAD PUSH32 0x8C379A000000000000000000000000000000000000000000000000000000000 DUP2 MSTORE PUSH1 0x4 ADD PUSH2 0x1040 SWAP1 PUSH2 0x4C56 JUMP JUMPDEST PUSH1 0x40 MLOAD DUP1 SWAP2 SUB SWAP1 REVERT JUMPDEST PUSH1 0xC PUSH1 0x0 DUP4 DUP2 MSTORE PUSH1 0x20 ADD SWAP1 DUP2 MSTORE PUSH1 0x20 ADD PUSH1 0x0 KECCAK256 PUSH1 0x5 ADD PUSH1 0x0 DUP2 SLOAD DUP1 SWAP3 SWAP2 SWAP1 PUSH2 0x1070 SWAP1 PUSH2 0x4C76 JUMP JUMPDEST SWAP2 SWAP1 POP SSTORE POP PUSH1 0x0 PUSH1 0xF PUSH1 0x0 DUP5 DUP2 MSTORE PUSH1 0x20 ADD SWAP1 DUP2 MSTORE PUSH1 0x20 ADD PUSH1 0x0 KECCAK256 PUSH1 0x0 CALLER PUSH20 0xFFFFFFFFFFFFFFFFFFFFFFFFFFFFFFFFFFFFFFFF AND PUSH20 0xFFFFFFFFFFFFFFFFFFFFFFFFFFFFFFFFFFFFFFFF AND DUP2 MSTORE PUSH1 0x20 ADD SWAP1 DUP2 MSTORE PUSH1 0x20 ADD PUSH1 0x0 KECCAK256 PUSH1 0x0 PUSH2 0x100 EXP DUP2 SLOAD DUP2 PUSH1 0xFF MUL NOT AND SWAP1 DUP4 ISZERO ISZERO MUL OR SWAP1 SSTORE POP CALLER PUSH20 0xFFFFFFFFFFFFFFFFFFFFFFFFFFFFFFFFFFFFFFFF AND DUP3 PUSH32 0xE1EA13F5A6D14E33425B04B4CD2185C1919991C8B880EECAA279F4906475D6F9 PUSH1 0x40 MLOAD PUSH1 0x40 MLOAD DUP1 SWAP2 SUB SWAP1 LOG3 PUSH2 0x112A PUSH2 0x3A3C JUMP JUMPDEST POP POP JUMP JUMPDEST PUSH1 0x0 SELFBALANCE SWAP1 POP SWAP1 JUMP JUMPDEST PUSH1 0xA SLOAD DUP2 JUMP JUMPDEST PUSH1 0x1 PUSH1 0x0 SWAP1 SLOAD SWAP1 PUSH2 0x100 EXP SWAP1 DIV PUSH20 0xFFFFFFFFFFFFFFFFFFFFFFFFFFFFFFFFFFFFFFFF AND PUSH20 0xFFFFFFFFFFFFFFFFFFFFFFFFFFFFFFFFFFFFFFFF AND CALLER PUSH20 0xFFFFFFFFFFFFFFFFFFFFFFFFFFFFFFFFFFFFFFFF AND EQ PUSH2 0x11CC JUMPI PUSH1 0x40 MLOAD PUSH32 0x8C379A000000000000000000000000000000000000000000000000000000000 DUP2 MSTORE PUSH1 0x4 ADD PUSH2 0x11C3 SWAP1 PUSH2 0x4AA6 JUMP JUMPDEST PUSH1 0x40 MLOAD DUP1 SWAP2 SUB SWAP1 REVERT JUMPDEST PUSH1 0x64 DUP2 DUP4 DUP6 PUSH2 0x11DB SWAP2 SWAP1 PUSH2 0x4C9F JUMP JUMPDEST PUSH2 0x11E5 SWAP2 SWAP1 PUSH2 0x4C9F JUMP JUMPDEST EQ PUSH2 0x1225 JUMPI PUSH1 0x40 MLOAD PUSH32 0x8C379A000000000000000000000000000000000000000000000000000000000 DUP2 MSTORE PUSH1 0x4 ADD PUSH2 0x121C SWAP1 PUSH2 0x4D1F JUMP JUMPDEST PUSH1 0x40 MLOAD DUP1 SWAP2 SUB SWAP1 REVERT JUMPDEST DUP3 PUSH1 0x8 DUP2 SWAP1 SSTORE POP DUP2 PUSH1 0x7 DUP2 SWAP1 SSTORE POP DUP1 PUSH1 0x9 DUP2 SWAP1 SSTORE POP PUSH32 0x41FBB987EFF495897D3076FA6AD5DE848EB98F1D4E2C6922EBF510D75A79A575 DUP4 DUP4 DUP4 PUSH1 0x40 MLOAD PUSH2 0x126D SWAP4 SWAP3 SWAP2 SWAP1 PUSH2 0x4D3F JUMP JUMPDEST PUSH1 0x40 MLOAD DUP1 SWAP2 SUB SWAP1 LOG1 POP POP POP JUMP JUMPDEST DUP2 CALLER PUSH20 0xFFFFFFFFFFFFFFFFFFFFFFFFFFFFFFFFFFFFFFFF AND PUSH1 0xC PUSH1 0x0 DUP4 DUP2 MSTORE PUSH1 0x20 ADD SWAP1 DUP2 MSTORE PUSH1 0x20 ADD PUSH1 0x0 KECCAK256 PUSH1 0x0 ADD PUSH1 0x0 SWAP1 SLOAD SWAP1 PUSH2 0x100 EXP SWAP1 DIV PUSH20 0xFFFFFFFFFFFFFFFFFFFFFFFFFFFFFFFFFFFFFFFF AND PUSH20 0xFFFFFFFFFFFFFFFFFFFFFFFFFFFFFFFFFFFFFFFF AND EQ PUSH2 0x131F JUMPI PUSH1 0x40 MLOAD PUSH32 0x8C379A000000000000000000000000000000000000000000000000000000000 DUP2 MSTORE PUSH1 0x4 ADD PUSH2 0x1316 SWAP1 PUSH2 0x4AA6 JUMP JUMPDEST PUSH1 0x40 MLOAD DUP1 SWAP2 SUB SWAP1 REVERT JUMPDEST DUP2 PUSH1 0xC PUSH1 0x0 DUP6 DUP2 MSTORE PUSH1 0x20 ADD SWAP1 DUP2 MSTORE PUSH1 0x20 ADD PUSH1 0x0 KECCAK256 PUSH1 0x3 ADD DUP2 SWAP1 SSTORE POP DUP3 PUSH32 0x864790BDF9878A0378C6FC2B0CE53BF74CA13B901BC97A1CB94AA88F1600E482 DUP4 PUSH1 0x40 MLOAD PUSH2 0x136A SWAP2 SWAP1 PUSH2 0x3F0D JUMP JUMPDEST PUSH1 0x40 MLOAD DUP1 SWAP2 SUB SWAP1 LOG2 POP POP POP JUMP JUMPDEST PUSH2 0x137F PUSH2 0x39F6 JUMP JUMPDEST PUSH1 0xE PUSH1 0x0 CALLER PUSH20 0xFFFFFFFFFFFFFFFFFFFFFFFFFFFFFFFFFFFFFFFF AND PUSH20 0xFFFFFFFFFFFFFFFFFFFFFFFFFFFFFFFFFFFFFFFF AND DUP2 MSTORE PUSH1 0x20 ADD SWAP1 DUP2 MSTORE PUSH1 0x20 ADD PUSH1 0x0 KECCAK256 PUSH1 0x0 DUP3 PUSH20 0xFFFFFFFFFFFFFFFFFFFFFFFFFFFFFFFFFFFFFFFF AND PUSH20 0xFFFFFFFFFFFFFFFFFFFFFFFFFFFFFFFFFFFFFFFF AND DUP2 MSTORE PUSH1 0x20 ADD SWAP1 DUP2 MSTORE PUSH1 0x20 ADD PUSH1 0x0 KECCAK256 PUSH1 0x0 SWAP1 SLOAD SWAP1 PUSH2 0x100 EXP SWAP1 DIV PUSH1 0xFF AND PUSH2 0x1448 JUMPI PUSH1 0x40 MLOAD PUSH32 0x8C379A000000000000000000000000000000000000000000000000000000000 DUP2 MSTORE PUSH1 0x4 ADD PUSH2 0x143F SWAP1 PUSH2 0x4DC2 JUMP JUMPDEST PUSH1 0x40 MLOAD DUP1 SWAP2 SUB SWAP1 REVERT JUMPDEST PUSH1 0x0 PUSH1 0xD PUSH1 0x0 DUP4 PUSH20 0xFFFFFFFFFFFFFFFFFFFFFFFFFFFFFFFFFFFFFFFF AND PUSH20 0xFFFFFFFFFFFFFFFFFFFFFFFFFFFFFFFFFFFFFFFF AND DUP2 MSTORE PUSH1 0x20 ADD SWAP1 DUP2 MSTORE PUSH1 0x20 ADD PUSH1 0x0 KECCAK256 PUSH1 0x2 ADD SLOAD GT PUSH2 0x14CD JUMPI PUSH1 0x40 MLOAD PUSH32 0x8C379A000000000000000000000000000000000000000000000000000000000 DUP2 MSTORE PUSH1 0x4 ADD PUSH2 0x14C4 SWAP1 PUSH2 0x4E2E JUMP JUMPDEST PUSH1 0x40 MLOAD DUP1 SWAP2 SUB SWAP1 REVERT JUMPDEST PUSH1 0x0 PUSH1 0xE PUSH1 0x0 CALLER PUSH20 0xFFFFFFFFFFFFFFFFFFFFFFFFFFFFFFFFFFFFFFFF AND PUSH20 0xFFFFFFFFFFFFFFFFFFFFFFFFFFFFFFFFFFFFFFFF AND DUP2 MSTORE PUSH1 0x20 ADD SWAP1 DUP2 MSTORE PUSH1 0x20 ADD PUSH1 0x0 KECCAK256 PUSH1 0x0 DUP4 PUSH20 0xFFFFFFFFFFFFFFFFFFFFFFFFFFFFFFFFFFFFFFFF AND PUSH20 0xFFFFFFFFFFFFFFFFFFFFFFFFFFFFFFFFFFFFFFFF AND DUP2 MSTORE PUSH1 0x20 ADD SWAP1 DUP2 MSTORE PUSH1 0x20 ADD PUSH1 0x0 KECCAK256 PUSH1 0x0 PUSH2 0x100 EXP DUP2 SLOAD DUP2 PUSH1 0xFF MUL NOT AND SWAP1 DUP4 ISZERO ISZERO MUL OR SWAP1 SSTORE POP PUSH1 0xD PUSH1 0x0 DUP3 PUSH20 0xFFFFFFFFFFFFFFFFFFFFFFFFFFFFFFFFFFFFFFFF AND PUSH20 0xFFFFFFFFFFFFFFFFFFFFFFFFFFFFFFFFFFFFFFFF AND DUP2 MSTORE PUSH1 0x20 ADD SWAP1 DUP2 MSTORE PUSH1 0x20 ADD PUSH1 0x0 KECCAK256 PUSH1 0x2 ADD PUSH1 0x0 DUP2 SLOAD DUP1 SWAP3 SWAP2 SWAP1 PUSH2 0x15B5 SWAP1 PUSH2 0x4C76 JUMP JUMPDEST SWAP2 SWAP1 POP SSTORE POP DUP1 PUSH20 0xFFFFFFFFFFFFFFFFFFFFFFFFFFFFFFFFFFFFFFFF AND CALLER PUSH20 0xFFFFFFFFFFFFFFFFFFFFFFFFFFFFFFFFFFFFFFFF AND PUSH32 0x673E2DC2DFF10EC8A44C707C34BE5B2833E3B75618CB3BF22E1E31C1D6A10668 PUSH1 0x40 MLOAD PUSH1 0x40 MLOAD DUP1 SWAP2 SUB SWAP1 LOG3 PUSH2 0x161C PUSH2 0x3A3C JUMP JUMPDEST POP JUMP JUMPDEST PUSH1 0x1 PUSH1 0x0 SWAP1 SLOAD SWAP1 PUSH2 0x100 EXP SWAP1 DIV PUSH20 0xFFFFFFFFFFFFFFFFFFFFFFFFFFFFFFFFFFFFFFFF AND PUSH20 0xFFFFFFFFFFFFFFFFFFFFFFFFFFFFFFFFFFFFFFFF AND CALLER PUSH20 0xFFFFFFFFFFFFFFFFFFFFFFFFFFFFFFFFFFFFFFFF AND EQ PUSH2 0x16AF JUMPI PUSH1 0x40 MLOAD PUSH32 0x8C379A000000000000000000000000000000000000000000000000000000000 DUP2 MSTORE PUSH1 0x4 ADD PUSH2 0x16A6 SWAP1 PUSH2 0x4AA6 JUMP JUMPDEST PUSH1 0x40 MLOAD DUP1 SWAP2 SUB SWAP1 REVERT JUMPDEST PUSH1 0x0 DUP3 GT PUSH2 0x16F2 JUMPI PUSH1 0x40 MLOAD PUSH32 0x8C379A000000000000000000000000000000000000000000000000000000000 DUP2 MSTORE PUSH1 0x4 ADD PUSH2 0x16E9 SWAP1 PUSH2 0x4E9A JUMP JUMPDEST PUSH1 0x40 MLOAD DUP1 SWAP2 SUB SWAP1 REVERT JUMPDEST DUP2 PUSH1 0x11 DUP2 SWAP1 SSTORE POP DUP1 PUSH1 0x12 PUSH1 0x0 PUSH2 0x100 EXP DUP2 SLOAD DUP2 PUSH1 0xFF MUL NOT AND SWAP1 DUP4 ISZERO ISZERO MUL OR SWAP1 SSTORE POP PUSH32 0xA9495E17C26190DA2181AC3C23342384E968C7ED3DAF98DF831D65060F83AECA DUP3 DUP3 PUSH1 0x40 MLOAD PUSH2 0x1744 SWAP3 SWAP2 SWAP1 PUSH2 0x4EBA JUMP JUMPDEST PUSH1 0x40 MLOAD DUP1 SWAP2 SUB SWAP1 LOG1 POP POP JUMP JUMPDEST DUP1 PUSH1 0x0 PUSH20 0xFFFFFFFFFFFFFFFFFFFFFFFFFFFFFFFFFFFFFFFF AND PUSH1 0xC PUSH1 0x0 DUP4 DUP2 MSTORE PUSH1 0x20 ADD SWAP1 DUP2 MSTORE PUSH1 0x20 ADD PUSH1 0x0 KECCAK256 PUSH1 0x0 ADD PUSH1 0x0 SWAP1 SLOAD SWAP1 PUSH2 0x100 EXP SWAP1 DIV PUSH20 0xFFFFFFFFFFFFFFFFFFFFFFFFFFFFFFFFFFFFFFFF AND PUSH20 0xFFFFFFFFFFFFFFFFFFFFFFFFFFFFFFFFFFFFFFFF AND SUB PUSH2 0x17F6 JUMPI PUSH1 0x40 MLOAD PUSH32 0x8C379A000000000000000000000000000000000000000000000000000000000 DUP2 MSTORE PUSH1 0x4 ADD PUSH2 0x17ED SWAP1 PUSH2 0x4B7E JUMP JUMPDEST PUSH1 0x40 MLOAD DUP1 SWAP2 SUB SWAP1 REVERT JUMPDEST PUSH2 0x17FE PUSH2 0x39F6 JUMP JUMPDEST PUSH1 0xF PUSH1 0x0 DUP4 DUP2 MSTORE PUSH1 0x20 ADD SWAP1 DUP2 MSTORE PUSH1 0x20 ADD PUSH1 0x0 KECCAK256 PUSH1 0x0 CALLER PUSH20 0xFFFFFFFFFFFFFFFFFFFFFFFFFFFFFFFFFFFFFFFF AND PUSH20 0xFFFFFFFFFFFFFFFFFFFFFFFFFFFFFFFFFFFFFFFF AND DUP2 MSTORE PUSH1 0x20 ADD SWAP1 DUP2 MSTORE PUSH1 0x20 ADD PUSH1 0x0 KECCAK256 PUSH1 0x0 SWAP1 SLOAD SWAP1 PUSH2 0x100 EXP SWAP1 DIV PUSH1 0xFF AND ISZERO PUSH2 0x189C JUMPI PUSH1 0x40 MLOAD PUSH32 0x8C379A000000000000000000000000000000000000000000000000000000000 DUP2 MSTORE PUSH1 0x4 ADD PUSH2 0x1893 SWAP1 PUSH2 0x4F2F JUMP JUMPDEST PUSH1 0x40 MLOAD DUP1 SWAP2 SUB SWAP1 REVERT JUMPDEST PUSH1 0xC PUSH1 0x0 DUP4 DUP2 MSTORE PUSH1 0x20 ADD SWAP1 DUP2 MSTORE PUSH1 0x20 ADD PUSH1 0x0 KECCAK256 PUSH1 0x5 ADD PUSH1 0x0 DUP2 SLOAD DUP1 SWAP3 SWAP2 SWAP1 PUSH2 0x18C3 SWAP1 PUSH2 0x4F4F JUMP JUMPDEST SWAP2 SWAP1 POP SSTORE POP PUSH1 0x1 PUSH1 0xF PUSH1 0x0 DUP5 DUP2 MSTORE PUSH1 0x20 ADD SWAP1 DUP2 MSTORE PUSH1 0x20 ADD PUSH1 0x0 KECCAK256 PUSH1 0x0 CALLER PUSH20 0xFFFFFFFFFFFFFFFFFFFFFFFFFFFFFFFFFFFFFFFF AND PUSH20 0xFFFFFFFFFFFFFFFFFFFFFFFFFFFFFFFFFFFFFFFF AND DUP2 MSTORE PUSH1 0x20 ADD SWAP1 DUP2 MSTORE PUSH1 0x20 ADD PUSH1 0x0 KECCAK256 PUSH1 0x0 PUSH2 0x100 EXP DUP2 SLOAD DUP2 PUSH1 0xFF MUL NOT AND SWAP1 DUP4 ISZERO ISZERO MUL OR SWAP1 SSTORE POP CALLER PUSH20 0xFFFFFFFFFFFFFFFFFFFFFFFFFFFFFFFFFFFFFFFF AND DUP3 PUSH32 0x252555045B2BB75BBF4E656932C7FC2D63E8E7D9ACC300A6B55D6575A2C8D428 PUSH1 0x40 MLOAD PUSH1 0x40 MLOAD DUP1 SWAP2 SUB SWAP1 LOG3 PUSH2 0x197D PUSH2 0x3A3C JUMP JUMPDEST POP POP JUMP JUMPDEST PUSH1 0x7 SLOAD DUP2 JUMP JUMPDEST PUSH1 0x6 SLOAD DUP2 JUMP JUMPDEST PUSH1 0x1 PUSH1 0x0 SWAP1 SLOAD SWAP1 PUSH2 0x100 EXP SWAP1 DIV PUSH20 0xFFFFFFFFFFFFFFFFFFFFFFFFFFFFFFFFFFFFFFFF AND PUSH20 0xFFFFFFFFFFFFFFFFFFFFFFFFFFFFFFFFFFFFFFFF AND CALLER PUSH20 0xFFFFFFFFFFFFFFFFFFFFFFFFFFFFFFFFFFFFFFFF AND EQ PUSH2 0x1A1D JUMPI PUSH1 0x40 MLOAD PUSH32 0x8C379A000000000000000000000000000000000000000000000000000000000 DUP2 MSTORE PUSH1 0x4 ADD PUSH2 0x1A14 SWAP1 PUSH2 0x4AA6 JUMP JUMPDEST PUSH1 0x40 MLOAD DUP1 SWAP2 SUB SWAP1 REVERT JUMPDEST PUSH1 0x0 PUSH1 0x3 PUSH1 0x0 SWAP1 SLOAD SWAP1 PUSH2 0x100 EXP SWAP1 DIV PUSH20 0xFFFFFFFFFFFFFFFFFFFFFFFFFFFFFFFFFFFFFFFF AND PUSH20 0xFFFFFFFFFFFFFFFFFFFFFFFFFFFFFFFFFFFFFFFF AND SELFBALANCE PUSH1 0x40 MLOAD PUSH2 0x1A65 SWAP1 PUSH2 0x4FC8 JUMP JUMPDEST PUSH1 0x0 PUSH1 0x40 MLOAD DUP1 DUP4 SUB DUP2 DUP6 DUP8 GAS CALL SWAP3 POP POP POP RETURNDATASIZE DUP1 PUSH1 0x0 DUP2 EQ PUSH2 0x1AA2 JUMPI PUSH1 0x40 MLOAD SWAP2 POP PUSH1 0x1F NOT PUSH1 0x3F RETURNDATASIZE ADD AND DUP3 ADD PUSH1 0x40 MSTORE RETURNDATASIZE DUP3 MSTORE RETURNDATASIZE PUSH1 0x0 PUSH1 0x20 DUP5 ADD RETURNDATACOPY PUSH2 0x1AA7 JUMP JUMPDEST PUSH1 0x60 SWAP2 POP JUMPDEST POP POP SWAP1 POP DUP1 PUSH2 0x1AEB JUMPI PUSH1 0x40 MLOAD PUSH32 0x8C379A000000000000000000000000000000000000000000000000000000000 DUP2 MSTORE PUSH1 0x4 ADD PUSH2 0x1AE2 SWAP1 PUSH2 0x5029 JUMP JUMPDEST PUSH1 0x40 MLOAD DUP1 SWAP2 SUB SWAP1 REVERT JUMPDEST POP JUMP JUMPDEST PUSH1 0x8 SLOAD DUP2 JUMP JUMPDEST PUSH1 0x0 PUSH1 0xF PUSH1 0x0 DUP5 DUP2 MSTORE PUSH1 0x20 ADD SWAP1 DUP2 MSTORE PUSH1 0x20 ADD PUSH1 0x0 KECCAK256 PUSH1 0x0 DUP4 PUSH20 0xFFFFFFFFFFFFFFFFFFFFFFFFFFFFFFFFFFFFFFFF AND PUSH20 0xFFFFFFFFFFFFFFFFFFFFFFFFFFFFFFFFFFFFFFFF AND DUP2 MSTORE PUSH1 0x20 ADD SWAP1 DUP2 MSTORE PUSH1 0x20 ADD PUSH1 0x0 KECCAK256 PUSH1 0x0 SWAP1 SLOAD SWAP1 PUSH2 0x100 EXP SWAP1 DIV PUSH1 0xFF AND SWAP1 POP SWAP3 SWAP2 POP POP JUMP JUMPDEST PUSH2 0x1B64 PUSH2 0x39F6 JUMP JUMPDEST DUP1 PUSH20 0xFFFFFFFFFFFFFFFFFFFFFFFFFFFFFFFFFFFFFFFF AND CALLER PUSH20 0xFFFFFFFFFFFFFFFFFFFFFFFFFFFFFFFFFFFFFFFF AND SUB PUSH2 0x1BD2 JUMPI PUSH1 0x40 MLOAD PUSH32 0x8C379A000000000000000000000000000000000000000000000000000000000 DUP2 MSTORE PUSH1 0x4 ADD PUSH2 0x1BC9 SWAP1 PUSH2 0x5095 JUMP JUMPDEST PUSH1 0x40 MLOAD DUP1 SWAP2 SUB SWAP1 REVERT JUMPDEST PUSH1 0xE PUSH1 0x0 CALLER PUSH20 0xFFFFFFFFFFFFFFFFFFFFFFFFFFFFFFFFFFFFFFFF AND PUSH20 0xFFFFFFFFFFFFFFFFFFFFFFFFFFFFFFFFFFFFFFFF AND DUP2 MSTORE PUSH1 0x20 ADD SWAP1 DUP2 MSTORE PUSH1 0x20 ADD PUSH1 0x0 KECCAK256 PUSH1 0x0 DUP3 PUSH20 0xFFFFFFFFFFFFFFFFFFFFFFFFFFFFFFFFFFFFFFFF AND PUSH20 0xFFFFFFFFFFFFFFFFFFFFFFFFFFFFFFFFFFFFFFFF AND DUP2 MSTORE PUSH1 0x20 ADD SWAP1 DUP2 MSTORE PUSH1 0x20 ADD PUSH1 0x0 KECCAK256 PUSH1 0x0 SWAP1 SLOAD SWAP1 PUSH2 0x100 EXP SWAP1 DIV PUSH1 0xFF AND ISZERO PUSH2 0x1C9C JUMPI PUSH1 0x40 MLOAD PUSH32 0x8C379A000000000000000000000000000000000000000000000000000000000 DUP2 MSTORE PUSH1 0x4 ADD PUSH2 0x1C93 SWAP1 PUSH2 0x5101 JUMP JUMPDEST PUSH1 0x40 MLOAD DUP1 SWAP2 SUB SWAP1 REVERT JUMPDEST PUSH1 0x1 PUSH1 0xE PUSH1 0x0 CALLER PUSH20 0xFFFFFFFFFFFFFFFFFFFFFFFFFFFFFFFFFFFFFFFF AND PUSH20 0xFFFFFFFFFFFFFFFFFFFFFFFFFFFFFFFFFFFFFFFF AND DUP2 MSTORE PUSH1 0x20 ADD SWAP1 DUP2 MSTORE PUSH1 0x20 ADD PUSH1 0x0 KECCAK256 PUSH1 0x0 DUP4 PUSH20 0xFFFFFFFFFFFFFFFFFFFFFFFFFFFFFFFFFFFFFFFF AND PUSH20 0xFFFFFFFFFFFFFFFFFFFFFFFFFFFFFFFFFFFFFFFF AND DUP2 MSTORE PUSH1 0x20 ADD SWAP1 DUP2 MSTORE PUSH1 0x20 ADD PUSH1 0x0 KECCAK256 PUSH1 0x0 PUSH2 0x100 EXP DUP2 SLOAD DUP2 PUSH1 0xFF MUL NOT AND SWAP1 DUP4 ISZERO ISZERO MUL OR SWAP1 SSTORE POP PUSH1 0xD PUSH1 0x0 DUP3 PUSH20 0xFFFFFFFFFFFFFFFFFFFFFFFFFFFFFFFFFFFFFFFF AND PUSH20 0xFFFFFFFFFFFFFFFFFFFFFFFFFFFFFFFFFFFFFFFF AND DUP2 MSTORE PUSH1 0x20 ADD SWAP1 DUP2 MSTORE PUSH1 0x20 ADD PUSH1 0x0 KECCAK256 PUSH1 0x2 ADD PUSH1 0x0 DUP2 SLOAD DUP1 SWAP3 SWAP2 SWAP1 PUSH2 0x1D84 SWAP1 PUSH2 0x4F4F JUMP JUMPDEST SWAP2 SWAP1 POP SSTORE POP DUP1 PUSH20 0xFFFFFFFFFFFFFFFFFFFFFFFFFFFFFFFFFFFFFFFF AND CALLER PUSH20 0xFFFFFFFFFFFFFFFFFFFFFFFFFFFFFFFFFFFFFFFF AND PUSH32 0x1E4F76F27AC4380B0E6C2D1A24F025857826721375CB34ACD4AC2CCCD831EEAD PUSH1 0x40 MLOAD PUSH1 0x40 MLOAD DUP1 SWAP2 SUB SWAP1 LOG3 PUSH2 0x1DEB PUSH2 0x3A3C JUMP JUMPDEST POP JUMP JUMPDEST PUSH1 0x9 SLOAD DUP2 JUMP JUMPDEST PUSH2 0x1DFC PUSH2 0x39F6 JUMP JUMPDEST PUSH1 0x0 PUSH2 0x1E06 PUSH2 0xD44 JUMP JUMPDEST SWAP1 POP DUP1 PUSH8 0xDE0B6B3A7640000 CALLVALUE PUSH2 0x1E1D SWAP2 SWAP1 PUSH2 0x49B8 JUMP JUMPDEST LT ISZERO PUSH2 0x1E5E JUMPI PUSH1 0x40 MLOAD PUSH32 0x8C379A000000000000000000000000000000000000000000000000000000000 DUP2 MSTORE PUSH1 0x4 ADD PUSH2 0x1E55 SWAP1 PUSH2 0x516D JUMP JUMPDEST PUSH1 0x40 MLOAD DUP1 SWAP2 SUB SWAP1 REVERT JUMPDEST PUSH1 0x0 DUP4 GT PUSH2 0x1EA1 JUMPI PUSH1 0x40 MLOAD PUSH32 0x8C379A000000000000000000000000000000000000000000000000000000000 DUP2 MSTORE PUSH1 0x4 ADD PUSH2 0x1E98 SWAP1 PUSH2 0x51D9 JUMP JUMPDEST PUSH1 0x40 MLOAD DUP1 SWAP2 SUB SWAP1 REVERT JUMPDEST PUSH1 0x5 SLOAD DUP4 GT ISZERO PUSH2 0x1EE6 JUMPI PUSH1 0x40 MLOAD PUSH32 0x8C379A000000000000000000000000000000000000000000000000000000000 DUP2 MSTORE PUSH1 0x4 ADD PUSH2 0x1EDD SWAP1 PUSH2 0x5245 JUMP JUMPDEST PUSH1 0x40 MLOAD DUP1 SWAP2 SUB SWAP1 REVERT JUMPDEST PUSH1 0x0 DUP3 GT PUSH2 0x1F29 JUMPI PUSH1 0x40 MLOAD PUSH32 0x8C379A000000000000000000000000000000000000000000000000000000000 DUP2 MSTORE PUSH1 0x4 ADD PUSH2 0x1F20 SWAP1 PUSH2 0x52B1 JUMP JUMPDEST PUSH1 0x40 MLOAD DUP1 SWAP2 SUB SWAP1 REVERT JUMPDEST PUSH1 0x6 SLOAD DUP3 GT ISZERO PUSH2 0x1F6E JUMPI PUSH1 0x40 MLOAD PUSH32 0x8C379A000000000000000000000000000000000000000000000000000000000 DUP2 MSTORE PUSH1 0x4 ADD PUSH2 0x1F65 SWAP1 PUSH2 0x531D JUMP JUMPDEST PUSH1 0x40 MLOAD DUP1 SWAP2 SUB SWAP1 REVERT JUMPDEST DUP4 PUSH1 0xC PUSH1 0x0 DUP7 DUP2 MSTORE PUSH1 0x20 ADD SWAP1 DUP2 MSTORE PUSH1 0x20 ADD PUSH1 0x0 KECCAK256 PUSH1 0x1 ADD SLOAD SUB PUSH2 0x1FC6 JUMPI PUSH1 0x40 MLOAD PUSH32 0x8C379A000000000000000000000000000000000000000000000000000000000 DUP2 MSTORE PUSH1 0x4 ADD PUSH2 0x1FBD SWAP1 PUSH2 0x5389 JUMP JUMPDEST PUSH1 0x40 MLOAD DUP1 SWAP2 SUB SWAP1 REVERT JUMPDEST PUSH1 0x0 PUSH1 0x40 MLOAD DUP1 PUSH1 0xC0 ADD PUSH1 0x40 MSTORE DUP1 CALLER PUSH20 0xFFFFFFFFFFFFFFFFFFFFFFFFFFFFFFFFFFFFFFFF AND DUP2 MSTORE PUSH1 0x20 ADD DUP7 DUP2 MSTORE PUSH1 0x20 ADD PUSH1 0x0 DUP2 MSTORE PUSH1 0x20 ADD DUP6 DUP2 MSTORE PUSH1 0x20 ADD DUP5 DUP2 MSTORE PUSH1 0x20 ADD PUSH1 0x0 DUP2 MSTORE POP SWAP1 POP DUP1 PUSH1 0xC PUSH1 0x0 DUP8 DUP2 MSTORE PUSH1 0x20 ADD SWAP1 DUP2 MSTORE PUSH1 0x20 ADD PUSH1 0x0 KECCAK256 PUSH1 0x0 DUP3 ADD MLOAD DUP2 PUSH1 0x0 ADD PUSH1 0x0 PUSH2 0x100 EXP DUP2 SLOAD DUP2 PUSH20 0xFFFFFFFFFFFFFFFFFFFFFFFFFFFFFFFFFFFFFFFF MUL NOT AND SWAP1 DUP4 PUSH20 0xFFFFFFFFFFFFFFFFFFFFFFFFFFFFFFFFFFFFFFFF AND MUL OR SWAP1 SSTORE POP PUSH1 0x20 DUP3 ADD MLOAD DUP2 PUSH1 0x1 ADD SSTORE PUSH1 0x40 DUP3 ADD MLOAD DUP2 PUSH1 0x2 ADD SSTORE PUSH1 0x60 DUP3 ADD MLOAD DUP2 PUSH1 0x3 ADD SSTORE PUSH1 0x80 DUP3 ADD MLOAD DUP2 PUSH1 0x4 ADD SSTORE PUSH1 0xA0 DUP3 ADD MLOAD DUP2 PUSH1 0x5 ADD SSTORE SWAP1 POP POP CALLER PUSH20 0xFFFFFFFFFFFFFFFFFFFFFFFFFFFFFFFFFFFFFFFF AND DUP6 PUSH32 0xEE2BB18D8855DFDB5D995A58BFD62DE687F23BFF5F41F6D2919EBB3BDF2BE3A7 DUP8 DUP8 DUP8 PUSH1 0x40 MLOAD PUSH2 0x20EA SWAP4 SWAP3 SWAP2 SWAP1 PUSH2 0x4D3F JUMP JUMPDEST PUSH1 0x40 MLOAD DUP1 SWAP2 SUB SWAP1 LOG3 PUSH1 0x4 PUSH1 0x0 DUP2 SLOAD DUP1 SWAP3 SWAP2 SWAP1 PUSH2 0x2105 SWAP1 PUSH2 0x4F4F JUMP JUMPDEST SWAP2 SWAP1 POP SSTORE POP POP POP PUSH2 0x2114 PUSH2 0x3A3C JUMP JUMPDEST POP POP POP JUMP JUMPDEST PUSH1 0x0 PUSH1 0xD PUSH1 0x0 DUP4 PUSH20 0xFFFFFFFFFFFFFFFFFFFFFFFFFFFFFFFFFFFFFFFF AND PUSH20 0xFFFFFFFFFFFFFFFFFFFFFFFFFFFFFFFFFFFFFFFF AND DUP2 MSTORE PUSH1 0x20 ADD SWAP1 DUP2 MSTORE PUSH1 0x20 ADD PUSH1 0x0 KECCAK256 PUSH1 0x2 ADD SLOAD SWAP1 POP SWAP2 SWAP1 POP JUMP JUMPDEST PUSH1 0x0 PUSH1 0x10 PUSH1 0x0 DUP4 DUP2 MSTORE PUSH1 0x20 ADD SWAP1 DUP2 MSTORE PUSH1 0x20 ADD PUSH1 0x0 KECCAK256 DUP1 SLOAD SWAP1 POP SWAP1 POP SWAP2 SWAP1 POP JUMP JUMPDEST PUSH2 0x218D PUSH2 0x39F6 JUMP JUMPDEST PUSH1 0x0 CALLVALUE GT PUSH2 0x21D0 JUMPI PUSH1 0x40 MLOAD PUSH32 0x8C379A000000000000000000000000000000000000000000000000000000000 DUP2 MSTORE PUSH1 0x4 ADD PUSH2 0x21C7 SWAP1 PUSH2 0x53F5 JUMP JUMPDEST PUSH1 0x40 MLOAD DUP1 SWAP2 SUB SWAP1 REVERT JUMPDEST PUSH1 0x0 PUSH20 0xFFFFFFFFFFFFFFFFFFFFFFFFFFFFFFFFFFFFFFFF AND DUP2 PUSH20 0xFFFFFFFFFFFFFFFFFFFFFFFFFFFFFFFFFFFFFFFF AND SUB PUSH2 0x223F JUMPI PUSH1 0x40 MLOAD PUSH32 0x8C379A000000000000000000000000000000000000000000000000000000000 DUP2 MSTORE PUSH1 0x4 ADD PUSH2 0x2236 SWAP1 PUSH2 0x5461 JUMP JUMPDEST PUSH1 0x40 MLOAD DUP1 SWAP2 SUB SWAP1 REVERT JUMPDEST CALLVALUE PUSH1 0xD PUSH1 0x0 DUP4 PUSH20 0xFFFFFFFFFFFFFFFFFFFFFFFFFFFFFFFFFFFFFFFF AND PUSH20 0xFFFFFFFFFFFFFFFFFFFFFFFFFFFFFFFFFFFFFFFF AND DUP2 MSTORE PUSH1 0x20 ADD SWAP1 DUP2 MSTORE PUSH1 0x20 ADD PUSH1 0x0 KECCAK256 PUSH1 0x3 ADD PUSH1 0x0 DUP3 DUP3 SLOAD PUSH2 0x2291 SWAP2 SWAP1 PUSH2 0x4C9F JUMP JUMPDEST SWAP3 POP POP DUP2 SWAP1 SSTORE POP PUSH1 0x0 DUP2 PUSH20 0xFFFFFFFFFFFFFFFFFFFFFFFFFFFFFFFFFFFFFFFF AND CALLVALUE PUSH1 0x40 MLOAD PUSH2 0x22BE SWAP1 PUSH2 0x4FC8 JUMP JUMPDEST PUSH1 0x0 PUSH1 0x40 MLOAD DUP1 DUP4 SUB DUP2 DUP6 DUP8 GAS CALL SWAP3 POP POP POP RETURNDATASIZE DUP1 PUSH1 0x0 DUP2 EQ PUSH2 0x22FB JUMPI PUSH1 0x40 MLOAD SWAP2 POP PUSH1 0x1F NOT PUSH1 0x3F RETURNDATASIZE ADD AND DUP3 ADD PUSH1 0x40 MSTORE RETURNDATASIZE DUP3 MSTORE RETURNDATASIZE PUSH1 0x0 PUSH1 0x20 DUP5 ADD RETURNDATACOPY PUSH2 0x2300 JUMP JUMPDEST PUSH1 0x60 SWAP2 POP JUMPDEST POP POP SWAP1 POP DUP1 PUSH2 0x2344 JUMPI PUSH1 0x40 MLOAD PUSH32 0x8C379A000000000000000000000000000000000000000000000000000000000 DUP2 MSTORE PUSH1 0x4 ADD PUSH2 0x233B SWAP1 PUSH2 0x54CD JUMP JUMPDEST PUSH1 0x40 MLOAD DUP1 SWAP2 SUB SWAP1 REVERT JUMPDEST DUP2 PUSH20 0xFFFFFFFFFFFFFFFFFFFFFFFFFFFFFFFFFFFFFFFF AND CALLER PUSH20 0xFFFFFFFFFFFFFFFFFFFFFFFFFFFFFFFFFFFFFFFF AND PUSH32 0xA32D9D0D87D6C17BAB78E0FE62AB9560E6F09EC4A903287BAC5DD223E358C186 CALLVALUE PUSH1 0x40 MLOAD PUSH2 0x23A1 SWAP2 SWAP1 PUSH2 0x3F0D JUMP JUMPDEST PUSH1 0x40 MLOAD DUP1 SWAP2 SUB SWAP1 LOG3 POP PUSH2 0x23B2 PUSH2 0x3A3C JUMP JUMPDEST POP JUMP JUMPDEST PUSH1 0x0 DUP1 PUSH1 0x0 DUP1 PUSH1 0x0 DUP1 PUSH1 0xB PUSH1 0x0 SWAP1 SLOAD SWAP1 PUSH2 0x100 EXP SWAP1 DIV PUSH20 0xFFFFFFFFFFFFFFFFFFFFFFFFFFFFFFFFFFFFFFFF AND PUSH20 0xFFFFFFFFFFFFFFFFFFFFFFFFFFFFFFFFFFFFFFFF AND PUSH4 0xFEAF968C PUSH1 0x40 MLOAD DUP2 PUSH4 0xFFFFFFFF AND PUSH1 0xE0 SHL DUP2 MSTORE PUSH1 0x4 ADD PUSH1 0xA0 PUSH1 0x40 MLOAD DUP1 DUP4 SUB DUP2 DUP7 GAS STATICCALL ISZERO DUP1 ISZERO PUSH2 0x242B JUMPI RETURNDATASIZE PUSH1 0x0 DUP1 RETURNDATACOPY RETURNDATASIZE PUSH1 0x0 REVERT JUMPDEST POP POP POP POP PUSH1 0x40 MLOAD RETURNDATASIZE PUSH1 0x1F NOT PUSH1 0x1F DUP3 ADD AND DUP3 ADD DUP1 PUSH1 0x40 MSTORE POP DUP2 ADD SWAP1 PUSH2 0x244F SWAP2 SWAP1 PUSH2 0x557A JUMP JUMPDEST SWAP5 POP SWAP5 POP SWAP5 POP SWAP5 POP SWAP5 POP PUSH1 0x0 DUP6 PUSH10 0xFFFFFFFFFFFFFFFFFFFF AND GT PUSH2 0x24A8 JUMPI PUSH1 0x40 MLOAD PUSH32 0x8C379A000000000000000000000000000000000000000000000000000000000 DUP2 MSTORE PUSH1 0x4 ADD PUSH2 0x249F SWAP1 PUSH2 0x5641 JUMP JUMPDEST PUSH1 0x40 MLOAD DUP1 SWAP2 SUB SWAP1 REVERT JUMPDEST DUP5 PUSH10 0xFFFFFFFFFFFFFFFFFFFF AND DUP2 PUSH10 0xFFFFFFFFFFFFFFFFFFFF AND LT ISZERO PUSH2 0x2503 JUMPI PUSH1 0x40 MLOAD PUSH32 0x8C379A000000000000000000000000000000000000000000000000000000000 DUP2 MSTORE PUSH1 0x4 ADD PUSH2 0x24FA SWAP1 PUSH2 0x56AD JUMP JUMPDEST PUSH1 0x40 MLOAD DUP1 SWAP2 SUB SWAP1 REVERT JUMPDEST PUSH1 0x0 DUP5 SGT PUSH2 0x2546 JUMPI PUSH1 0x40 MLOAD PUSH32 0x8C379A000000000000000000000000000000000000000000000000000000000 DUP2 MSTORE PUSH1 0x4 ADD PUSH2 0x253D SWAP1 PUSH2 0x5719 JUMP JUMPDEST PUSH1 0x40 MLOAD DUP1 SWAP2 SUB SWAP1 REVERT JUMPDEST PUSH1 0x0 DUP3 TIMESTAMP GT PUSH2 0x2556 JUMPI PUSH1 0x0 PUSH2 0x2563 JUMP JUMPDEST DUP3 TIMESTAMP PUSH2 0x2562 SWAP2 SWAP1 PUSH2 0x5739 JUMP JUMPDEST JUMPDEST SWAP1 POP PUSH2 0xE10 DUP2 LT PUSH2 0x25A9 JUMPI PUSH1 0x40 MLOAD PUSH32 0x8C379A000000000000000000000000000000000000000000000000000000000 DUP2 MSTORE PUSH1 0x4 ADD PUSH2 0x25A0 SWAP1 PUSH2 0x57B9 JUMP JUMPDEST PUSH1 0x40 MLOAD DUP1 SWAP2 SUB SWAP1 REVERT JUMPDEST PUSH5 0x2540BE400 DUP6 PUSH2 0x25BA SWAP2 SWAP1 PUSH2 0x49B8 JUMP JUMPDEST SWAP7 POP POP POP POP POP POP POP SWAP1 JUMP JUMPDEST PUSH1 0x1 PUSH1 0x0 SWAP1 SLOAD SWAP1 PUSH2 0x100 EXP SWAP1 DIV PUSH20 0xFFFFFFFFFFFFFFFFFFFFFFFFFFFFFFFFFFFFFFFF AND PUSH20 0xFFFFFFFFFFFFFFFFFFFFFFFFFFFFFFFFFFFFFFFF AND CALLER PUSH20 0xFFFFFFFFFFFFFFFFFFFFFFFFFFFFFFFFFFFFFFFF AND EQ PUSH2 0x2655 JUMPI PUSH1 0x40 MLOAD PUSH32 0x8C379A000000000000000000000000000000000000000000000000000000000 DUP2 MSTORE PUSH1 0x4 ADD PUSH2 0x264C SWAP1 PUSH2 0x4AA6 JUMP JUMPDEST PUSH1 0x40 MLOAD DUP1 SWAP2 SUB SWAP1 REVERT JUMPDEST PUSH3 0xF4240 DUP2 GT ISZERO PUSH2 0x269B JUMPI PUSH1 0x40 MLOAD PUSH32 0x8C379A000000000000000000000000000000000000000000000000000000000 DUP2 MSTORE PUSH1 0x4 ADD PUSH2 0x2692 SWAP1 PUSH2 0x5825 JUMP JUMPDEST PUSH1 0x40 MLOAD DUP1 SWAP2 SUB SWAP1 REVERT JUMPDEST DUP1 PUSH1 0xA DUP2 SWAP1 SSTORE POP PUSH32 0x8C4D35E54A3F2EF1134138FD8EA3DAEE6A3C89E10D2665996BABDF70261E2C76 DUP2 PUSH1 0x40 MLOAD PUSH2 0x26D1 SWAP2 SWAP1 PUSH2 0x3F0D JUMP JUMPDEST PUSH1 0x40 MLOAD DUP1 SWAP2 SUB SWAP1 LOG1 POP JUMP JUMPDEST PUSH1 0x2 PUSH1 0x0 SWAP1 SLOAD SWAP1 PUSH2 0x100 EXP SWAP1 DIV PUSH20 0xFFFFFFFFFFFFFFFFFFFFFFFFFFFFFFFFFFFFFFFF AND PUSH20 0xFFFFFFFFFFFFFFFFFFFFFFFFFFFFFFFFFFFFFFFF AND CALLER PUSH20 0xFFFFFFFFFFFFFFFFFFFFFFFFFFFFFFFFFFFFFFFF AND EQ PUSH2 0x276C JUMPI PUSH1 0x40 MLOAD PUSH32 0x8C379A000000000000000000000000000000000000000000000000000000000 DUP2 MSTORE PUSH1 0x4 ADD PUSH2 0x2763 SWAP1 PUSH2 0x4AA6 JUMP JUMPDEST PUSH1 0x40 MLOAD DUP1 SWAP2 SUB SWAP1 REVERT JUMPDEST PUSH1 0x0 PUSH1 0x1 PUSH1 0x0 SWAP1 SLOAD SWAP1 PUSH2 0x100 EXP SWAP1 DIV PUSH20 0xFFFFFFFFFFFFFFFFFFFFFFFFFFFFFFFFFFFFFFFF AND SWAP1 POP CALLER PUSH1 0x1 PUSH1 0x0 PUSH2 0x100 EXP DUP2 SLOAD DUP2 PUSH20 0xFFFFFFFFFFFFFFFFFFFFFFFFFFFFFFFFFFFFFFFF MUL NOT AND SWAP1 DUP4 PUSH20 0xFFFFFFFFFFFFFFFFFFFFFFFFFFFFFFFFFFFFFFFF AND MUL OR SWAP1 SSTORE POP PUSH1 0x0 PUSH1 0x2 PUSH1 0x0 PUSH2 0x100 EXP DUP2 SLOAD DUP2 PUSH20 0xFFFFFFFFFFFFFFFFFFFFFFFFFFFFFFFFFFFFFFFF MUL NOT AND SWAP1 DUP4 PUSH20 0xFFFFFFFFFFFFFFFFFFFFFFFFFFFFFFFFFFFFFFFF AND MUL OR SWAP1 SSTORE POP CALLER PUSH20 0xFFFFFFFFFFFFFFFFFFFFFFFFFFFFFFFFFFFFFFFF AND DUP2 PUSH20 0xFFFFFFFFFFFFFFFFFFFFFFFFFFFFFFFFFFFFFFFF AND PUSH32 0x8BE0079C531659141344CD1FD0A4F28419497F9722A3DAAFE3B4186F6B6457E0 PUSH1 0x40 MLOAD PUSH1 0x40 MLOAD DUP1 SWAP2 SUB SWAP1 LOG3 POP JUMP JUMPDEST DUP1 PUSH1 0xC PUSH1 0x0 DUP3 DUP2 MSTORE PUSH1 0x20 ADD SWAP1 DUP2 MSTORE PUSH1 0x20 ADD PUSH1 0x0 KECCAK256 PUSH1 0x4 ADD SLOAD CALLVALUE LT ISZERO PUSH2 0x28CD JUMPI PUSH1 0x40 MLOAD PUSH32 0x8C379A000000000000000000000000000000000000000000000000000000000 DUP2 MSTORE PUSH1 0x4 ADD PUSH2 0x28C4 SWAP1 PUSH2 0x5891 JUMP JUMPDEST PUSH1 0x40 MLOAD DUP1 SWAP2 SUB SWAP1 REVERT JUMPDEST DUP2 PUSH1 0x0 PUSH20 0xFFFFFFFFFFFFFFFFFFFFFFFFFFFFFFFFFFFFFFFF AND PUSH1 0xC PUSH1 0x0 DUP4 DUP2 MSTORE PUSH1 0x20 ADD SWAP1 DUP2 MSTORE PUSH1 0x20 ADD PUSH1 0x0 KECCAK256 PUSH1 0x0 ADD PUSH1 0x0 SWAP1 SLOAD SWAP1 PUSH2 0x100 EXP SWAP1 DIV PUSH20 0xFFFFFFFFFFFFFFFFFFFFFFFFFFFFFFFFFFFFFFFF AND PUSH20 0xFFFFFFFFFFFFFFFFFFFFFFFFFFFFFFFFFFFFFFFF AND SUB PUSH2 0x2973 JUMPI PUSH1 0x40 MLOAD PUSH32 0x8C379A000000000000000000000000000000000000000000000000000000000 DUP2 MSTORE PUSH1 0x4 ADD PUSH2 0x296A SWAP1 PUSH2 0x4B7E JUMP JUMPDEST PUSH1 0x40 MLOAD DUP1 SWAP2 SUB SWAP1 REVERT JUMPDEST PUSH2 0x297B PUSH2 0x39F6 JUMP JUMPDEST PUSH1 0x0 PUSH1 0xC PUSH1 0x0 DUP6 DUP2 MSTORE PUSH1 0x20 ADD SWAP1 DUP2 MSTORE PUSH1 0x20 ADD PUSH1 0x0 KECCAK256 SWAP1 POP DUP1 PUSH1 0x3 ADD SLOAD DUP2 PUSH1 0x2 ADD SLOAD LT PUSH2 0x29DC JUMPI PUSH1 0x40 MLOAD PUSH32 0x8C379A000000000000000000000000000000000000000000000000000000000 DUP2 MSTORE PUSH1 0x4 ADD PUSH2 0x29D3 SWAP1 PUSH2 0x58FD JUMP JUMPDEST PUSH1 0x40 MLOAD DUP1 SWAP2 SUB SWAP1 REVERT JUMPDEST DUP1 PUSH1 0x2 ADD PUSH1 0x0 DUP2 SLOAD DUP1 SWAP3 SWAP2 SWAP1 PUSH2 0x29F1 SWAP1 PUSH2 0x4F4F JUMP JUMPDEST SWAP2 SWAP1 POP SSTORE POP PUSH2 0x2A24 CALLVALUE DUP3 PUSH1 0x0 ADD PUSH1 0x0 SWAP1 SLOAD SWAP1 PUSH2 0x100 EXP SWAP1 DIV PUSH20 0xFFFFFFFFFFFFFFFFFFFFFFFFFFFFFFFFFFFFFFFF AND PUSH2 0x3A46 JUMP JUMPDEST CALLER PUSH20 0xFFFFFFFFFFFFFFFFFFFFFFFFFFFFFFFFFFFFFFFF AND DUP5 PUSH32 0x6CA565CBE12D6A229E5001591809C6900E82E4DC3D5ABC5D7F48E1A9C2073E9D CALLVALUE PUSH1 0x40 MLOAD PUSH2 0x2A6B SWAP2 SWAP1 PUSH2 0x3F0D JUMP JUMPDEST PUSH1 0x40 MLOAD DUP1 SWAP2 SUB SWAP1 LOG3 POP PUSH2 0x2A7C PUSH2 0x3A3C JUMP JUMPDEST POP POP POP JUMP JUMPDEST PUSH1 0x1 PUSH1 0x0 SWAP1 SLOAD SWAP1 PUSH2 0x100 EXP SWAP1 DIV PUSH20 0xFFFFFFFFFFFFFFFFFFFFFFFFFFFFFFFFFFFFFFFF AND PUSH20 0xFFFFFFFFFFFFFFFFFFFFFFFFFFFFFFFFFFFFFFFF AND CALLER PUSH20 0xFFFFFFFFFFFFFFFFFFFFFFFFFFFFFFFFFFFFFFFF AND EQ PUSH2 0x2B11 JUMPI PUSH1 0x40 MLOAD PUSH32 0x8C379A000000000000000000000000000000000000000000000000000000000 DUP2 MSTORE PUSH1 0x4 ADD PUSH2 0x2B08 SWAP1 PUSH2 0x4AA6 JUMP JUMPDEST PUSH1 0x40 MLOAD DUP1 SWAP2 SUB SWAP1 REVERT JUMPDEST PUSH1 0x0 PUSH20 0xFFFFFFFFFFFFFFFFFFFFFFFFFFFFFFFFFFFFFFFF AND DUP2 PUSH20 0xFFFFFFFFFFFFFFFFFFFFFFFFFFFFFFFFFFFFFFFF AND SUB PUSH2 0x2B80 JUMPI PUSH1 0x40 MLOAD PUSH32 0x8C379A000000000000000000000000000000000000000000000000000000000 DUP2 MSTORE PUSH1 0x4 ADD PUSH2 0x2B77 SWAP1 PUSH2 0x5969 JUMP JUMPDEST PUSH1 0x40 MLOAD DUP1 SWAP2 SUB SWAP1 REVERT JUMPDEST DUP1 PUSH1 0x3 PUSH1 0x0 PUSH2 0x100 EXP DUP2 SLOAD DUP2 PUSH20 0xFFFFFFFFFFFFFFFFFFFFFFFFFFFFFFFFFFFFFFFF MUL NOT AND SWAP1 DUP4 PUSH20 0xFFFFFFFFFFFFFFFFFFFFFFFFFFFFFFFFFFFFFFFF AND MUL OR SWAP1 SSTORE POP PUSH32 0xEC859DECD72BBC1028A5D9CFF18865D253E0A9C46133F5DE383C3CD73AB89B65 DUP2 PUSH1 0x40 MLOAD PUSH2 0x2BF0 SWAP2 SWAP1 PUSH2 0x4190 JUMP JUMPDEST PUSH1 0x40 MLOAD DUP1 SWAP2 SUB SWAP1 LOG1 POP JUMP JUMPDEST PUSH1 0x1 PUSH1 0x0 SWAP1 SLOAD SWAP1 PUSH2 0x100 EXP SWAP1 DIV PUSH20 0xFFFFFFFFFFFFFFFFFFFFFFFFFFFFFFFFFFFFFFFF AND DUP2 JUMP JUMPDEST PUSH1 0xD PUSH1 0x20 MSTORE DUP1 PUSH1 0x0 MSTORE PUSH1 0x40 PUSH1 0x0 KECCAK256 PUSH1 0x0 SWAP2 POP SWAP1 POP DUP1 PUSH1 0x0 ADD DUP1 SLOAD PUSH2 0x2C44 SWAP1 PUSH2 0x46B8 JUMP JUMPDEST DUP1 PUSH1 0x1F ADD PUSH1 0x20 DUP1 SWAP2 DIV MUL PUSH1 0x20 ADD PUSH1 0x40 MLOAD SWAP1 DUP2 ADD PUSH1 0x40 MSTORE DUP1 SWAP3 SWAP2 SWAP1 DUP2 DUP2 MSTORE PUSH1 0x20 ADD DUP3 DUP1 SLOAD PUSH2 0x2C70 SWAP1 PUSH2 0x46B8 JUMP JUMPDEST DUP1 ISZERO PUSH2 0x2CBD JUMPI DUP1 PUSH1 0x1F LT PUSH2 0x2C92 JUMPI PUSH2 0x100 DUP1 DUP4 SLOAD DIV MUL DUP4 MSTORE SWAP2 PUSH1 0x20 ADD SWAP2 PUSH2 0x2CBD JUMP JUMPDEST DUP3 ADD SWAP2 SWAP1 PUSH1 0x0 MSTORE PUSH1 0x20 PUSH1 0x0 KECCAK256 SWAP1 JUMPDEST DUP2 SLOAD DUP2 MSTORE SWAP1 PUSH1 0x1 ADD SWAP1 PUSH1 0x20 ADD DUP1 DUP4 GT PUSH2 0x2CA0 JUMPI DUP3 SWAP1 SUB PUSH1 0x1F AND DUP3 ADD SWAP2 JUMPDEST POP POP POP POP POP SWAP1 DUP1 PUSH1 0x1 ADD SLOAD SWAP1 DUP1 PUSH1 0x2 ADD SLOAD SWAP1 DUP1 PUSH1 0x3 ADD SLOAD SWAP1 POP DUP5 JUMP JUMPDEST PUSH1 0x5 SLOAD DUP2 JUMP JUMPDEST PUSH1 0x0 PUSH1 0xE PUSH1 0x0 DUP5 PUSH20 0xFFFFFFFFFFFFFFFFFFFFFFFFFFFFFFFFFFFFFFFF AND PUSH20 0xFFFFFFFFFFFFFFFFFFFFFFFFFFFFFFFFFFFFFFFF AND DUP2 MSTORE PUSH1 0x20 ADD SWAP1 DUP2 MSTORE PUSH1 0x20 ADD PUSH1 0x0 KECCAK256 PUSH1 0x0 DUP4 PUSH20 0xFFFFFFFFFFFFFFFFFFFFFFFFFFFFFFFFFFFFFFFF AND PUSH20 0xFFFFFFFFFFFFFFFFFFFFFFFFFFFFFFFFFFFFFFFF AND DUP2 MSTORE PUSH1 0x20 ADD SWAP1 DUP2 MSTORE PUSH1 0x20 ADD PUSH1 0x0 KECCAK256 PUSH1 0x0 SWAP1 SLOAD SWAP1 PUSH2 0x100 EXP SWAP1 DIV PUSH1 0xFF AND SWAP1 POP SWAP3 SWAP2 POP POP JUMP JUMPDEST PUSH2 0xE10 DUP2 JUMP JUMPDEST PUSH2 0x2D81 PUSH2 0x3CD0 JUMP JUMPDEST PUSH1 0xD PUSH1 0x0 DUP4 PUSH20 0xFFFFFFFFFFFFFFFFFFFFFFFFFFFFFFFFFFFFFFFF AND PUSH20 0xFFFFFFFFFFFFFFFFFFFFFFFFFFFFFFFFFFFFFFFF AND DUP2 MSTORE PUSH1 0x20 ADD SWAP1 DUP2 MSTORE PUSH1 0x20 ADD PUSH1 0x0 KECCAK256 PUSH1 0x40 MLOAD DUP1 PUSH1 0x80 ADD PUSH1 0x40 MSTORE SWAP1 DUP2 PUSH1 0x0 DUP3 ADD DUP1 SLOAD PUSH2 0x2DDB SWAP1 PUSH2 0x46B8 JUMP JUMPDEST DUP1 PUSH1 0x1F ADD PUSH1 0x20 DUP1 SWAP2 DIV MUL PUSH1 0x20 ADD PUSH1 0x40 MLOAD SWAP1 DUP2 ADD PUSH1 0x40 MSTORE DUP1 SWAP3 SWAP2 SWAP1 DUP2 DUP2 MSTORE PUSH1 0x20 ADD DUP3 DUP1 SLOAD PUSH2 0x2E07 SWAP1 PUSH2 0x46B8 JUMP JUMPDEST DUP1 ISZERO PUSH2 0x2E54 JUMPI DUP1 PUSH1 0x1F LT PUSH2 0x2E29 JUMPI PUSH2 0x100 DUP1 DUP4 SLOAD DIV MUL DUP4 MSTORE SWAP2 PUSH1 0x20 ADD SWAP2 PUSH2 0x2E54 JUMP JUMPDEST DUP3 ADD SWAP2 SWAP1 PUSH1 0x0 MSTORE PUSH1 0x20 PUSH1 0x0 KECCAK256 SWAP1 JUMPDEST DUP2 SLOAD DUP2 MSTORE SWAP1 PUSH1 0x1 ADD SWAP1 PUSH1 0x20 ADD DUP1 DUP4 GT PUSH2 0x2E37 JUMPI DUP3 SWAP1 SUB PUSH1 0x1F AND DUP3 ADD SWAP2 JUMPDEST POP POP POP POP POP DUP2 MSTORE PUSH1 0x20 ADD PUSH1 0x1 DUP3 ADD SLOAD DUP2 MSTORE PUSH1 0x20 ADD PUSH1 0x2 DUP3 ADD SLOAD DUP2 MSTORE PUSH1 0x20 ADD PUSH1 0x3 DUP3 ADD SLOAD DUP2 MSTORE POP POP SWAP1 POP SWAP2 SWAP1 POP JUMP JUMPDEST PUSH1 0x0 PUSH1 0x12 PUSH1 0x0 SWAP1 SLOAD SWAP1 PUSH2 0x100 EXP SWAP1 DIV PUSH1 0xFF AND ISZERO PUSH2 0x2EA3 JUMPI PUSH1 0x11 SLOAD SWAP1 POP PUSH2 0x2EAE JUMP JUMPDEST PUSH2 0x2EAB PUSH2 0x23B5 JUMP JUMPDEST SWAP1 POP JUMPDEST SWAP1 JUMP JUMPDEST PUSH1 0x1 PUSH1 0x0 SWAP1 SLOAD SWAP1 PUSH2 0x100 EXP SWAP1 DIV PUSH20 0xFFFFFFFFFFFFFFFFFFFFFFFFFFFFFFFFFFFFFFFF AND PUSH20 0xFFFFFFFFFFFFFFFFFFFFFFFFFFFFFFFFFFFFFFFF AND CALLER PUSH20 0xFFFFFFFFFFFFFFFFFFFFFFFFFFFFFFFFFFFFFFFF AND EQ PUSH2 0x2F41 JUMPI PUSH1 0x40 MLOAD PUSH32 0x8C379A000000000000000000000000000000000000000000000000000000000 DUP2 MSTORE PUSH1 0x4 ADD PUSH2 0x2F38 SWAP1 PUSH2 0x4AA6 JUMP JUMPDEST PUSH1 0x40 MLOAD DUP1 SWAP2 SUB SWAP1 REVERT JUMPDEST PUSH1 0x0 DUP2 GT DUP1 ISZERO PUSH2 0x2F53 JUMPI POP PUSH1 0x6 SLOAD DUP2 EQ ISZERO JUMPDEST PUSH2 0x2F92 JUMPI PUSH1 0x40 MLOAD PUSH32 0x8C379A000000000000000000000000000000000000000000000000000000000 DUP2 MSTORE PUSH1 0x4 ADD PUSH2 0x2F89 SWAP1 PUSH2 0x59D5 JUMP JUMPDEST PUSH1 0x40 MLOAD DUP1 SWAP2 SUB SWAP1 REVERT JUMPDEST DUP1 PUSH1 0x6 DUP2 SWAP1 SSTORE POP PUSH32 0x732603A291622CEC912F16C1F255237A3C66FDAAEBC8C61E72C21600547F61EE DUP2 PUSH1 0x40 MLOAD PUSH2 0x2FC8 SWAP2 SWAP1 PUSH2 0x3F0D JUMP JUMPDEST PUSH1 0x40 MLOAD DUP1 SWAP2 SUB SWAP1 LOG1 POP JUMP JUMPDEST PUSH2 0x2FDB PUSH2 0x3CF8 JUMP JUMPDEST PUSH1 0x40 MLOAD DUP1 PUSH1 0x60 ADD PUSH1 0x40 MSTORE DUP1 PUSH1 0x8 SLOAD DUP2 MSTORE PUSH1 0x20 ADD PUSH1 0x7 SLOAD DUP2 MSTORE PUSH1 0x20 ADD PUSH1 0x9 SLOAD DUP2 MSTORE POP SWAP1 POP SWAP1 JUMP JUMPDEST PUSH1 0x3 PUSH1 0x0 SWAP1 SLOAD SWAP1 PUSH2 0x100 EXP SWAP1 DIV PUSH20 0xFFFFFFFFFFFFFFFFFFFFFFFFFFFFFFFFFFFFFFFF AND DUP2 JUMP JUMPDEST PUSH1 0xF PUSH1 0x20 MSTORE DUP2 PUSH1 0x0 MSTORE PUSH1 0x40 PUSH1 0x0 KECCAK256 PUSH1 0x20 MSTORE DUP1 PUSH1 0x0 MSTORE PUSH1 0x40 PUSH1 0x0 KECCAK256 PUSH1 0x0 SWAP2 POP SWAP2 POP SWAP1 SLOAD SWAP1 PUSH2 0x100 EXP SWAP1 DIV PUSH1 0xFF AND DUP2 JUMP JUMPDEST PUSH1 0xE PUSH1 0x20 MSTORE DUP2 PUSH1 0x0 MSTORE PUSH1 0x40 PUSH1 0x0 KECCAK256 PUSH1 0x20 MSTORE DUP1 PUSH1 0x0 MSTORE PUSH1 0x40 PUSH1 0x0 KECCAK256 PUSH1 0x0 SWAP2 POP SWAP2 POP SWAP1 SLOAD SWAP1 PUSH2 0x100 EXP SWAP1 DIV PUSH1 0xFF AND DUP2 JUMP JUMPDEST PUSH1 0x60 PUSH1 0x0 PUSH1 0x10 PUSH1 0x0 DUP7 DUP2 MSTORE PUSH1 0x20 ADD SWAP1 DUP2 MSTORE PUSH1 0x20 ADD PUSH1 0x0 KECCAK256 SWAP1 POP PUSH1 0x0 DUP2 DUP1 SLOAD SWAP1 POP SWAP1 POP DUP1 DUP6 LT PUSH2 0x310C JUMPI PUSH1 0x0 PUSH8 0xFFFFFFFFFFFFFFFF DUP2 GT ISZERO PUSH2 0x30C9 JUMPI PUSH2 0x30C8 PUSH2 0x3D80 JUMP JUMPDEST JUMPDEST PUSH1 0x40 MLOAD SWAP1 DUP1 DUP3 MSTORE DUP1 PUSH1 0x20 MUL PUSH1 0x20 ADD DUP3 ADD PUSH1 0x40 MSTORE DUP1 ISZERO PUSH2 0x3102 JUMPI DUP2 PUSH1 0x20 ADD JUMPDEST PUSH2 0x30EF PUSH2 0x3D1A JUMP JUMPDEST DUP2 MSTORE PUSH1 0x20 ADD SWAP1 PUSH1 0x1 SWAP1 SUB SWAP1 DUP2 PUSH2 0x30E7 JUMPI SWAP1 POP JUMPDEST POP SWAP3 POP POP POP PUSH2 0x32F9 JUMP JUMPDEST PUSH1 0x0 DUP5 DUP7 PUSH2 0x311A SWAP2 SWAP1 PUSH2 0x4C9F JUMP JUMPDEST SWAP1 POP DUP2 DUP2 GT ISZERO PUSH2 0x3128 JUMPI DUP2 SWAP1 POP JUMPDEST PUSH1 0x0 DUP7 DUP3 PUSH2 0x3136 SWAP2 SWAP1 PUSH2 0x5739 JUMP JUMPDEST SWAP1 POP PUSH1 0x0 DUP2 PUSH8 0xFFFFFFFFFFFFFFFF DUP2 GT ISZERO PUSH2 0x3154 JUMPI PUSH2 0x3153 PUSH2 0x3D80 JUMP JUMPDEST JUMPDEST PUSH1 0x40 MLOAD SWAP1 DUP1 DUP3 MSTORE DUP1 PUSH1 0x20 MUL PUSH1 0x20 ADD DUP3 ADD PUSH1 0x40 MSTORE DUP1 ISZERO PUSH2 0x318D JUMPI DUP2 PUSH1 0x20 ADD JUMPDEST PUSH2 0x317A PUSH2 0x3D1A JUMP JUMPDEST DUP2 MSTORE PUSH1 0x20 ADD SWAP1 PUSH1 0x1 SWAP1 SUB SWAP1 DUP2 PUSH2 0x3172 JUMPI SWAP1 POP JUMPDEST POP SWAP1 POP PUSH1 0x0 JUMPDEST DUP3 DUP2 LT ISZERO PUSH2 0x32EF JUMPI DUP6 DUP2 DUP11 PUSH2 0x31A8 SWAP2 SWAP1 PUSH2 0x4C9F JUMP JUMPDEST DUP2 SLOAD DUP2 LT PUSH2 0x31B9 JUMPI PUSH2 0x31B8 PUSH2 0x59F5 JUMP JUMPDEST JUMPDEST SWAP1 PUSH1 0x0 MSTORE PUSH1 0x20 PUSH1 0x0 KECCAK256 SWAP1 PUSH1 0x3 MUL ADD PUSH1 0x40 MLOAD DUP1 PUSH1 0x60 ADD PUSH1 0x40 MSTORE SWAP1 DUP2 PUSH1 0x0 DUP3 ADD PUSH1 0x0 SWAP1 SLOAD SWAP1 PUSH2 0x100 EXP SWAP1 DIV PUSH20 0xFFFFFFFFFFFFFFFFFFFFFFFFFFFFFFFFFFFFFFFF AND PUSH20 0xFFFFFFFFFFFFFFFFFFFFFFFFFFFFFFFFFFFFFFFF AND PUSH20 0xFFFFFFFFFFFFFFFFFFFFFFFFFFFFFFFFFFFFFFFF AND DUP2 MSTORE PUSH1 0x20 ADD PUSH1 0x1 DUP3 ADD DUP1 SLOAD PUSH2 0x3238 SWAP1 PUSH2 0x46B8 JUMP JUMPDEST DUP1 PUSH1 0x1F ADD PUSH1 0x20 DUP1 SWAP2 DIV MUL PUSH1 0x20 ADD PUSH1 0x40 MLOAD SWAP1 DUP2 ADD PUSH1 0x40 MSTORE DUP1 SWAP3 SWAP2 SWAP1 DUP2 DUP2 MSTORE PUSH1 0x20 ADD DUP3 DUP1 SLOAD PUSH2 0x3264 SWAP1 PUSH2 0x46B8 JUMP JUMPDEST DUP1 ISZERO PUSH2 0x32B1 JUMPI DUP1 PUSH1 0x1F LT PUSH2 0x3286 JUMPI PUSH2 0x100 DUP1 DUP4 SLOAD DIV MUL DUP4 MSTORE SWAP2 PUSH1 0x20 ADD SWAP2 PUSH2 0x32B1 JUMP JUMPDEST DUP3 ADD SWAP2 SWAP1 PUSH1 0x0 MSTORE PUSH1 0x20 PUSH1 0x0 KECCAK256 SWAP1 JUMPDEST DUP2 SLOAD DUP2 MSTORE SWAP1 PUSH1 0x1 ADD SWAP1 PUSH1 0x20 ADD DUP1 DUP4 GT PUSH2 0x3294 JUMPI DUP3 SWAP1 SUB PUSH1 0x1F AND DUP3 ADD SWAP2 JUMPDEST POP POP POP POP POP DUP2 MSTORE PUSH1 0x20 ADD PUSH1 0x2 DUP3 ADD SLOAD DUP2 MSTORE POP POP DUP3 DUP3 DUP2 MLOAD DUP2 LT PUSH2 0x32D7 JUMPI PUSH2 0x32D6 PUSH2 0x59F5 JUMP JUMPDEST JUMPDEST PUSH1 0x20 MUL PUSH1 0x20 ADD ADD DUP2 SWAP1 MSTORE POP DUP1 DUP1 PUSH1 0x1 ADD SWAP2 POP POP PUSH2 0x3193 JUMP JUMPDEST POP DUP1 SWAP6 POP POP POP POP POP POP JUMPDEST SWAP4 SWAP3 POP POP POP JUMP JUMPDEST PUSH1 0x60 PUSH1 0x10 PUSH1 0x0 DUP4 DUP2 MSTORE PUSH1 0x20 ADD SWAP1 DUP2 MSTORE PUSH1 0x20 ADD PUSH1 0x0 KECCAK256 DUP1 SLOAD DUP1 PUSH1 0x20 MUL PUSH1 0x20 ADD PUSH1 0x40 MLOAD SWAP1 DUP2 ADD PUSH1 0x40 MSTORE DUP1 SWAP3 SWAP2 SWAP1 DUP2 DUP2 MSTORE PUSH1 0x20 ADD PUSH1 0x0 SWAP1 JUMPDEST DUP3 DUP3 LT ISZERO PUSH2 0x3459 JUMPI DUP4 DUP3 SWAP1 PUSH1 0x0 MSTORE PUSH1 0x20 PUSH1 0x0 KECCAK256 SWAP1 PUSH1 0x3 MUL ADD PUSH1 0x40 MLOAD DUP1 PUSH1 0x60 ADD PUSH1 0x40 MSTORE SWAP1 DUP2 PUSH1 0x0 DUP3 ADD PUSH1 0x0 SWAP1 SLOAD SWAP1 PUSH2 0x100 EXP SWAP1 DIV PUSH20 0xFFFFFFFFFFFFFFFFFFFFFFFFFFFFFFFFFFFFFFFF AND PUSH20 0xFFFFFFFFFFFFFFFFFFFFFFFFFFFFFFFFFFFFFFFF AND PUSH20 0xFFFFFFFFFFFFFFFFFFFFFFFFFFFFFFFFFFFFFFFF AND DUP2 MSTORE PUSH1 0x20 ADD PUSH1 0x1 DUP3 ADD DUP1 SLOAD PUSH2 0x33BE SWAP1 PUSH2 0x46B8 JUMP JUMPDEST DUP1 PUSH1 0x1F ADD PUSH1 0x20 DUP1 SWAP2 DIV MUL PUSH1 0x20 ADD PUSH1 0x40 MLOAD SWAP1 DUP2 ADD PUSH1 0x40 MSTORE DUP1 SWAP3 SWAP2 SWAP1 DUP2 DUP2 MSTORE PUSH1 0x20 ADD DUP3 DUP1 SLOAD PUSH2 0x33EA SWAP1 PUSH2 0x46B8 JUMP JUMPDEST DUP1 ISZERO PUSH2 0x3437 JUMPI DUP1 PUSH1 0x1F LT PUSH2 0x340C JUMPI PUSH2 0x100 DUP1 DUP4 SLOAD DIV MUL DUP4 MSTORE SWAP2 PUSH1 0x20 ADD SWAP2 PUSH2 0x3437 JUMP JUMPDEST DUP3 ADD SWAP2 SWAP1 PUSH1 0x0 MSTORE PUSH1 0x20 PUSH1 0x0 KECCAK256 SWAP1 JUMPDEST DUP2 SLOAD DUP2 MSTORE SWAP1 PUSH1 0x1 ADD SWAP1 PUSH1 0x20 ADD DUP1 DUP4 GT PUSH2 0x341A JUMPI DUP3 SWAP1 SUB PUSH1 0x1F AND DUP3 ADD SWAP2 JUMPDEST POP POP POP POP POP DUP2 MSTORE PUSH1 0x20 ADD PUSH1 0x2 DUP3 ADD SLOAD DUP2 MSTORE POP POP DUP2 MSTORE PUSH1 0x20 ADD SWAP1 PUSH1 0x1 ADD SWAP1 PUSH2 0x3335 JUMP JUMPDEST POP POP POP POP SWAP1 POP SWAP2 SWAP1 POP JUMP JUMPDEST PUSH1 0x2 PUSH1 0x0 SWAP1 SLOAD SWAP1 PUSH2 0x100 EXP SWAP1 DIV PUSH20 0xFFFFFFFFFFFFFFFFFFFFFFFFFFFFFFFFFFFFFFFF AND DUP2 JUMP JUMPDEST PUSH1 0xC PUSH1 0x20 MSTORE DUP1 PUSH1 0x0 MSTORE PUSH1 0x40 PUSH1 0x0 KECCAK256 PUSH1 0x0 SWAP2 POP SWAP1 POP DUP1 PUSH1 0x0 ADD PUSH1 0x0 SWAP1 SLOAD SWAP1 PUSH2 0x100 EXP SWAP1 DIV PUSH20 0xFFFFFFFFFFFFFFFFFFFFFFFFFFFFFFFFFFFFFFFF AND SWAP1 DUP1 PUSH1 0x1 ADD SLOAD SWAP1 DUP1 PUSH1 0x2 ADD SLOAD SWAP1 DUP1 PUSH1 0x3 ADD SLOAD SWAP1 DUP1 PUSH1 0x4 ADD SLOAD SWAP1 DUP1 PUSH1 0x5 ADD SLOAD SWAP1 POP DUP7 JUMP JUMPDEST DUP2 PUSH1 0x0 PUSH20 0xFFFFFFFFFFFFFFFFFFFFFFFFFFFFFFFFFFFFFFFF AND PUSH1 0xC PUSH1 0x0 DUP4 DUP2 MSTORE PUSH1 0x20 ADD SWAP1 DUP2 MSTORE PUSH1 0x20 ADD PUSH1 0x0 KECCAK256 PUSH1 0x0 ADD PUSH1 0x0 SWAP1 SLOAD SWAP1 PUSH2 0x100 EXP SWAP1 DIV PUSH20 0xFFFFFFFFFFFFFFFFFFFFFFFFFFFFFFFFFFFFFFFF AND PUSH20 0xFFFFFFFFFFFFFFFFFFFFFFFFFFFFFFFFFFFFFFFF AND SUB PUSH2 0x358C JUMPI PUSH1 0x40 MLOAD PUSH32 0x8C379A000000000000000000000000000000000000000000000000000000000 DUP2 MSTORE PUSH1 0x4 ADD PUSH2 0x3583 SWAP1 PUSH2 0x4B7E JUMP JUMPDEST PUSH1 0x40 MLOAD DUP1 SWAP2 SUB SWAP1 REVERT JUMPDEST PUSH1 0x0 PUSH1 0x40 MLOAD DUP1 PUSH1 0x60 ADD PUSH1 0x40 MSTORE DUP1 CALLER PUSH20 0xFFFFFFFFFFFFFFFFFFFFFFFFFFFFFFFFFFFFFFFF AND DUP2 MSTORE PUSH1 0x20 ADD DUP5 DUP2 MSTORE PUSH1 0x20 ADD TIMESTAMP DUP2 MSTORE POP SWAP1 POP PUSH1 0x10 PUSH1 0x0 DUP6 DUP2 MSTORE PUSH1 0x20 ADD SWAP1 DUP2 MSTORE PUSH1 0x20 ADD PUSH1 0x0 KECCAK256 DUP2 SWAP1 DUP1 PUSH1 0x1 DUP2 SLOAD ADD DUP1 DUP3 SSTORE DUP1 SWAP2 POP POP PUSH1 0x1 SWAP1 SUB SWAP1 PUSH1 0x0 MSTORE PUSH1 0x20 PUSH1 0x0 KECCAK256 SWAP1 PUSH1 0x3 MUL ADD PUSH1 0x0 SWAP1 SWAP2 SWAP1 SWAP2 SWAP1 SWAP2 POP PUSH1 0x0 DUP3 ADD MLOAD DUP2 PUSH1 0x0 ADD PUSH1 0x0 PUSH2 0x100 EXP DUP2 SLOAD DUP2 PUSH20 0xFFFFFFFFFFFFFFFFFFFFFFFFFFFFFFFFFFFFFFFF MUL NOT AND SWAP1 DUP4 PUSH20 0xFFFFFFFFFFFFFFFFFFFFFFFFFFFFFFFFFFFFFFFF AND MUL OR SWAP1 SSTORE POP PUSH1 0x20 DUP3 ADD MLOAD DUP2 PUSH1 0x1 ADD SWAP1 DUP2 PUSH2 0x365A SWAP2 SWAP1 PUSH2 0x4895 JUMP JUMPDEST POP PUSH1 0x40 DUP3 ADD MLOAD DUP2 PUSH1 0x2 ADD SSTORE POP POP CALLER PUSH20 0xFFFFFFFFFFFFFFFFFFFFFFFFFFFFFFFFFFFFFFFF AND DUP5 PUSH32 0xCC2D7DD2085AE6644799A42C0174ADF9AFC10A43F26DB5EAC3DDD1F96D1D64BE DUP6 PUSH1 0x40 MLOAD PUSH2 0x36AE SWAP2 SWAP1 PUSH2 0x4967 JUMP JUMPDEST PUSH1 0x40 MLOAD DUP1 SWAP2 SUB SWAP1 LOG3 POP POP POP POP JUMP JUMPDEST DUP2 CALLER PUSH20 0xFFFFFFFFFFFFFFFFFFFFFFFFFFFFFFFFFFFFFFFF AND PUSH1 0xC PUSH1 0x0 DUP4 DUP2 MSTORE PUSH1 0x20 ADD SWAP1 DUP2 MSTORE PUSH1 0x20 ADD PUSH1 0x0 KECCAK256 PUSH1 0x0 ADD PUSH1 0x0 SWAP1 SLOAD SWAP1 PUSH2 0x100 EXP SWAP1 DIV PUSH20 0xFFFFFFFFFFFFFFFFFFFFFFFFFFFFFFFFFFFFFFFF AND PUSH20 0xFFFFFFFFFFFFFFFFFFFFFFFFFFFFFFFFFFFFFFFF AND EQ PUSH2 0x3761 JUMPI PUSH1 0x40 MLOAD PUSH32 0x8C379A000000000000000000000000000000000000000000000000000000000 DUP2 MSTORE PUSH1 0x4 ADD PUSH2 0x3758 SWAP1 PUSH2 0x4AA6 JUMP JUMPDEST PUSH1 0x40 MLOAD DUP1 SWAP2 SUB SWAP1 REVERT JUMPDEST DUP2 PUSH1 0xC PUSH1 0x0 DUP6 DUP2 MSTORE PUSH1 0x20 ADD SWAP1 DUP2 MSTORE PUSH1 0x20 ADD PUSH1 0x0 KECCAK256 PUSH1 0x4 ADD DUP2 SWAP1 SSTORE POP DUP3 PUSH32 0x2E1C9E000C6E8DDA4D03536ADB13B7CB6034CCFF90D17F01DE381E4D5097B525 DUP4 PUSH1 0x40 MLOAD PUSH2 0x37AC SWAP2 SWAP1 PUSH2 0x3F0D JUMP JUMPDEST PUSH1 0x40 MLOAD DUP1 SWAP2 SUB SWAP1 LOG2 POP POP POP JUMP JUMPDEST PUSH1 0x4 SLOAD DUP2 JUMP JUMPDEST PUSH1 0x1 PUSH1 0x0 SWAP1 SLOAD SWAP1 PUSH2 0x100 EXP SWAP1 DIV PUSH20 0xFFFFFFFFFFFFFFFFFFFFFFFFFFFFFFFFFFFFFFFF AND PUSH20 0xFFFFFFFFFFFFFFFFFFFFFFFFFFFFFFFFFFFFFFFF AND CALLER PUSH20 0xFFFFFFFFFFFFFFFFFFFFFFFFFFFFFFFFFFFFFFFF AND EQ PUSH2 0x384F JUMPI PUSH1 0x40 MLOAD PUSH32 0x8C379A000000000000000000000000000000000000000000000000000000000 DUP2 MSTORE PUSH1 0x4 ADD PUSH2 0x3846 SWAP1 PUSH2 0x4AA6 JUMP JUMPDEST PUSH1 0x40 MLOAD DUP1 SWAP2 SUB SWAP1 REVERT JUMPDEST PUSH1 0x0 PUSH20 0xFFFFFFFFFFFFFFFFFFFFFFFFFFFFFFFFFFFFFFFF AND DUP2 PUSH20 0xFFFFFFFFFFFFFFFFFFFFFFFFFFFFFFFFFFFFFFFF AND SUB PUSH2 0x38BE JUMPI PUSH1 0x40 MLOAD PUSH32 0x8C379A000000000000000000000000000000000000000000000000000000000 DUP2 MSTORE PUSH1 0x4 ADD PUSH2 0x38B5 SWAP1 PUSH2 0x5969 JUMP JUMPDEST PUSH1 0x40 MLOAD DUP1 SWAP2 SUB SWAP1 REVERT JUMPDEST DUP1 PUSH1 0x2 PUSH1 0x0 PUSH2 0x100 EXP DUP2 SLOAD DUP2 PUSH20 0xFFFFFFFFFFFFFFFFFFFFFFFFFFFFFFFFFFFFFFFF MUL NOT AND SWAP1 DUP4 PUSH20 0xFFFFFFFFFFFFFFFFFFFFFFFFFFFFFFFFFFFFFFFF AND MUL OR SWAP1 SSTORE POP POP JUMP JUMPDEST PUSH1 0x1E DUP2 JUMP JUMPDEST PUSH1 0x10 PUSH1 0x20 MSTORE DUP2 PUSH1 0x0 MSTORE PUSH1 0x40 PUSH1 0x0 KECCAK256 DUP2 DUP2 SLOAD DUP2 LT PUSH2 0x3923 JUMPI PUSH1 0x0 DUP1 REVERT JUMPDEST SWAP1 PUSH1 0x0 MSTORE PUSH1 0x20 PUSH1 0x0 KECCAK256 SWAP1 PUSH1 0x3 MUL ADD PUSH1 0x0 SWAP2 POP SWAP2 POP POP DUP1 PUSH1 0x0 ADD PUSH1 0x0 SWAP1 SLOAD SWAP1 PUSH2 0x100 EXP SWAP1 DIV PUSH20 0xFFFFFFFFFFFFFFFFFFFFFFFFFFFFFFFFFFFFFFFF AND SWAP1 DUP1 PUSH1 0x1 ADD DUP1 SLOAD PUSH2 0x396D SWAP1 PUSH2 0x46B8 JUMP JUMPDEST DUP1 PUSH1 0x1F ADD PUSH1 0x20 DUP1 SWAP2 DIV MUL PUSH1 0x20 ADD PUSH1 0x40 MLOAD SWAP1 DUP2 ADD PUSH1 0x40 MSTORE DUP1 SWAP3 SWAP2 SWAP1 DUP2 DUP2 MSTORE PUSH1 0x20 ADD DUP3 DUP1 SLOAD PUSH2 0x3999 SWAP1 PUSH2 0x46B8 JUMP JUMPDEST DUP1 ISZERO PUSH2 0x39E6 JUMPI DUP1 PUSH1 0x1F LT PUSH2 0x39BB JUMPI PUSH2 0x100 DUP1 DUP4 SLOAD DIV MUL DUP4 MSTORE SWAP2 PUSH1 0x20 ADD SWAP2 PUSH2 0x39E6 JUMP JUMPDEST DUP3 ADD SWAP2 SWAP1 PUSH1 0x0 MSTORE PUSH1 0x20 PUSH1 0x0 KECCAK256 SWAP1 JUMPDEST DUP2 SLOAD DUP2 MSTORE SWAP1 PUSH1 0x1 ADD SWAP1 PUSH1 0x20 ADD DUP1 DUP4 GT PUSH2 0x39C9 JUMPI DUP3 SWAP1 SUB PUSH1 0x1F AND DUP3 ADD SWAP2 JUMPDEST POP POP POP POP POP SWAP1 DUP1 PUSH1 0x2 ADD SLOAD SWAP1 POP DUP4 JUMP JUMPDEST PUSH1 0x2 PUSH1 0x0 SLOAD SUB PUSH2 0x3A32 JUMPI PUSH1 0x40 MLOAD PUSH32 0x3EE5AEB500000000000000000000000000000000000000000000000000000000 DUP2 MSTORE PUSH1 0x4 ADD PUSH1 0x40 MLOAD DUP1 SWAP2 SUB SWAP1 REVERT JUMPDEST PUSH1 0x2 PUSH1 0x0 DUP2 SWAP1 SSTORE POP JUMP JUMPDEST PUSH1 0x1 PUSH1 0x0 DUP2 SWAP1 SSTORE POP JUMP JUMPDEST PUSH1 0x0 PUSH1 0x64 PUSH1 0x7 SLOAD DUP5 PUSH2 0x3A58 SWAP2 SWAP1 PUSH2 0x49B8 JUMP JUMPDEST PUSH2 0x3A62 SWAP2 SWAP1 PUSH2 0x4A29 JUMP JUMPDEST SWAP1 POP PUSH1 0x0 PUSH1 0x64 PUSH1 0x9 SLOAD DUP6 PUSH2 0x3A76 SWAP2 SWAP1 PUSH2 0x49B8 JUMP JUMPDEST PUSH2 0x3A80 SWAP2 SWAP1 PUSH2 0x4A29 JUMP JUMPDEST SWAP1 POP PUSH1 0x0 PUSH1 0x64 PUSH1 0x8 SLOAD DUP7 PUSH2 0x3A94 SWAP2 SWAP1 PUSH2 0x49B8 JUMP JUMPDEST PUSH2 0x3A9E SWAP2 SWAP1 PUSH2 0x4A29 JUMP JUMPDEST SWAP1 POP PUSH1 0x0 DUP5 PUSH20 0xFFFFFFFFFFFFFFFFFFFFFFFFFFFFFFFFFFFFFFFF AND DUP5 PUSH1 0x40 MLOAD PUSH2 0x3AC6 SWAP1 PUSH2 0x4FC8 JUMP JUMPDEST PUSH1 0x0 PUSH1 0x40 MLOAD DUP1 DUP4 SUB DUP2 DUP6 DUP8 GAS CALL SWAP3 POP POP POP RETURNDATASIZE DUP1 PUSH1 0x0 DUP2 EQ PUSH2 0x3B03 JUMPI PUSH1 0x40 MLOAD SWAP2 POP PUSH1 0x1F NOT PUSH1 0x3F RETURNDATASIZE ADD AND DUP3 ADD PUSH1 0x40 MSTORE RETURNDATASIZE DUP3 MSTORE RETURNDATASIZE PUSH1 0x0 PUSH1 0x20 DUP5 ADD RETURNDATACOPY PUSH2 0x3B08 JUMP JUMPDEST PUSH1 0x60 SWAP2 POP JUMPDEST POP POP SWAP1 POP DUP1 PUSH2 0x3B4C JUMPI PUSH1 0x40 MLOAD PUSH32 0x8C379A000000000000000000000000000000000000000000000000000000000 DUP2 MSTORE PUSH1 0x4 ADD PUSH2 0x3B43 SWAP1 PUSH2 0x5A70 JUMP JUMPDEST PUSH1 0x40 MLOAD DUP1 SWAP2 SUB SWAP1 REVERT JUMPDEST PUSH1 0x0 CALLER PUSH20 0xFFFFFFFFFFFFFFFFFFFFFFFFFFFFFFFFFFFFFFFF AND DUP5 PUSH1 0x40 MLOAD PUSH2 0x3B72 SWAP1 PUSH2 0x4FC8 JUMP JUMPDEST PUSH1 0x0 PUSH1 0x40 MLOAD DUP1 DUP4 SUB DUP2 DUP6 DUP8 GAS CALL SWAP3 POP POP POP RETURNDATASIZE DUP1 PUSH1 0x0 DUP2 EQ PUSH2 0x3BAF JUMPI PUSH1 0x40 MLOAD SWAP2 POP PUSH1 0x1F NOT PUSH1 0x3F RETURNDATASIZE ADD AND DUP3 ADD PUSH1 0x40 MSTORE RETURNDATASIZE DUP3 MSTORE RETURNDATASIZE PUSH1 0x0 PUSH1 0x20 DUP5 ADD RETURNDATACOPY PUSH2 0x3BB4 JUMP JUMPDEST PUSH1 0x60 SWAP2 POP JUMPDEST POP POP SWAP1 POP DUP1 PUSH2 0x3BF8 JUMPI PUSH1 0x40 MLOAD PUSH32 0x8C379A000000000000000000000000000000000000000000000000000000000 DUP2 MSTORE PUSH1 0x4 ADD PUSH2 0x3BEF SWAP1 PUSH2 0x5ADC JUMP JUMPDEST PUSH1 0x40 MLOAD DUP1 SWAP2 SUB SWAP1 REVERT JUMPDEST PUSH1 0x0 PUSH1 0x3 PUSH1 0x0 SWAP1 SLOAD SWAP1 PUSH2 0x100 EXP SWAP1 DIV PUSH20 0xFFFFFFFFFFFFFFFFFFFFFFFFFFFFFFFFFFFFFFFF AND PUSH20 0xFFFFFFFFFFFFFFFFFFFFFFFFFFFFFFFFFFFFFFFF AND DUP5 PUSH1 0x40 MLOAD PUSH2 0x3C40 SWAP1 PUSH2 0x4FC8 JUMP JUMPDEST PUSH1 0x0 PUSH1 0x40 MLOAD DUP1 DUP4 SUB DUP2 DUP6 DUP8 GAS CALL SWAP3 POP POP POP RETURNDATASIZE DUP1 PUSH1 0x0 DUP2 EQ PUSH2 0x3C7D JUMPI PUSH1 0x40 MLOAD SWAP2 POP PUSH1 0x1F NOT PUSH1 0x3F RETURNDATASIZE ADD AND DUP3 ADD PUSH1 0x40 MSTORE RETURNDATASIZE DUP3 MSTORE RETURNDATASIZE PUSH1 0x0 PUSH1 0x20 DUP5 ADD RETURNDATACOPY PUSH2 0x3C82 JUMP JUMPDEST PUSH1 0x60 SWAP2 POP JUMPDEST POP POP SWAP1 POP DUP1 PUSH2 0x3CC6 JUMPI PUSH1 0x40 MLOAD PUSH32 0x8C379A000000000000000000000000000000000000000000000000000000000 DUP2 MSTORE PUSH1 0x4 ADD PUSH2 0x3CBD SWAP1 PUSH2 0x5B48 JUMP JUMPDEST PUSH1 0x40 MLOAD DUP1 SWAP2 SUB SWAP1 REVERT JUMPDEST POP POP POP POP POP POP POP POP JUMP JUMPDEST PUSH1 0x40 MLOAD DUP1 PUSH1 0x80 ADD PUSH1 0x40 MSTORE DUP1 PUSH1 0x60 DUP2 MSTORE PUSH1 0x20 ADD PUSH1 0x0 DUP2 MSTORE PUSH1 0x20 ADD PUSH1 0x0 DUP2 MSTORE PUSH1 0x20 ADD PUSH1 0x0 DUP2 MSTORE POP SWAP1 JUMP JUMPDEST PUSH1 0x40 MLOAD DUP1 PUSH1 0x60 ADD PUSH1 0x40 MSTORE DUP1 PUSH1 0x3 SWAP1 PUSH1 0x20 DUP3 MUL DUP1 CALLDATASIZE DUP4 CALLDATACOPY DUP1 DUP3 ADD SWAP2 POP POP SWAP1 POP POP SWAP1 JUMP JUMPDEST PUSH1 0x40 MLOAD DUP1 PUSH1 0x60 ADD PUSH1 0x40 MSTORE DUP1 PUSH1 0x0 PUSH20 0xFFFFFFFFFFFFFFFFFFFFFFFFFFFFFFFFFFFFFFFF AND DUP2 MSTORE PUSH1 0x20 ADD PUSH1 0x60 DUP2 MSTORE PUSH1 0x20 ADD PUSH1 0x0 DUP2 MSTORE POP SWAP1 JUMP JUMPDEST PUSH1 0x0 PUSH1 0x40 MLOAD SWAP1 POP SWAP1 JUMP JUMPDEST PUSH1 0x0 DUP1 REVERT JUMPDEST PUSH1 0x0 DUP1 REVERT JUMPDEST PUSH1 0x0 DUP1 REVERT JUMPDEST PUSH1 0x0 DUP1 REVERT JUMPDEST PUSH1 0x0 PUSH1 0x1F NOT PUSH1 0x1F DUP4 ADD AND SWAP1 POP SWAP2 SWAP1 POP JUMP JUMPDEST PUSH32 0x4E487B7100000000000000000000000000000000000000000000000000000000 PUSH1 0x0 MSTORE PUSH1 0x41 PUSH1 0x4 MSTORE PUSH1 0x24 PUSH1 0x0 REVERT JUMPDEST PUSH2 0x3DB8 DUP3 PUSH2 0x3D6F JUMP JUMPDEST DUP2 ADD DUP2 DUP2 LT PUSH8 0xFFFFFFFFFFFFFFFF DUP3 GT OR ISZERO PUSH2 0x3DD7 JUMPI PUSH2 0x3DD6 PUSH2 0x3D80 JUMP JUMPDEST JUMPDEST DUP1 PUSH1 0x40 MSTORE POP POP POP JUMP JUMPDEST PUSH1 0x0 PUSH2 0x3DEA PUSH2 0x3D51 JUMP JUMPDEST SWAP1 POP PUSH2 0x3DF6 DUP3 DUP3 PUSH2 0x3DAF JUMP JUMPDEST SWAP2 SWAP1 POP JUMP JUMPDEST PUSH1 0x0 PUSH8 0xFFFFFFFFFFFFFFFF DUP3 GT ISZERO PUSH2 0x3E16 JUMPI PUSH2 0x3E15 PUSH2 0x3D80 JUMP JUMPDEST JUMPDEST PUSH2 0x3E1F DUP3 PUSH2 0x3D6F JUMP JUMPDEST SWAP1 POP PUSH1 0x20 DUP2 ADD SWAP1 POP SWAP2 SWAP1 POP JUMP JUMPDEST DUP3 DUP2 DUP4 CALLDATACOPY PUSH1 0x0 DUP4 DUP4 ADD MSTORE POP POP POP JUMP JUMPDEST PUSH1 0x0 PUSH2 0x3E4E PUSH2 0x3E49 DUP5 PUSH2 0x3DFB JUMP JUMPDEST PUSH2 0x3DE0 JUMP JUMPDEST SWAP1 POP DUP3 DUP2 MSTORE PUSH1 0x20 DUP2 ADD DUP5 DUP5 DUP5 ADD GT ISZERO PUSH2 0x3E6A JUMPI PUSH2 0x3E69 PUSH2 0x3D6A JUMP JUMPDEST JUMPDEST PUSH2 0x3E75 DUP5 DUP3 DUP6 PUSH2 0x3E2C JUMP JUMPDEST POP SWAP4 SWAP3 POP POP POP JUMP JUMPDEST PUSH1 0x0 DUP3 PUSH1 0x1F DUP4 ADD SLT PUSH2 0x3E92 JUMPI PUSH2 0x3E91 PUSH2 0x3D65 JUMP JUMPDEST JUMPDEST DUP2 CALLDATALOAD PUSH2 0x3EA2 DUP5 DUP3 PUSH1 0x20 DUP7 ADD PUSH2 0x3E3B JUMP JUMPDEST SWAP2 POP POP SWAP3 SWAP2 POP POP JUMP JUMPDEST PUSH1 0x0 PUSH1 0x20 DUP3 DUP5 SUB SLT ISZERO PUSH2 0x3EC1 JUMPI PUSH2 0x3EC0 PUSH2 0x3D5B JUMP JUMPDEST JUMPDEST PUSH1 0x0 DUP3 ADD CALLDATALOAD PUSH8 0xFFFFFFFFFFFFFFFF DUP2 GT ISZERO PUSH2 0x3EDF JUMPI PUSH2 0x3EDE PUSH2 0x3D60 JUMP JUMPDEST JUMPDEST PUSH2 0x3EEB DUP5 DUP3 DUP6 ADD PUSH2 0x3E7D JUMP JUMPDEST SWAP2 POP POP SWAP3 SWAP2 POP POP JUMP JUMPDEST PUSH1 0x0 DUP2 SWAP1 POP SWAP2 SWAP1 POP JUMP JUMPDEST PUSH2 0x3F07 DUP2 PUSH2 0x3EF4 JUMP JUMPDEST DUP3 MSTORE POP POP JUMP JUMPDEST PUSH1 0x0 PUSH1 0x20 DUP3 ADD SWAP1 POP PUSH2 0x3F22 PUSH1 0x0 DUP4 ADD DUP5 PUSH2 0x3EFE JUMP JUMPDEST SWAP3 SWAP2 POP POP JUMP JUMPDEST PUSH2 0x3F31 DUP2 PUSH2 0x3EF4 JUMP JUMPDEST DUP2 EQ PUSH2 0x3F3C JUMPI PUSH1 0x0 DUP1 REVERT JUMPDEST POP JUMP JUMPDEST PUSH1 0x0 DUP2 CALLDATALOAD SWAP1 POP PUSH2 0x3F4E DUP2 PUSH2 0x3F28 JUMP JUMPDEST SWAP3 SWAP2 POP POP JUMP JUMPDEST PUSH1 0x0 PUSH1 0x20 DUP3 DUP5 SUB SLT ISZERO PUSH2 0x3F6A JUMPI PUSH2 0x3F69 PUSH2 0x3D5B JUMP JUMPDEST JUMPDEST PUSH1 0x0 PUSH2 0x3F78 DUP5 DUP3 DUP6 ADD PUSH2 0x3F3F JUMP JUMPDEST SWAP2 POP POP SWAP3 SWAP2 POP POP JUMP JUMPDEST PUSH1 0x0 DUP1 PUSH1 0x0 PUSH1 0x60 DUP5 DUP7 SUB SLT ISZERO PUSH2 0x3F9A JUMPI PUSH2 0x3F99 PUSH2 0x3D5B JUMP JUMPDEST JUMPDEST PUSH1 0x0 PUSH2 0x3FA8 DUP7 DUP3 DUP8 ADD PUSH2 0x3F3F JUMP JUMPDEST SWAP4 POP POP PUSH1 0x20 PUSH2 0x3FB9 DUP7 DUP3 DUP8 ADD PUSH2 0x3F3F JUMP JUMPDEST SWAP3 POP POP PUSH1 0x40 PUSH2 0x3FCA DUP7 DUP3 DUP8 ADD PUSH2 0x3F3F JUMP JUMPDEST SWAP2 POP POP SWAP3 POP SWAP3 POP SWAP3 JUMP JUMPDEST PUSH1 0x0 DUP1 PUSH1 0x40 DUP4 DUP6 SUB SLT ISZERO PUSH2 0x3FEB JUMPI PUSH2 0x3FEA PUSH2 0x3D5B JUMP JUMPDEST JUMPDEST PUSH1 0x0 PUSH2 0x3FF9 DUP6 DUP3 DUP7 ADD PUSH2 0x3F3F JUMP JUMPDEST SWAP3 POP POP PUSH1 0x20 PUSH2 0x400A DUP6 DUP3 DUP7 ADD PUSH2 0x3F3F JUMP JUMPDEST SWAP2 POP POP SWAP3 POP SWAP3 SWAP1 POP JUMP JUMPDEST PUSH1 0x0 PUSH20 0xFFFFFFFFFFFFFFFFFFFFFFFFFFFFFFFFFFFFFFFF DUP3 AND SWAP1 POP SWAP2 SWAP1 POP JUMP JUMPDEST PUSH1 0x0 PUSH2 0x403F DUP3 PUSH2 0x4014 JUMP JUMPDEST SWAP1 POP SWAP2 SWAP1 POP JUMP JUMPDEST PUSH2 0x404F DUP2 PUSH2 0x4034 JUMP JUMPDEST DUP2 EQ PUSH2 0x405A JUMPI PUSH1 0x0 DUP1 REVERT JUMPDEST POP JUMP JUMPDEST PUSH1 0x0 DUP2 CALLDATALOAD SWAP1 POP PUSH2 0x406C DUP2 PUSH2 0x4046 JUMP JUMPDEST SWAP3 SWAP2 POP POP JUMP JUMPDEST PUSH1 0x0 PUSH1 0x20 DUP3 DUP5 SUB SLT ISZERO PUSH2 0x4088 JUMPI PUSH2 0x4087 PUSH2 0x3D5B JUMP JUMPDEST JUMPDEST PUSH1 0x0 PUSH2 0x4096 DUP5 DUP3 DUP6 ADD PUSH2 0x405D JUMP JUMPDEST SWAP2 POP POP SWAP3 SWAP2 POP POP JUMP JUMPDEST PUSH1 0x0 DUP2 ISZERO ISZERO SWAP1 POP SWAP2 SWAP1 POP JUMP JUMPDEST PUSH2 0x40B4 DUP2 PUSH2 0x409F JUMP JUMPDEST DUP2 EQ PUSH2 0x40BF JUMPI PUSH1 0x0 DUP1 REVERT JUMPDEST POP JUMP JUMPDEST PUSH1 0x0 DUP2 CALLDATALOAD SWAP1 POP PUSH2 0x40D1 DUP2 PUSH2 0x40AB JUMP JUMPDEST SWAP3 SWAP2 POP POP JUMP JUMPDEST PUSH1 0x0 DUP1 PUSH1 0x40 DUP4 DUP6 SUB SLT ISZERO PUSH2 0x40EE JUMPI PUSH2 0x40ED PUSH2 0x3D5B JUMP JUMPDEST JUMPDEST PUSH1 0x0 PUSH2 0x40FC DUP6 DUP3 DUP7 ADD PUSH2 0x3F3F JUMP JUMPDEST SWAP3 POP POP PUSH1 0x20 PUSH2 0x410D DUP6 DUP3 DUP7 ADD PUSH2 0x40C2 JUMP JUMPDEST SWAP2 POP POP SWAP3 POP SWAP3 SWAP1 POP JUMP JUMPDEST PUSH1 0x0 DUP1 PUSH1 0x40 DUP4 DUP6 SUB SLT ISZERO PUSH2 0x412E JUMPI PUSH2 0x412D PUSH2 0x3D5B JUMP JUMPDEST JUMPDEST PUSH1 0x0 PUSH2 0x413C DUP6 DUP3 DUP7 ADD PUSH2 0x3F3F JUMP JUMPDEST SWAP3 POP POP PUSH1 0x20 PUSH2 0x414D DUP6 DUP3 DUP7 ADD PUSH2 0x405D JUMP JUMPDEST SWAP2 POP POP SWAP3 POP SWAP3 SWAP1 POP JUMP JUMPDEST PUSH2 0x4160 DUP2 PUSH2 0x409F JUMP JUMPDEST DUP3 MSTORE POP POP JUMP JUMPDEST PUSH1 0x0 PUSH1 0x20 DUP3 ADD SWAP1 POP PUSH2 0x417B PUSH1 0x0 DUP4 ADD DUP5 PUSH2 0x4157 JUMP JUMPDEST SWAP3 SWAP2 POP POP JUMP JUMPDEST PUSH2 0x418A DUP2 PUSH2 0x4034 JUMP JUMPDEST DUP3 MSTORE POP POP JUMP JUMPDEST PUSH1 0x0 PUSH1 0x20 DUP3 ADD SWAP1 POP PUSH2 0x41A5 PUSH1 0x0 DUP4 ADD DUP5 PUSH2 0x4181 JUMP JUMPDEST SWAP3 SWAP2 POP POP JUMP JUMPDEST PUSH1 0x0 DUP2 MLOAD SWAP1 POP SWAP2 SWAP1 POP JUMP JUMPDEST PUSH1 0x0 DUP3 DUP3 MSTORE PUSH1 0x20 DUP3 ADD SWAP1 POP SWAP3 SWAP2 POP POP JUMP JUMPDEST PUSH1 0x0 JUMPDEST DUP4 DUP2 LT ISZERO PUSH2 0x41E5 JUMPI DUP1 DUP3 ADD MLOAD DUP2 DUP5 ADD MSTORE PUSH1 0x20 DUP2 ADD SWAP1 POP PUSH2 0x41CA JUMP JUMPDEST PUSH1 0x0 DUP5 DUP5 ADD MSTORE POP POP POP POP JUMP JUMPDEST PUSH1 0x0 PUSH2 0x41FC DUP3 PUSH2 0x41AB JUMP JUMPDEST PUSH2 0x4206 DUP2 DUP6 PUSH2 0x41B6 JUMP JUMPDEST SWAP4 POP PUSH2 0x4216 DUP2 DUP6 PUSH1 0x20 DUP7 ADD PUSH2 0x41C7 JUMP JUMPDEST PUSH2 0x421F DUP2 PUSH2 0x3D6F JUMP JUMPDEST DUP5 ADD SWAP2 POP POP SWAP3 SWAP2 POP POP JUMP JUMPDEST PUSH1 0x0 PUSH1 0x80 DUP3 ADD SWAP1 POP DUP2 DUP2 SUB PUSH1 0x0 DUP4 ADD MSTORE PUSH2 0x4244 DUP2 DUP8 PUSH2 0x41F1 JUMP JUMPDEST SWAP1 POP PUSH2 0x4253 PUSH1 0x20 DUP4 ADD DUP7 PUSH2 0x3EFE JUMP JUMPDEST PUSH2 0x4260 PUSH1 0x40 DUP4 ADD DUP6 PUSH2 0x3EFE JUMP JUMPDEST PUSH2 0x426D PUSH1 0x60 DUP4 ADD DUP5 PUSH2 0x3EFE JUMP JUMPDEST SWAP6 SWAP5 POP POP POP POP POP JUMP JUMPDEST PUSH1 0x0 DUP1 PUSH1 0x40 DUP4 DUP6 SUB SLT ISZERO PUSH2 0x428D JUMPI PUSH2 0x428C PUSH2 0x3D5B JUMP JUMPDEST JUMPDEST PUSH1 0x0 PUSH2 0x429B DUP6 DUP3 DUP7 ADD PUSH2 0x405D JUMP JUMPDEST SWAP3 POP POP PUSH1 0x20 PUSH2 0x42AC DUP6 DUP3 DUP7 ADD PUSH2 0x405D JUMP JUMPDEST SWAP2 POP POP SWAP3 POP SWAP3 SWAP1 POP JUMP JUMPDEST PUSH1 0x0 DUP3 DUP3 MSTORE PUSH1 0x20 DUP3 ADD SWAP1 POP SWAP3 SWAP2 POP POP JUMP JUMPDEST PUSH1 0x0 PUSH2 0x42D2 DUP3 PUSH2 0x41AB JUMP JUMPDEST PUSH2 0x42DC DUP2 DUP6 PUSH2 0x42B6 JUMP JUMPDEST SWAP4 POP PUSH2 0x42EC DUP2 DUP6 PUSH1 0x20 DUP7 ADD PUSH2 0x41C7 JUMP JUMPDEST PUSH2 0x42F5 DUP2 PUSH2 0x3D6F JUMP JUMPDEST DUP5 ADD SWAP2 POP POP SWAP3 SWAP2 POP POP JUMP JUMPDEST PUSH2 0x4309 DUP2 PUSH2 0x3EF4 JUMP JUMPDEST DUP3 MSTORE POP POP JUMP JUMPDEST PUSH1 0x0 PUSH1 0x80 DUP4 ADD PUSH1 0x0 DUP4 ADD MLOAD DUP5 DUP3 SUB PUSH1 0x0 DUP7 ADD MSTORE PUSH2 0x432C DUP3 DUP3 PUSH2 0x42C7 JUMP JUMPDEST SWAP2 POP POP PUSH1 0x20 DUP4 ADD MLOAD PUSH2 0x4341 PUSH1 0x20 DUP7 ADD DUP3 PUSH2 0x4300 JUMP JUMPDEST POP PUSH1 0x40 DUP4 ADD MLOAD PUSH2 0x4354 PUSH1 0x40 DUP7 ADD DUP3 PUSH2 0x4300 JUMP JUMPDEST POP PUSH1 0x60 DUP4 ADD MLOAD PUSH2 0x4367 PUSH1 0x60 DUP7 ADD DUP3 PUSH2 0x4300 JUMP JUMPDEST POP DUP1 SWAP2 POP POP SWAP3 SWAP2 POP POP JUMP JUMPDEST PUSH1 0x0 PUSH1 0x20 DUP3 ADD SWAP1 POP DUP2 DUP2 SUB PUSH1 0x0 DUP4 ADD MSTORE PUSH2 0x438C DUP2 DUP5 PUSH2 0x430F JUMP JUMPDEST SWAP1 POP SWAP3 SWAP2 POP POP JUMP JUMPDEST PUSH1 0x0 PUSH1 0x3 SWAP1 POP SWAP2 SWAP1 POP JUMP JUMPDEST PUSH1 0x0 DUP2 SWAP1 POP SWAP3 SWAP2 POP POP JUMP JUMPDEST PUSH1 0x0 DUP2 SWAP1 POP SWAP2 SWAP1 POP JUMP JUMPDEST PUSH1 0x0 PUSH2 0x43C0 DUP4 DUP4 PUSH2 0x4300 JUMP JUMPDEST PUSH1 0x20 DUP4 ADD SWAP1 POP SWAP3 SWAP2 POP POP JUMP JUMPDEST PUSH1 0x0 PUSH1 0x20 DUP3 ADD SWAP1 POP SWAP2 SWAP1 POP JUMP JUMPDEST PUSH2 0x43E2 DUP2 PUSH2 0x4394 JUMP JUMPDEST PUSH2 0x43EC DUP2 DUP5 PUSH2 0x439F JUMP JUMPDEST SWAP3 POP PUSH2 0x43F7 DUP3 PUSH2 0x43AA JUMP JUMPDEST DUP1 PUSH1 0x0 JUMPDEST DUP4 DUP2 LT ISZERO PUSH2 0x4428 JUMPI DUP2 MLOAD PUSH2 0x440F DUP8 DUP3 PUSH2 0x43B4 JUMP JUMPDEST SWAP7 POP PUSH2 0x441A DUP4 PUSH2 0x43CC JUMP JUMPDEST SWAP3 POP POP PUSH1 0x1 DUP2 ADD SWAP1 POP PUSH2 0x43FB JUMP JUMPDEST POP POP POP POP POP POP JUMP JUMPDEST PUSH1 0x0 PUSH1 0x60 DUP3 ADD SWAP1 POP PUSH2 0x4445 PUSH1 0x0 DUP4 ADD DUP5 PUSH2 0x43D9 JUMP JUMPDEST SWAP3 SWAP2 POP POP JUMP JUMPDEST PUSH1 0x0 DUP2 MLOAD SWAP1 POP SWAP2 SWAP1 POP JUMP JUMPDEST PUSH1 0x0 DUP3 DUP3 MSTORE PUSH1 0x20 DUP3 ADD SWAP1 POP SWAP3 SWAP2 POP POP JUMP JUMPDEST PUSH1 0x0 DUP2 SWAP1 POP PUSH1 0x20 DUP3 ADD SWAP1 POP SWAP2 SWAP1 POP JUMP JUMPDEST PUSH2 0x4480 DUP2 PUSH2 0x4034 JUMP JUMPDEST DUP3 MSTORE POP POP JUMP JUMPDEST PUSH1 0x0 PUSH1 0x60 DUP4 ADD PUSH1 0x0 DUP4 ADD MLOAD PUSH2 0x449E PUSH1 0x0 DUP7 ADD DUP3 PUSH2 0x4477 JUMP JUMPDEST POP PUSH1 0x20 DUP4 ADD MLOAD DUP5 DUP3 SUB PUSH1 0x20 DUP7 ADD MSTORE PUSH2 0x44B6 DUP3 DUP3 PUSH2 0x42C7 JUMP JUMPDEST SWAP2 POP POP PUSH1 0x40 DUP4 ADD MLOAD PUSH2 0x44CB PUSH1 0x40 DUP7 ADD DUP3 PUSH2 0x4300 JUMP JUMPDEST POP DUP1 SWAP2 POP POP SWAP3 SWAP2 POP POP JUMP JUMPDEST PUSH1 0x0 PUSH2 0x44E2 DUP4 DUP4 PUSH2 0x4486 JUMP JUMPDEST SWAP1 POP SWAP3 SWAP2 POP POP JUMP JUMPDEST PUSH1 0x0 PUSH1 0x20 DUP3 ADD SWAP1 POP SWAP2 SWAP1 POP JUMP JUMPDEST PUSH1 0x0 PUSH2 0x4502 DUP3 PUSH2 0x444B JUMP JUMPDEST PUSH2 0x450C DUP2 DUP6 PUSH2 0x4456 JUMP JUMPDEST SWAP4 POP DUP4 PUSH1 0x20 DUP3 MUL DUP6 ADD PUSH2 0x451E DUP6 PUSH2 0x4467 JUMP JUMPDEST DUP1 PUSH1 0x0 JUMPDEST DUP6 DUP2 LT ISZERO PUSH2 0x455A JUMPI DUP5 DUP5 SUB DUP10 MSTORE DUP2 MLOAD PUSH2 0x453B DUP6 DUP3 PUSH2 0x44D6 JUMP JUMPDEST SWAP5 POP PUSH2 0x4546 DUP4 PUSH2 0x44EA JUMP JUMPDEST SWAP3 POP PUSH1 0x20 DUP11 ADD SWAP10 POP POP PUSH1 0x1 DUP2 ADD SWAP1 POP PUSH2 0x4522 JUMP JUMPDEST POP DUP3 SWAP8 POP DUP8 SWAP6 POP POP POP POP POP POP SWAP3 SWAP2 POP POP JUMP JUMPDEST PUSH1 0x0 PUSH1 0x20 DUP3 ADD SWAP1 POP DUP2 DUP2 SUB PUSH1 0x0 DUP4 ADD MSTORE PUSH2 0x4586 DUP2 DUP5 PUSH2 0x44F7 JUMP JUMPDEST SWAP1 POP SWAP3 SWAP2 POP POP JUMP JUMPDEST PUSH1 0x0 PUSH1 0xC0 DUP3 ADD SWAP1 POP PUSH2 0x45A3 PUSH1 0x0 DUP4 ADD DUP10 PUSH2 0x4181 JUMP JUMPDEST PUSH2 0x45B0 PUSH1 0x20 DUP4 ADD DUP9 PUSH2 0x3EFE JUMP JUMPDEST PUSH2 0x45BD PUSH1 0x40 DUP4 ADD DUP8 PUSH2 0x3EFE JUMP JUMPDEST PUSH2 0x45CA PUSH1 0x60 DUP4 ADD DUP7 PUSH2 0x3EFE JUMP JUMPDEST PUSH2 0x45D7 PUSH1 0x80 DUP4 ADD DUP6 PUSH2 0x3EFE JUMP JUMPDEST PUSH2 0x45E4 PUSH1 0xA0 DUP4 ADD DUP5 PUSH2 0x3EFE JUMP JUMPDEST SWAP8 SWAP7 POP POP POP POP POP POP POP JUMP JUMPDEST PUSH1 0x0 DUP1 PUSH1 0x40 DUP4 DUP6 SUB SLT ISZERO PUSH2 0x4606 JUMPI PUSH2 0x4605 PUSH2 0x3D5B JUMP JUMPDEST JUMPDEST PUSH1 0x0 PUSH2 0x4614 DUP6 DUP3 DUP7 ADD PUSH2 0x3F3F JUMP JUMPDEST SWAP3 POP POP PUSH1 0x20 DUP4 ADD CALLDATALOAD PUSH8 0xFFFFFFFFFFFFFFFF DUP2 GT ISZERO PUSH2 0x4635 JUMPI PUSH2 0x4634 PUSH2 0x3D60 JUMP JUMPDEST JUMPDEST PUSH2 0x4641 DUP6 DUP3 DUP7 ADD PUSH2 0x3E7D JUMP JUMPDEST SWAP2 POP POP SWAP3 POP SWAP3 SWAP1 POP JUMP JUMPDEST PUSH1 0x0 PUSH1 0x60 DUP3 ADD SWAP1 POP PUSH2 0x4660 PUSH1 0x0 DUP4 ADD DUP7 PUSH2 0x4181 JUMP JUMPDEST DUP2 DUP2 SUB PUSH1 0x20 DUP4 ADD MSTORE PUSH2 0x4672 DUP2 DUP6 PUSH2 0x41F1 JUMP JUMPDEST SWAP1 POP PUSH2 0x4681 PUSH1 0x40 DUP4 ADD DUP5 PUSH2 0x3EFE JUMP JUMPDEST SWAP5 SWAP4 POP POP POP POP JUMP JUMPDEST PUSH32 0x4E487B7100000000000000000000000000000000000000000000000000000000 PUSH1 0x0 MSTORE PUSH1 0x22 PUSH1 0x4 MSTORE PUSH1 0x24 PUSH1 0x0 REVERT JUMPDEST PUSH1 0x0 PUSH1 0x2 DUP3 DIV SWAP1 POP PUSH1 0x1 DUP3 AND DUP1 PUSH2 0x46D0 JUMPI PUSH1 0x7F DUP3 AND SWAP2 POP JUMPDEST PUSH1 0x20 DUP3 LT DUP2 SUB PUSH2 0x46E3 JUMPI PUSH2 0x46E2 PUSH2 0x4689 JUMP JUMPDEST JUMPDEST POP SWAP2 SWAP1 POP JUMP JUMPDEST PUSH1 0x0 DUP2 SWAP1 POP DUP2 PUSH1 0x0 MSTORE PUSH1 0x20 PUSH1 0x0 KECCAK256 SWAP1 POP SWAP2 SWAP1 POP JUMP JUMPDEST PUSH1 0x0 PUSH1 0x20 PUSH1 0x1F DUP4 ADD DIV SWAP1 POP SWAP2 SWAP1 POP JUMP JUMPDEST PUSH1 0x0 DUP3 DUP3 SHL SWAP1 POP SWAP3 SWAP2 POP POP JUMP JUMPDEST PUSH1 0x0 PUSH1 0x8 DUP4 MUL PUSH2 0x474B PUSH32 0xFFFFFFFFFFFFFFFFFFFFFFFFFFFFFFFFFFFFFFFFFFFFFFFFFFFFFFFFFFFFFFFF DUP3 PUSH2 0x470E JUMP JUMPDEST PUSH2 0x4755 DUP7 DUP4 PUSH2 0x470E JUMP JUMPDEST SWAP6 POP DUP1 NOT DUP5 AND SWAP4 POP DUP1 DUP7 AND DUP5 OR SWAP3 POP POP POP SWAP4 SWAP3 POP POP POP JUMP JUMPDEST PUSH1 0x0 DUP2 SWAP1 POP SWAP2 SWAP1 POP JUMP JUMPDEST PUSH1 0x0 PUSH2 0x4792 PUSH2 0x478D PUSH2 0x4788 DUP5 PUSH2 0x3EF4 JUMP JUMPDEST PUSH2 0x476D JUMP JUMPDEST PUSH2 0x3EF4 JUMP JUMPDEST SWAP1 POP SWAP2 SWAP1 POP JUMP JUMPDEST PUSH1 0x0 DUP2 SWAP1 POP SWAP2 SWAP1 POP JUMP JUMPDEST PUSH2 0x47AC DUP4 PUSH2 0x4777 JUMP JUMPDEST PUSH2 0x47C0 PUSH2 0x47B8 DUP3 PUSH2 0x4799 JUMP JUMPDEST DUP5 DUP5 SLOAD PUSH2 0x471B JUMP JUMPDEST DUP3 SSTORE POP POP POP POP JUMP JUMPDEST PUSH1 0x0 SWAP1 JUMP JUMPDEST PUSH2 0x47D5 PUSH2 0x47C8 JUMP JUMPDEST PUSH2 0x47E0 DUP2 DUP5 DUP5 PUSH2 0x47A3 JUMP JUMPDEST POP POP POP JUMP JUMPDEST JUMPDEST DUP2 DUP2 LT ISZERO PUSH2 0x4804 JUMPI PUSH2 0x47F9 PUSH1 0x0 DUP3 PUSH2 0x47CD JUMP JUMPDEST PUSH1 0x1 DUP2 ADD SWAP1 POP PUSH2 0x47E6 JUMP JUMPDEST POP POP JUMP JUMPDEST PUSH1 0x1F DUP3 GT ISZERO PUSH2 0x4849 JUMPI PUSH2 0x481A DUP2 PUSH2 0x46E9 JUMP JUMPDEST PUSH2 0x4823 DUP5 PUSH2 0x46FE JUMP JUMPDEST DUP2 ADD PUSH1 0x20 DUP6 LT ISZERO PUSH2 0x4832 JUMPI DUP2 SWAP1 POP JUMPDEST PUSH2 0x4846 PUSH2 0x483E DUP6 PUSH2 0x46FE JUMP JUMPDEST DUP4 ADD DUP3 PUSH2 0x47E5 JUMP JUMPDEST POP POP JUMPDEST POP POP POP JUMP JUMPDEST PUSH1 0x0 DUP3 DUP3 SHR SWAP1 POP SWAP3 SWAP2 POP POP JUMP JUMPDEST PUSH1 0x0 PUSH2 0x486C PUSH1 0x0 NOT DUP5 PUSH1 0x8 MUL PUSH2 0x484E JUMP JUMPDEST NOT DUP1 DUP4 AND SWAP2 POP POP SWAP3 SWAP2 POP POP JUMP JUMPDEST PUSH1 0x0 PUSH2 0x4885 DUP4 DUP4 PUSH2 0x485B JUMP JUMPDEST SWAP2 POP DUP3 PUSH1 0x2 MUL DUP3 OR SWAP1 POP SWAP3 SWAP2 POP POP JUMP JUMPDEST PUSH2 0x489E DUP3 PUSH2 0x41AB JUMP JUMPDEST PUSH8 0xFFFFFFFFFFFFFFFF DUP2 GT ISZERO PUSH2 0x48B7 JUMPI PUSH2 0x48B6 PUSH2 0x3D80 JUMP JUMPDEST JUMPDEST PUSH2 0x48C1 DUP3 SLOAD PUSH2 0x46B8 JUMP JUMPDEST PUSH2 0x48CC DUP3 DUP3 DUP6 PUSH2 0x4808 JUMP JUMPDEST PUSH1 0x0 PUSH1 0x20 SWAP1 POP PUSH1 0x1F DUP4 GT PUSH1 0x1 DUP2 EQ PUSH2 0x48FF JUMPI PUSH1 0x0 DUP5 ISZERO PUSH2 0x48ED JUMPI DUP3 DUP8 ADD MLOAD SWAP1 POP JUMPDEST PUSH2 0x48F7 DUP6 DUP3 PUSH2 0x4879 JUMP JUMPDEST DUP7 SSTORE POP PUSH2 0x495F JUMP JUMPDEST PUSH1 0x1F NOT DUP5 AND PUSH2 0x490D DUP7 PUSH2 0x46E9 JUMP JUMPDEST PUSH1 0x0 JUMPDEST DUP3 DUP2 LT ISZERO PUSH2 0x4935 JUMPI DUP5 DUP10 ADD MLOAD DUP3 SSTORE PUSH1 0x1 DUP3 ADD SWAP2 POP PUSH1 0x20 DUP6 ADD SWAP5 POP PUSH1 0x20 DUP2 ADD SWAP1 POP PUSH2 0x4910 JUMP JUMPDEST DUP7 DUP4 LT ISZERO PUSH2 0x4952 JUMPI DUP5 DUP10 ADD MLOAD PUSH2 0x494E PUSH1 0x1F DUP10 AND DUP3 PUSH2 0x485B JUMP JUMPDEST DUP4 SSTORE POP JUMPDEST PUSH1 0x1 PUSH1 0x2 DUP9 MUL ADD DUP9 SSTORE POP POP POP JUMPDEST POP POP POP POP POP POP JUMP JUMPDEST PUSH1 0x0 PUSH1 0x20 DUP3 ADD SWAP1 POP DUP2 DUP2 SUB PUSH1 0x0 DUP4 ADD MSTORE PUSH2 0x4981 DUP2 DUP5 PUSH2 0x41F1 JUMP JUMPDEST SWAP1 POP SWAP3 SWAP2 POP POP JUMP JUMPDEST PUSH32 0x4E487B7100000000000000000000000000000000000000000000000000000000 PUSH1 0x0 MSTORE PUSH1 0x11 PUSH1 0x4 MSTORE PUSH1 0x24 PUSH1 0x0 REVERT JUMPDEST PUSH1 0x0 PUSH2 0x49C3 DUP3 PUSH2 0x3EF4 JUMP JUMPDEST SWAP2 POP PUSH2 0x49CE DUP4 PUSH2 0x3EF4 JUMP JUMPDEST SWAP3 POP DUP3 DUP3 MUL PUSH2 0x49DC DUP2 PUSH2 0x3EF4 JUMP JUMPDEST SWAP2 POP DUP3 DUP3 DIV DUP5 EQ DUP4 ISZERO OR PUSH2 0x49F3 JUMPI PUSH2 0x49F2 PUSH2 0x4989 JUMP JUMPDEST JUMPDEST POP SWAP3 SWAP2 POP POP JUMP JUMPDEST PUSH32 0x4E487B7100000000000000000000000000000000000000000000000000000000 PUSH1 0x0 MSTORE PUSH1 0x12 PUSH1 0x4 MSTORE PUSH1 0x24 PUSH1 0x0 REVERT JUMPDEST PUSH1 0x0 PUSH2 0x4A34 DUP3 PUSH2 0x3EF4 JUMP JUMPDEST SWAP2 POP PUSH2 0x4A3F DUP4 PUSH2 0x3EF4 JUMP JUMPDEST SWAP3 POP DUP3 PUSH2 0x4A4F JUMPI PUSH2 0x4A4E PUSH2 0x49FA JUMP JUMPDEST JUMPDEST DUP3 DUP3 DIV SWAP1 POP SWAP3 SWAP2 POP POP JUMP JUMPDEST PUSH32 0x4E6F7420617574686F72697A6564000000000000000000000000000000000000 PUSH1 0x0 DUP3 ADD MSTORE POP JUMP JUMPDEST PUSH1 0x0 PUSH2 0x4A90 PUSH1 0xE DUP4 PUSH2 0x41B6 JUMP JUMPDEST SWAP2 POP PUSH2 0x4A9B DUP3 PUSH2 0x4A5A JUMP JUMPDEST PUSH1 0x20 DUP3 ADD SWAP1 POP SWAP2 SWAP1 POP JUMP JUMPDEST PUSH1 0x0 PUSH1 0x20 DUP3 ADD SWAP1 POP DUP2 DUP2 SUB PUSH1 0x0 DUP4 ADD MSTORE PUSH2 0x4ABF DUP2 PUSH2 0x4A83 JUMP JUMPDEST SWAP1 POP SWAP2 SWAP1 POP JUMP JUMPDEST PUSH32 0x496E76616C6964206D696E74206C696D69740000000000000000000000000000 PUSH1 0x0 DUP3 ADD MSTORE POP JUMP JUMPDEST PUSH1 0x0 PUSH2 0x4AFC PUSH1 0x12 DUP4 PUSH2 0x41B6 JUMP JUMPDEST SWAP2 POP PUSH2 0x4B07 DUP3 PUSH2 0x4AC6 JUMP JUMPDEST PUSH1 0x20 DUP3 ADD SWAP1 POP SWAP2 SWAP1 POP JUMP JUMPDEST PUSH1 0x0 PUSH1 0x20 DUP3 ADD SWAP1 POP DUP2 DUP2 SUB PUSH1 0x0 DUP4 ADD MSTORE PUSH2 0x4B2B DUP2 PUSH2 0x4AEF JUMP JUMPDEST SWAP1 POP SWAP2 SWAP1 POP JUMP JUMPDEST PUSH32 0x566964656F20646F65736E277420657869737400000000000000000000000000 PUSH1 0x0 DUP3 ADD MSTORE POP JUMP JUMPDEST PUSH1 0x0 PUSH2 0x4B68 PUSH1 0x13 DUP4 PUSH2 0x41B6 JUMP JUMPDEST SWAP2 POP PUSH2 0x4B73 DUP3 PUSH2 0x4B32 JUMP JUMPDEST PUSH1 0x20 DUP3 ADD SWAP1 POP SWAP2 SWAP1 POP JUMP JUMPDEST PUSH1 0x0 PUSH1 0x20 DUP3 ADD SWAP1 POP DUP2 DUP2 SUB PUSH1 0x0 DUP4 ADD MSTORE PUSH2 0x4B97 DUP2 PUSH2 0x4B5B JUMP JUMPDEST SWAP1 POP SWAP2 SWAP1 POP JUMP JUMPDEST PUSH32 0x43616E6E6F7420756E6C696B6520766964656F00000000000000000000000000 PUSH1 0x0 DUP3 ADD MSTORE POP JUMP JUMPDEST PUSH1 0x0 PUSH2 0x4BD4 PUSH1 0x13 DUP4 PUSH2 0x41B6 JUMP JUMPDEST SWAP2 POP PUSH2 0x4BDF DUP3 PUSH2 0x4B9E JUMP JUMPDEST PUSH1 0x20 DUP3 ADD SWAP1 POP SWAP2 SWAP1 POP JUMP JUMPDEST PUSH1 0x0 PUSH1 0x20 DUP3 ADD SWAP1 POP DUP2 DUP2 SUB PUSH1 0x0 DUP4 ADD MSTORE PUSH2 0x4C03 DUP2 PUSH2 0x4BC7 JUMP JUMPDEST SWAP1 POP SWAP2 SWAP1 POP JUMP JUMPDEST PUSH32 0x4E6F206C696B657320746F2072656D6F76650000000000000000000000000000 PUSH1 0x0 DUP3 ADD MSTORE POP JUMP JUMPDEST PUSH1 0x0 PUSH2 0x4C40 PUSH1 0x12 DUP4 PUSH2 0x41B6 JUMP JUMPDEST SWAP2 POP PUSH2 0x4C4B DUP3 PUSH2 0x4C0A JUMP JUMPDEST PUSH1 0x20 DUP3 ADD SWAP1 POP SWAP2 SWAP1 POP JUMP JUMPDEST PUSH1 0x0 PUSH1 0x20 DUP3 ADD SWAP1 POP DUP2 DUP2 SUB PUSH1 0x0 DUP4 ADD MSTORE PUSH2 0x4C6F DUP2 PUSH2 0x4C33 JUMP JUMPDEST SWAP1 POP SWAP2 SWAP1 POP JUMP JUMPDEST PUSH1 0x0 PUSH2 0x4C81 DUP3 PUSH2 0x3EF4 JUMP JUMPDEST SWAP2 POP PUSH1 0x0 DUP3 SUB PUSH2 0x4C94 JUMPI PUSH2 0x4C93 PUSH2 0x4989 JUMP JUMPDEST JUMPDEST PUSH1 0x1 DUP3 SUB SWAP1 POP SWAP2 SWAP1 POP JUMP JUMPDEST PUSH1 0x0 PUSH2 0x4CAA DUP3 PUSH2 0x3EF4 JUMP JUMPDEST SWAP2 POP PUSH2 0x4CB5 DUP4 PUSH2 0x3EF4 JUMP JUMPDEST SWAP3 POP DUP3 DUP3 ADD SWAP1 POP DUP1 DUP3 GT ISZERO PUSH2 0x4CCD JUMPI PUSH2 0x4CCC PUSH2 0x4989 JUMP JUMPDEST JUMPDEST SWAP3 SWAP2 POP POP JUMP JUMPDEST PUSH32 0x496E76616C69642073706C697420726174696F00000000000000000000000000 PUSH1 0x0 DUP3 ADD MSTORE POP JUMP JUMPDEST PUSH1 0x0 PUSH2 0x4D09 PUSH1 0x13 DUP4 PUSH2 0x41B6 JUMP JUMPDEST SWAP2 POP PUSH2 0x4D14 DUP3 PUSH2 0x4CD3 JUMP JUMPDEST PUSH1 0x20 DUP3 ADD SWAP1 POP SWAP2 SWAP1 POP JUMP JUMPDEST PUSH1 0x0 PUSH1 0x20 DUP3 ADD SWAP1 POP DUP2 DUP2 SUB PUSH1 0x0 DUP4 ADD MSTORE PUSH2 0x4D38 DUP2 PUSH2 0x4CFC JUMP JUMPDEST SWAP1 POP SWAP2 SWAP1 POP JUMP JUMPDEST PUSH1 0x0 PUSH1 0x60 DUP3 ADD SWAP1 POP PUSH2 0x4D54 PUSH1 0x0 DUP4 ADD DUP7 PUSH2 0x3EFE JUMP JUMPDEST PUSH2 0x4D61 PUSH1 0x20 DUP4 ADD DUP6 PUSH2 0x3EFE JUMP JUMPDEST PUSH2 0x4D6E PUSH1 0x40 DUP4 ADD DUP5 PUSH2 0x3EFE JUMP JUMPDEST SWAP5 SWAP4 POP POP POP POP JUMP JUMPDEST PUSH32 0x4E6F7420666F6C6C6F77696E672063726561746F720000000000000000000000 PUSH1 0x0 DUP3 ADD MSTORE POP JUMP JUMPDEST PUSH1 0x0 PUSH2 0x4DAC PUSH1 0x15 DUP4 PUSH2 0x41B6 JUMP JUMPDEST SWAP2 POP PUSH2 0x4DB7 DUP3 PUSH2 0x4D76 JUMP JUMPDEST PUSH1 0x20 DUP3 ADD SWAP1 POP SWAP2 SWAP1 POP JUMP JUMPDEST PUSH1 0x0 PUSH1 0x20 DUP3 ADD SWAP1 POP DUP2 DUP2 SUB PUSH1 0x0 DUP4 ADD MSTORE PUSH2 0x4DDB DUP2 PUSH2 0x4D9F JUMP JUMPDEST SWAP1 POP SWAP2 SWAP1 POP JUMP JUMPDEST PUSH32 0x4E6F20666F6C6C6F7765727320746F2072656D6F766500000000000000000000 PUSH1 0x0 DUP3 ADD MSTORE POP JUMP JUMPDEST PUSH1 0x0 PUSH2 0x4E18 PUSH1 0x16 DUP4 PUSH2 0x41B6 JUMP JUMPDEST SWAP2 POP PUSH2 0x4E23 DUP3 PUSH2 0x4DE2 JUMP JUMPDEST PUSH1 0x20 DUP3 ADD SWAP1 POP SWAP2 SWAP1 POP JUMP JUMPDEST PUSH1 0x0 PUSH1 0x20 DUP3 ADD SWAP1 POP DUP2 DUP2 SUB PUSH1 0x0 DUP4 ADD MSTORE PUSH2 0x4E47 DUP2 PUSH2 0x4E0B JUMP JUMPDEST SWAP1 POP SWAP2 SWAP1 POP JUMP JUMPDEST PUSH32 0x496E76616C696420656D657267656E6379207072696365000000000000000000 PUSH1 0x0 DUP3 ADD MSTORE POP JUMP JUMPDEST PUSH1 0x0 PUSH2 0x4E84 PUSH1 0x17 DUP4 PUSH2 0x41B6 JUMP JUMPDEST SWAP2 POP PUSH2 0x4E8F DUP3 PUSH2 0x4E4E JUMP JUMPDEST PUSH1 0x20 DUP3 ADD SWAP1 POP SWAP2 SWAP1 POP JUMP JUMPDEST PUSH1 0x0 PUSH1 0x20 DUP3 ADD SWAP1 POP DUP2 DUP2 SUB PUSH1 0x0 DUP4 ADD MSTORE PUSH2 0x4EB3 DUP2 PUSH2 0x4E77 JUMP JUMPDEST SWAP1 POP SWAP2 SWAP1 POP JUMP JUMPDEST PUSH1 0x0 PUSH1 0x40 DUP3 ADD SWAP1 POP PUSH2 0x4ECF PUSH1 0x0 DUP4 ADD DUP6 PUSH2 0x3EFE JUMP JUMPDEST PUSH2 0x4EDC PUSH1 0x20 DUP4 ADD DUP5 PUSH2 0x4157 JUMP JUMPDEST SWAP4 SWAP3 POP POP POP JUMP JUMPDEST PUSH32 0x766964656F20616C7265616479206C696B656400000000000000000000000000 PUSH1 0x0 DUP3 ADD MSTORE POP JUMP JUMPDEST PUSH1 0x0 PUSH2 0x4F19 PUSH1 0x13 DUP4 PUSH2 0x41B6 JUMP JUMPDEST SWAP2 POP PUSH2 0x4F24 DUP3 PUSH2 0x4EE3 JUMP JUMPDEST PUSH1 0x20 DUP3 ADD SWAP1 POP SWAP2 SWAP1 POP JUMP JUMPDEST PUSH1 0x0 PUSH1 0x20 DUP3 ADD SWAP1 POP DUP2 DUP2 SUB PUSH1 0x0 DUP4 ADD MSTORE PUSH2 0x4F48 DUP2 PUSH2 0x4F0C JUMP JUMPDEST SWAP1 POP SWAP2 SWAP1 POP JUMP JUMPDEST PUSH1 0x0 PUSH2 0x4F5A DUP3 PUSH2 0x3EF4 JUMP JUMPDEST SWAP2 POP PUSH32 0xFFFFFFFFFFFFFFFFFFFFFFFFFFFFFFFFFFFFFFFFFFFFFFFFFFFFFFFFFFFFFFFF DUP3 SUB PUSH2 0x4F8C JUMPI PUSH2 0x4F8B PUSH2 0x4989 JUMP JUMPDEST JUMPDEST PUSH1 0x1 DUP3 ADD SWAP1 POP SWAP2 SWAP1 POP JUMP JUMPDEST PUSH1 0x0 DUP2 SWAP1 POP SWAP3 SWAP2 POP POP JUMP JUMPDEST POP JUMP JUMPDEST PUSH1 0x0 PUSH2 0x4FB2 PUSH1 0x0 DUP4 PUSH2 0x4F97 JUMP JUMPDEST SWAP2 POP PUSH2 0x4FBD DUP3 PUSH2 0x4FA2 JUMP JUMPDEST PUSH1 0x0 DUP3 ADD SWAP1 POP SWAP2 SWAP1 POP JUMP JUMPDEST PUSH1 0x0 PUSH2 0x4FD3 DUP3 PUSH2 0x4FA5 JUMP JUMPDEST SWAP2 POP DUP2 SWAP1 POP SWAP2 SWAP1 POP JUMP JUMPDEST PUSH32 0x7769746864726177206661696C65640000000000000000000000000000000000 PUSH1 0x0 DUP3 ADD MSTORE POP JUMP JUMPDEST PUSH1 0x0 PUSH2 0x5013 PUSH1 0xF DUP4 PUSH2 0x41B6 JUMP JUMPDEST SWAP2 POP PUSH2 0x501E DUP3 PUSH2 0x4FDD JUMP JUMPDEST PUSH1 0x20 DUP3 ADD SWAP1 POP SWAP2 SWAP1 POP JUMP JUMPDEST PUSH1 0x0 PUSH1 0x20 DUP3 ADD SWAP1 POP DUP2 DUP2 SUB PUSH1 0x0 DUP4 ADD MSTORE PUSH2 0x5042 DUP2 PUSH2 0x5006 JUMP JUMPDEST SWAP1 POP SWAP2 SWAP1 POP JUMP JUMPDEST PUSH32 0x43616E6E6F7420666F6C6C6F772073656C660000000000000000000000000000 PUSH1 0x0 DUP3 ADD MSTORE POP JUMP JUMPDEST PUSH1 0x0 PUSH2 0x507F PUSH1 0x12 DUP4 PUSH2 0x41B6 JUMP JUMPDEST SWAP2 POP PUSH2 0x508A DUP3 PUSH2 0x5049 JUMP JUMPDEST PUSH1 0x20 DUP3 ADD SWAP1 POP SWAP2 SWAP1 POP JUMP JUMPDEST PUSH1 0x0 PUSH1 0x20 DUP3 ADD SWAP1 POP DUP2 DUP2 SUB PUSH1 0x0 DUP4 ADD MSTORE PUSH2 0x50AE DUP2 PUSH2 0x5072 JUMP JUMPDEST SWAP1 POP SWAP2 SWAP1 POP JUMP JUMPDEST PUSH32 0x416C726561647920666F6C6C6F77696E67000000000000000000000000000000 PUSH1 0x0 DUP3 ADD MSTORE POP JUMP JUMPDEST PUSH1 0x0 PUSH2 0x50EB PUSH1 0x11 DUP4 PUSH2 0x41B6 JUMP JUMPDEST SWAP2 POP PUSH2 0x50F6 DUP3 PUSH2 0x50B5 JUMP JUMPDEST PUSH1 0x20 DUP3 ADD SWAP1 POP SWAP2 SWAP1 POP JUMP JUMPDEST PUSH1 0x0 PUSH1 0x20 DUP3 ADD SWAP1 POP DUP2 DUP2 SUB PUSH1 0x0 DUP4 ADD MSTORE PUSH2 0x511A DUP2 PUSH2 0x50DE JUMP JUMPDEST SWAP1 POP SWAP2 SWAP1 POP JUMP JUMPDEST PUSH32 0x496E73756666696369656E742075706C6F616420666565000000000000000000 PUSH1 0x0 DUP3 ADD MSTORE POP JUMP JUMPDEST PUSH1 0x0 PUSH2 0x5157 PUSH1 0x17 DUP4 PUSH2 0x41B6 JUMP JUMPDEST SWAP2 POP PUSH2 0x5162 DUP3 PUSH2 0x5121 JUMP JUMPDEST PUSH1 0x20 DUP3 ADD SWAP1 POP SWAP2 SWAP1 POP JUMP JUMPDEST PUSH1 0x0 PUSH1 0x20 DUP3 ADD SWAP1 POP DUP2 DUP2 SUB PUSH1 0x0 DUP4 ADD MSTORE PUSH2 0x5186 DUP2 PUSH2 0x514A JUMP JUMPDEST SWAP1 POP SWAP2 SWAP1 POP JUMP JUMPDEST PUSH32 0x496E76616C6964204D696E74204C696D69742100000000000000000000000000 PUSH1 0x0 DUP3 ADD MSTORE POP JUMP JUMPDEST PUSH1 0x0 PUSH2 0x51C3 PUSH1 0x13 DUP4 PUSH2 0x41B6 JUMP JUMPDEST SWAP2 POP PUSH2 0x51CE DUP3 PUSH2 0x518D JUMP JUMPDEST PUSH1 0x20 DUP3 ADD SWAP1 POP SWAP2 SWAP1 POP JUMP JUMPDEST PUSH1 0x0 PUSH1 0x20 DUP3 ADD SWAP1 POP DUP2 DUP2 SUB PUSH1 0x0 DUP4 ADD MSTORE PUSH2 0x51F2 DUP2 PUSH2 0x51B6 JUMP JUMPDEST SWAP1 POP SWAP2 SWAP1 POP JUMP JUMPDEST PUSH32 0x4D696E74206C696D697420746F6F206869676800000000000000000000000000 PUSH1 0x0 DUP3 ADD MSTORE POP JUMP JUMPDEST PUSH1 0x0 PUSH2 0x522F PUSH1 0x13 DUP4 PUSH2 0x41B6 JUMP JUMPDEST SWAP2 POP PUSH2 0x523A DUP3 PUSH2 0x51F9 JUMP JUMPDEST PUSH1 0x20 DUP3 ADD SWAP1 POP SWAP2 SWAP1 POP JUMP JUMPDEST PUSH1 0x0 PUSH1 0x20 DUP3 ADD SWAP1 POP DUP2 DUP2 SUB PUSH1 0x0 DUP4 ADD MSTORE PUSH2 0x525E DUP2 PUSH2 0x5222 JUMP JUMPDEST SWAP1 POP SWAP2 SWAP1 POP JUMP JUMPDEST PUSH32 0x4D696E7420707269636520746F6F206C6F772100000000000000000000000000 PUSH1 0x0 DUP3 ADD MSTORE POP JUMP JUMPDEST PUSH1 0x0 PUSH2 0x529B PUSH1 0x13 DUP4 PUSH2 0x41B6 JUMP JUMPDEST SWAP2 POP PUSH2 0x52A6 DUP3 PUSH2 0x5265 JUMP JUMPDEST PUSH1 0x20 DUP3 ADD SWAP1 POP SWAP2 SWAP1 POP JUMP JUMPDEST PUSH1 0x0 PUSH1 0x20 DUP3 ADD SWAP1 POP DUP2 DUP2 SUB PUSH1 0x0 DUP4 ADD MSTORE PUSH2 0x52CA DUP2 PUSH2 0x528E JUMP JUMPDEST SWAP1 POP SWAP2 SWAP1 POP JUMP JUMPDEST PUSH32 0x4D696E7420707269636520746F6F206869676800000000000000000000000000 PUSH1 0x0 DUP3 ADD MSTORE POP JUMP JUMPDEST PUSH1 0x0 PUSH2 0x5307 PUSH1 0x13 DUP4 PUSH2 0x41B6 JUMP JUMPDEST SWAP2 POP PUSH2 0x5312 DUP3 PUSH2 0x52D1 JUMP JUMPDEST PUSH1 0x20 DUP3 ADD SWAP1 POP SWAP2 SWAP1 POP JUMP JUMPDEST PUSH1 0x0 PUSH1 0x20 DUP3 ADD SWAP1 POP DUP2 DUP2 SUB PUSH1 0x0 DUP4 ADD MSTORE PUSH2 0x5336 DUP2 PUSH2 0x52FA JUMP JUMPDEST SWAP1 POP SWAP2 SWAP1 POP JUMP JUMPDEST PUSH32 0x566964656F20616C726561647920657869737473210000000000000000000000 PUSH1 0x0 DUP3 ADD MSTORE POP JUMP JUMPDEST PUSH1 0x0 PUSH2 0x5373 PUSH1 0x15 DUP4 PUSH2 0x41B6 JUMP JUMPDEST SWAP2 POP PUSH2 0x537E DUP3 PUSH2 0x533D JUMP JUMPDEST PUSH1 0x20 DUP3 ADD SWAP1 POP SWAP2 SWAP1 POP JUMP JUMPDEST PUSH1 0x0 PUSH1 0x20 DUP3 ADD SWAP1 POP DUP2 DUP2 SUB PUSH1 0x0 DUP4 ADD MSTORE PUSH2 0x53A2 DUP2 PUSH2 0x5366 JUMP JUMPDEST SWAP1 POP SWAP2 SWAP1 POP JUMP JUMPDEST PUSH32 0x496E76616C69642074697020616D6F756E740000000000000000000000000000 PUSH1 0x0 DUP3 ADD MSTORE POP JUMP JUMPDEST PUSH1 0x0 PUSH2 0x53DF PUSH1 0x12 DUP4 PUSH2 0x41B6 JUMP JUMPDEST SWAP2 POP PUSH2 0x53EA DUP3 PUSH2 0x53A9 JUMP JUMPDEST PUSH1 0x20 DUP3 ADD SWAP1 POP SWAP2 SWAP1 POP JUMP JUMPDEST PUSH1 0x0 PUSH1 0x20 DUP3 ADD SWAP1 POP DUP2 DUP2 SUB PUSH1 0x0 DUP4 ADD MSTORE PUSH2 0x540E DUP2 PUSH2 0x53D2 JUMP JUMPDEST SWAP1 POP SWAP2 SWAP1 POP JUMP JUMPDEST PUSH32 0x496E76616C69642063726561746F722061646472657373000000000000000000 PUSH1 0x0 DUP3 ADD MSTORE POP JUMP JUMPDEST PUSH1 0x0 PUSH2 0x544B PUSH1 0x17 DUP4 PUSH2 0x41B6 JUMP JUMPDEST SWAP2 POP PUSH2 0x5456 DUP3 PUSH2 0x5415 JUMP JUMPDEST PUSH1 0x20 DUP3 ADD SWAP1 POP SWAP2 SWAP1 POP JUMP JUMPDEST PUSH1 0x0 PUSH1 0x20 DUP3 ADD SWAP1 POP DUP2 DUP2 SUB PUSH1 0x0 DUP4 ADD MSTORE PUSH2 0x547A DUP2 PUSH2 0x543E JUMP JUMPDEST SWAP1 POP SWAP2 SWAP1 POP JUMP JUMPDEST PUSH32 0x4661696C656420746F207469702063726561746F720000000000000000000000 PUSH1 0x0 DUP3 ADD MSTORE POP JUMP JUMPDEST PUSH1 0x0 PUSH2 0x54B7 PUSH1 0x15 DUP4 PUSH2 0x41B6 JUMP JUMPDEST SWAP2 POP PUSH2 0x54C2 DUP3 PUSH2 0x5481 JUMP JUMPDEST PUSH1 0x20 DUP3 ADD SWAP1 POP SWAP2 SWAP1 POP JUMP JUMPDEST PUSH1 0x0 PUSH1 0x20 DUP3 ADD SWAP1 POP DUP2 DUP2 SUB PUSH1 0x0 DUP4 ADD MSTORE PUSH2 0x54E6 DUP2 PUSH2 0x54AA JUMP JUMPDEST SWAP1 POP SWAP2 SWAP1 POP JUMP JUMPDEST PUSH1 0x0 PUSH10 0xFFFFFFFFFFFFFFFFFFFF DUP3 AND SWAP1 POP SWAP2 SWAP1 POP JUMP JUMPDEST PUSH2 0x550C DUP2 PUSH2 0x54ED JUMP JUMPDEST DUP2 EQ PUSH2 0x5517 JUMPI PUSH1 0x0 DUP1 REVERT JUMPDEST POP JUMP JUMPDEST PUSH1 0x0 DUP2 MLOAD SWAP1 POP PUSH2 0x5529 DUP2 PUSH2 0x5503 JUMP JUMPDEST SWAP3 SWAP2 POP POP JUMP JUMPDEST PUSH1 0x0 DUP2 SWAP1 POP SWAP2 SWAP1 POP JUMP JUMPDEST PUSH2 0x5542 DUP2 PUSH2 0x552F JUMP JUMPDEST DUP2 EQ PUSH2 0x554D JUMPI PUSH1 0x0 DUP1 REVERT JUMPDEST POP JUMP JUMPDEST PUSH1 0x0 DUP2 MLOAD SWAP1 POP PUSH2 0x555F DUP2 PUSH2 0x5539 JUMP JUMPDEST SWAP3 SWAP2 POP POP JUMP JUMPDEST PUSH1 0x0 DUP2 MLOAD SWAP1 POP PUSH2 0x5574 DUP2 PUSH2 0x3F28 JUMP JUMPDEST SWAP3 SWAP2 POP POP JUMP JUMPDEST PUSH1 0x0 DUP1 PUSH1 0x0 DUP1 PUSH1 0x0 PUSH1 0xA0 DUP7 DUP9 SUB SLT ISZERO PUSH2 0x5596 JUMPI PUSH2 0x5595 PUSH2 0x3D5B JUMP JUMPDEST JUMPDEST PUSH1 0x0 PUSH2 0x55A4 DUP9 DUP3 DUP10 ADD PUSH2 0x551A JUMP JUMPDEST SWAP6 POP POP PUSH1 0x20 PUSH2 0x55B5 DUP9 DUP3 DUP10 ADD PUSH2 0x5550 JUMP JUMPDEST SWAP5 POP POP PUSH1 0x40 PUSH2 0x55C6 DUP9 DUP3 DUP10 ADD PUSH2 0x5565 JUMP JUMPDEST SWAP4 POP POP PUSH1 0x60 PUSH2 0x55D7 DUP9 DUP3 DUP10 ADD PUSH2 0x5565 JUMP JUMPDEST SWAP3 POP POP PUSH1 0x80 PUSH2 0x55E8 DUP9 DUP3 DUP10 ADD PUSH2 0x551A JUMP JUMPDEST SWAP2 POP POP SWAP3 SWAP6 POP SWAP3 SWAP6 SWAP1 SWAP4 POP JUMP JUMPDEST PUSH32 0x496E76616C696420726F756E6420494400000000000000000000000000000000 PUSH1 0x0 DUP3 ADD MSTORE POP JUMP JUMPDEST PUSH1 0x0 PUSH2 0x562B PUSH1 0x10 DUP4 PUSH2 0x41B6 JUMP JUMPDEST SWAP2 POP PUSH2 0x5636 DUP3 PUSH2 0x55F5 JUMP JUMPDEST PUSH1 0x20 DUP3 ADD SWAP1 POP SWAP2 SWAP1 POP JUMP JUMPDEST PUSH1 0x0 PUSH1 0x20 DUP3 ADD SWAP1 POP DUP2 DUP2 SUB PUSH1 0x0 DUP4 ADD MSTORE PUSH2 0x565A DUP2 PUSH2 0x561E JUMP JUMPDEST SWAP1 POP SWAP2 SWAP1 POP JUMP JUMPDEST PUSH32 0x5374616C65207072696365206461746100000000000000000000000000000000 PUSH1 0x0 DUP3 ADD MSTORE POP JUMP JUMPDEST PUSH1 0x0 PUSH2 0x5697 PUSH1 0x10 DUP4 PUSH2 0x41B6 JUMP JUMPDEST SWAP2 POP PUSH2 0x56A2 DUP3 PUSH2 0x5661 JUMP JUMPDEST PUSH1 0x20 DUP3 ADD SWAP1 POP SWAP2 SWAP1 POP JUMP JUMPDEST PUSH1 0x0 PUSH1 0x20 DUP3 ADD SWAP1 POP DUP2 DUP2 SUB PUSH1 0x0 DUP4 ADD MSTORE PUSH2 0x56C6 DUP2 PUSH2 0x568A JUMP JUMPDEST SWAP1 POP SWAP2 SWAP1 POP JUMP JUMPDEST PUSH32 0x496E76616C69642070726963652066726F6D206F7261636C6500000000000000 PUSH1 0x0 DUP3 ADD MSTORE POP JUMP JUMPDEST PUSH1 0x0 PUSH2 0x5703 PUSH1 0x19 DUP4 PUSH2 0x41B6 JUMP JUMPDEST SWAP2 POP PUSH2 0x570E DUP3 PUSH2 0x56CD JUMP JUMPDEST PUSH1 0x20 DUP3 ADD SWAP1 POP SWAP2 SWAP1 POP JUMP JUMPDEST PUSH1 0x0 PUSH1 0x20 DUP3 ADD SWAP1 POP DUP2 DUP2 SUB PUSH1 0x0 DUP4 ADD MSTORE PUSH2 0x5732 DUP2 PUSH2 0x56F6 JUMP JUMPDEST SWAP1 POP SWAP2 SWAP1 POP JUMP JUMPDEST PUSH1 0x0 PUSH2 0x5744 DUP3 PUSH2 0x3EF4 JUMP JUMPDEST SWAP2 POP PUSH2 0x574F DUP4 PUSH2 0x3EF4 JUMP JUMPDEST SWAP3 POP DUP3 DUP3 SUB SWAP1 POP DUP2 DUP2 GT ISZERO PUSH2 0x5767 JUMPI PUSH2 0x5766 PUSH2 0x4989 JUMP JUMPDEST JUMPDEST SWAP3 SWAP2 POP POP JUMP JUMPDEST PUSH32 0x5072696365206461746120746F6F206F6C640000000000000000000000000000 PUSH1 0x0 DUP3 ADD MSTORE POP JUMP JUMPDEST PUSH1 0x0 PUSH2 0x57A3 PUSH1 0x12 DUP4 PUSH2 0x41B6 JUMP JUMPDEST SWAP2 POP PUSH2 0x57AE DUP3 PUSH2 0x576D JUMP JUMPDEST PUSH1 0x20 DUP3 ADD SWAP1 POP SWAP2 SWAP1 POP JUMP JUMPDEST PUSH1 0x0 PUSH1 0x20 DUP3 ADD SWAP1 POP DUP2 DUP2 SUB PUSH1 0x0 DUP4 ADD MSTORE PUSH2 0x57D2 DUP2 PUSH2 0x5796 JUMP JUMPDEST SWAP1 POP SWAP2 SWAP1 POP JUMP JUMPDEST PUSH32 0x46656520697320746F6F20686967680000000000000000000000000000000000 PUSH1 0x0 DUP3 ADD MSTORE POP JUMP JUMPDEST PUSH1 0x0 PUSH2 0x580F PUSH1 0xF DUP4 PUSH2 0x41B6 JUMP JUMPDEST SWAP2 POP PUSH2 0x581A DUP3 PUSH2 0x57D9 JUMP JUMPDEST PUSH1 0x20 DUP3 ADD SWAP1 POP SWAP2 SWAP1 POP JUMP JUMPDEST PUSH1 0x0 PUSH1 0x20 DUP3 ADD SWAP1 POP DUP2 DUP2 SUB PUSH1 0x0 DUP4 ADD MSTORE PUSH2 0x583E DUP2 PUSH2 0x5802 JUMP JUMPDEST SWAP1 POP SWAP2 SWAP1 POP JUMP JUMPDEST PUSH32 0x496E636F7272656374206D696E74206665650000000000000000000000000000 PUSH1 0x0 DUP3 ADD MSTORE POP JUMP JUMPDEST PUSH1 0x0 PUSH2 0x587B PUSH1 0x12 DUP4 PUSH2 0x41B6 JUMP JUMPDEST SWAP2 POP PUSH2 0x5886 DUP3 PUSH2 0x5845 JUMP JUMPDEST PUSH1 0x20 DUP3 ADD SWAP1 POP SWAP2 SWAP1 POP JUMP JUMPDEST PUSH1 0x0 PUSH1 0x20 DUP3 ADD SWAP1 POP DUP2 DUP2 SUB PUSH1 0x0 DUP4 ADD MSTORE PUSH2 0x58AA DUP2 PUSH2 0x586E JUMP JUMPDEST SWAP1 POP SWAP2 SWAP1 POP JUMP JUMPDEST PUSH32 0x4D696E74206C696D697420726561636865640000000000000000000000000000 PUSH1 0x0 DUP3 ADD MSTORE POP JUMP JUMPDEST PUSH1 0x0 PUSH2 0x58E7 PUSH1 0x12 DUP4 PUSH2 0x41B6 JUMP JUMPDEST SWAP2 POP PUSH2 0x58F2 DUP3 PUSH2 0x58B1 JUMP JUMPDEST PUSH1 0x20 DUP3 ADD SWAP1 POP SWAP2 SWAP1 POP JUMP JUMPDEST PUSH1 0x0 PUSH1 0x20 DUP3 ADD SWAP1 POP DUP2 DUP2 SUB PUSH1 0x0 DUP4 ADD MSTORE PUSH2 0x5916 DUP2 PUSH2 0x58DA JUMP JUMPDEST SWAP1 POP SWAP2 SWAP1 POP JUMP JUMPDEST PUSH32 0x496E76616C696420616464726573730000000000000000000000000000000000 PUSH1 0x0 DUP3 ADD MSTORE POP JUMP JUMPDEST PUSH1 0x0 PUSH2 0x5953 PUSH1 0xF DUP4 PUSH2 0x41B6 JUMP JUMPDEST SWAP2 POP PUSH2 0x595E DUP3 PUSH2 0x591D JUMP JUMPDEST PUSH1 0x20 DUP3 ADD SWAP1 POP SWAP2 SWAP1 POP JUMP JUMPDEST PUSH1 0x0 PUSH1 0x20 DUP3 ADD SWAP1 POP DUP2 DUP2 SUB PUSH1 0x0 DUP4 ADD MSTORE PUSH2 0x5982 DUP2 PUSH2 0x5946 JUMP JUMPDEST SWAP1 POP SWAP2 SWAP1 POP JUMP JUMPDEST PUSH32 0x496E76616C6964204D696E742066656500000000000000000000000000000000 PUSH1 0x0 DUP3 ADD MSTORE POP JUMP JUMPDEST PUSH1 0x0 PUSH2 0x59BF PUSH1 0x10 DUP4 PUSH2 0x41B6 JUMP JUMPDEST SWAP2 POP PUSH2 0x59CA DUP3 PUSH2 0x5989 JUMP JUMPDEST PUSH1 0x20 DUP3 ADD SWAP1 POP SWAP2 SWAP1 POP JUMP JUMPDEST PUSH1 0x0 PUSH1 0x20 DUP3 ADD SWAP1 POP DUP2 DUP2 SUB PUSH1 0x0 DUP4 ADD MSTORE PUSH2 0x59EE DUP2 PUSH2 0x59B2 JUMP JUMPDEST SWAP1 POP SWAP2 SWAP1 POP JUMP JUMPDEST PUSH32 0x4E487B7100000000000000000000000000000000000000000000000000000000 PUSH1 0x0 MSTORE PUSH1 0x32 PUSH1 0x4 MSTORE PUSH1 0x24 PUSH1 0x0 REVERT JUMPDEST PUSH32 0x43726561746F72207061796D656E74206661696C656400000000000000000000 PUSH1 0x0 DUP3 ADD MSTORE POP JUMP JUMPDEST PUSH1 0x0 PUSH2 0x5A5A PUSH1 0x16 DUP4 PUSH2 0x41B6 JUMP JUMPDEST SWAP2 POP PUSH2 0x5A65 DUP3 PUSH2 0x5A24 JUMP JUMPDEST PUSH1 0x20 DUP3 ADD SWAP1 POP SWAP2 SWAP1 POP JUMP JUMPDEST PUSH1 0x0 PUSH1 0x20 DUP3 ADD SWAP1 POP DUP2 DUP2 SUB PUSH1 0x0 DUP4 ADD MSTORE PUSH2 0x5A89 DUP2 PUSH2 0x5A4D JUMP JUMPDEST SWAP1 POP SWAP2 SWAP1 POP JUMP JUMPDEST PUSH32 0x4D696E746572207061796D656E74206661696C65640000000000000000000000 PUSH1 0x0 DUP3 ADD MSTORE POP JUMP JUMPDEST PUSH1 0x0 PUSH2 0x5AC6 PUSH1 0x15 DUP4 PUSH2 0x41B6 JUMP JUMPDEST SWAP2 POP PUSH2 0x5AD1 DUP3 PUSH2 0x5A90 JUMP JUMPDEST PUSH1 0x20 DUP3 ADD SWAP1 POP SWAP2 SWAP1 POP JUMP JUMPDEST PUSH1 0x0 PUSH1 0x20 DUP3 ADD SWAP1 POP DUP2 DUP2 SUB PUSH1 0x0 DUP4 ADD MSTORE PUSH2 0x5AF5 DUP2 PUSH2 0x5AB9 JUMP JUMPDEST SWAP1 POP SWAP2 SWAP1 POP JUMP JUMPDEST PUSH32 0x50726F6A656374207061796D656E74206661696C656400000000000000000000 PUSH1 0x0 DUP3 ADD MSTORE POP JUMP JUMPDEST PUSH1 0x0 PUSH2 0x5B32 PUSH1 0x16 DUP4 PUSH2 0x41B6 JUMP JUMPDEST SWAP2 POP PUSH2 0x5B3D DUP3 PUSH2 0x5AFC JUMP JUMPDEST PUSH1 0x20 DUP3 ADD SWAP1 POP SWAP2 SWAP1 POP JUMP JUMPDEST PUSH1 0x0 PUSH1 0x20 DUP3 ADD SWAP1 POP DUP2 DUP2 SUB PUSH1 0x0 DUP4 ADD MSTORE PUSH2 0x5B61 DUP2 PUSH2 0x5B25 JUMP JUMPDEST SWAP1 POP SWAP2 SWAP1 POP JUMP INVALID LOG2 PUSH5 0x6970667358 0x22 SLT KECCAK256 0xF8 0xA8 0xF8 0xAE SSTORE PUSH17 0x2AA5995F09D2F23ED852505D4537D0FDB1 0xD9 0xD DUP14 0x23 0xF7 0xD0 GT 0xB9 SUB PUSH5 0x736F6C6343 STOP ADDMOD SHR STOP CALLER "
        },
        "methodIdentifiers": {
          "MAX_PRICE_AGE()": "9d7f7e86",
          "MIN_TIMESTAMP_BUFFER()": "f3a8caf5",
          "USDC_SCALAR()": "08796fda",
          "acceptOwnership()": "79ba5097",
          "commentOnVideo(uint256,string)": "e8ed1653",
          "comments(uint256,uint256)": "fc6c776f",
          "creatorSharePercentage()": "2e7a81cb",
          "creators(address)": "933166e1",
          "followCreator(address)": "4d90bc37",
          "following(address,address)": "ce9ae001",
          "getBalance()": "12065fe0",
          "getCreatorProfile(address)": "9e39e58d",
          "getEthPrice()": "67c9b017",
          "getEthPriceWithFallback()": "a05614e8",
          "getSharedRevenue()": "a9cfab0b",
          "getTotalComments(uint256)": "587520fa",
          "getTotalFollowers(address)": "55e6a806",
          "getUsdcFeeInEth()": "08d5c327",
          "getVideoComments(uint256)": "daf6160c",
          "getVideoCommentsPaginated(uint256,uint256,uint256)": "d2825af3",
          "hasLikedVideo(uint256,address)": "46a094d2",
          "isFollowing(address,address)": "99ec3a42",
          "likeVideo(uint256)": "27260d5c",
          "likedBy(uint256,address)": "c0a19963",
          "maxMintPrice()": "32cb9eea",
          "mintLimit()": "996517cf",
          "mintVideo(uint256)": "7ce2a824",
          "minterSharePercentage()": "4fb9b047",
          "owner()": "8da5cb5b",
          "pendingOwner()": "e30c3978",
          "projectSharePercentage()": "445e475d",
          "projectWallet()": "beb08ab9",
          "setEmergencyPrice(uint256,bool)": "1b9ee4d1",
          "setFee(uint256)": "69fe0e2d",
          "setProjectWallet(address)": "8a780447",
          "setRevenueSplit(uint256,uint256,uint256)": "140da7cc",
          "tipCreator(address)": "65c4e4aa",
          "transferOwnership(address)": "f2fde38b",
          "unfollowCreator(address)": "18196191",
          "unlikeVideo(uint256)": "11abd324",
          "updateGlobalMintLimit(uint256)": "09897097",
          "updateMaximumMintPrice(uint256)": "a5b6f941",
          "updateMintLimit(uint256,uint256)": "150f885e",
          "updateMintPrice(uint256,uint256)": "ec9ca258",
          "updateProfile(string)": "009299e3",
          "uploadVideo(uint256,uint256,uint256)": "53ae3586",
          "usdcFee()": "136f5cdd",
          "videos(uint256)": "e6821bf5",
          "videosCount()": "ef08523b",
          "withdraw()": "3ccfd60b"
        }
      }
    }
  }
}