{
  "_format": "hh-sol-artifact-1",
  "contractName": "Sessions",
  "sourceName": "contracts/Sessions.sol",
  "abi": [
    {
      "inputs": [],
      "stateMutability": "nonpayable",
      "type": "constructor"
    },
    {
      "inputs": [],
      "name": "ReentrancyGuardReentrantCall",
      "type": "error"
    },
    {
      "anonymous": false,
      "inputs": [
        {
          "indexed": true,
          "internalType": "uint256",
          "name": "videoId",
          "type": "uint256"
        },
        {
          "indexed": true,
          "internalType": "address",
          "name": "user",
          "type": "address"
        },
        {
          "indexed": false,
          "internalType": "string",
          "name": "commentText",
          "type": "string"
        }
      ],
      "name": "CommentAdded",
      "type": "event"
    },
    {
      "anonymous": false,
      "inputs": [
        {
          "indexed": true,
          "internalType": "address",
          "name": "follower",
          "type": "address"
        },
        {
          "indexed": true,
          "internalType": "address",
          "name": "creator",
          "type": "address"
        }
      ],
      "name": "CreatorFollowed",
      "type": "event"
    },
    {
      "anonymous": false,
      "inputs": [
        {
          "indexed": true,
          "internalType": "address",
          "name": "creator",
          "type": "address"
        },
        {
          "indexed": false,
          "internalType": "string",
          "name": "metadataUri",
          "type": "string"
        }
      ],
      "name": "CreatorProfileUpdated",
      "type": "event"
    },
    {
      "anonymous": false,
      "inputs": [
        {
          "indexed": true,
          "internalType": "address",
          "name": "tippedBy",
          "type": "address"
        },
        {
          "indexed": true,
          "internalType": "address",
          "name": "creator",
          "type": "address"
        },
        {
          "indexed": false,
          "internalType": "uint256",
          "name": "amount",
          "type": "uint256"
        }
      ],
      "name": "CreatorTipped",
      "type": "event"
    },
    {
      "anonymous": false,
      "inputs": [
        {
          "indexed": true,
          "internalType": "address",
          "name": "unfollower",
          "type": "address"
        },
        {
          "indexed": true,
          "internalType": "address",
          "name": "creator",
          "type": "address"
        }
      ],
      "name": "CreatorUnfollowed",
      "type": "event"
    },
    {
      "anonymous": false,
      "inputs": [
        {
          "indexed": false,
          "internalType": "uint256",
          "name": "emergencyPrice",
          "type": "uint256"
        },
        {
          "indexed": false,
          "internalType": "bool",
          "name": "useEmergency",
          "type": "bool"
        }
      ],
      "name": "EmergencyPriceSet",
      "type": "event"
    },
    {
      "anonymous": false,
      "inputs": [
        {
          "indexed": false,
          "internalType": "uint256",
          "name": "newFee",
          "type": "uint256"
        }
      ],
      "name": "FeeUpdated",
      "type": "event"
    },
    {
      "anonymous": false,
      "inputs": [
        {
          "indexed": false,
          "internalType": "uint256",
          "name": "newMintLimit",
          "type": "uint256"
        }
      ],
      "name": "GlobalMintLimitUpdated",
      "type": "event"
    },
    {
      "anonymous": false,
      "inputs": [
        {
          "indexed": false,
          "internalType": "uint256",
          "name": "newMintPrice",
          "type": "uint256"
        }
      ],
      "name": "MaxMintPriceUpdated",
      "type": "event"
    },
    {
      "anonymous": false,
      "inputs": [
        {
          "indexed": true,
          "internalType": "uint256",
          "name": "videoId",
          "type": "uint256"
        },
        {
          "indexed": false,
          "internalType": "uint256",
          "name": "newMintLimit",
          "type": "uint256"
        }
      ],
      "name": "MintLimitUpdated",
      "type": "event"
    },
    {
      "anonymous": false,
      "inputs": [
        {
          "indexed": true,
          "internalType": "uint256",
          "name": "videoId",
          "type": "uint256"
        },
        {
          "indexed": false,
          "internalType": "uint256",
          "name": "newPrice",
          "type": "uint256"
        }
      ],
      "name": "MintPriceUpdated",
      "type": "event"
    },
    {
      "anonymous": false,
      "inputs": [
        {
          "indexed": true,
          "internalType": "address",
          "name": "prevOwner",
          "type": "address"
        },
        {
          "indexed": true,
          "internalType": "address",
          "name": "newOwner",
          "type": "address"
        }
      ],
      "name": "OwnershipTransferred",
      "type": "event"
    },
    {
      "anonymous": false,
      "inputs": [
        {
          "indexed": false,
          "internalType": "address",
          "name": "newWallet",
          "type": "address"
        }
      ],
      "name": "ProjectWalletUpdated",
      "type": "event"
    },
    {
      "anonymous": false,
      "inputs": [
        {
          "indexed": false,
          "internalType": "uint256",
          "name": "projectSharePercentage",
          "type": "uint256"
        },
        {
          "indexed": false,
          "internalType": "uint256",
          "name": "creatorSharePercentage",
          "type": "uint256"
        },
        {
          "indexed": false,
          "internalType": "uint256",
          "name": "minterSharePercentage",
          "type": "uint256"
        }
      ],
      "name": "RevenueSplitUpdated",
      "type": "event"
    },
    {
      "anonymous": false,
      "inputs": [
        {
          "indexed": true,
          "internalType": "uint256",
          "name": "videoId",
          "type": "uint256"
        },
        {
          "indexed": true,
          "internalType": "address",
          "name": "user",
          "type": "address"
        }
      ],
      "name": "VideoLiked",
      "type": "event"
    },
    {
      "anonymous": false,
      "inputs": [
        {
          "indexed": true,
          "internalType": "uint256",
          "name": "videoId",
          "type": "uint256"
        },
        {
          "indexed": true,
          "internalType": "address",
          "name": "minter",
          "type": "address"
        },
        {
          "indexed": false,
          "internalType": "uint256",
          "name": "price",
          "type": "uint256"
        }
      ],
      "name": "VideoMinted",
      "type": "event"
    },
    {
      "anonymous": false,
      "inputs": [
        {
          "indexed": true,
          "internalType": "uint256",
          "name": "videoId",
          "type": "uint256"
        },
        {
          "indexed": true,
          "internalType": "address",
          "name": "user",
          "type": "address"
        }
      ],
      "name": "VideoUnliked",
      "type": "event"
    },
    {
      "anonymous": false,
      "inputs": [
        {
          "indexed": true,
          "internalType": "uint256",
          "name": "videoId",
          "type": "uint256"
        },
        {
          "indexed": true,
          "internalType": "address",
          "name": "creator",
          "type": "address"
        },
        {
          "indexed": false,
          "internalType": "uint256",
          "name": "mediaId",
          "type": "uint256"
        },
        {
          "indexed": false,
          "internalType": "uint256",
          "name": "mintLimit",
          "type": "uint256"
        },
        {
          "indexed": false,
          "internalType": "uint256",
          "name": "priceInWei",
          "type": "uint256"
        }
      ],
      "name": "VideoUploaded",
      "type": "event"
    },
    {
      "inputs": [],
      "name": "MAX_PRICE_AGE",
      "outputs": [
        {
          "internalType": "uint256",
          "name": "",
          "type": "uint256"
        }
      ],
      "stateMutability": "view",
      "type": "function"
    },
    {
      "inputs": [],
      "name": "MIN_TIMESTAMP_BUFFER",
      "outputs": [
        {
          "internalType": "uint256",
          "name": "",
          "type": "uint256"
        }
      ],
      "stateMutability": "view",
      "type": "function"
    },
    {
      "inputs": [],
      "name": "USDC_SCALAR",
      "outputs": [
        {
          "internalType": "uint256",
          "name": "",
          "type": "uint256"
        }
      ],
      "stateMutability": "view",
      "type": "function"
    },
    {
      "inputs": [],
      "name": "acceptOwnership",
      "outputs": [],
      "stateMutability": "nonpayable",
      "type": "function"
    },
    {
      "inputs": [
        {
          "internalType": "uint256",
          "name": "_videoId",
          "type": "uint256"
        },
        {
          "internalType": "string",
          "name": "_commentText",
          "type": "string"
        }
      ],
      "name": "commentOnVideo",
      "outputs": [],
      "stateMutability": "nonpayable",
      "type": "function"
    },
    {
      "inputs": [
        {
          "internalType": "uint256",
          "name": "",
          "type": "uint256"
        },
        {
          "internalType": "uint256",
          "name": "",
          "type": "uint256"
        }
      ],
      "name": "comments",
      "outputs": [
        {
          "internalType": "address",
          "name": "commenter",
          "type": "address"
        },
        {
          "internalType": "string",
          "name": "text",
          "type": "string"
        },
        {
          "internalType": "uint256",
          "name": "timestamp",
          "type": "uint256"
        }
      ],
      "stateMutability": "view",
      "type": "function"
    },
    {
      "inputs": [],
      "name": "creatorSharePercentage",
      "outputs": [
        {
          "internalType": "uint256",
          "name": "",
          "type": "uint256"
        }
      ],
      "stateMutability": "view",
      "type": "function"
    },
    {
      "inputs": [
        {
          "internalType": "address",
          "name": "",
          "type": "address"
        }
      ],
      "name": "creators",
      "outputs": [
        {
          "internalType": "string",
          "name": "metadataUri",
          "type": "string"
        },
        {
          "internalType": "uint256",
          "name": "totalVideos",
          "type": "uint256"
        },
        {
          "internalType": "uint256",
          "name": "totalFollowers",
          "type": "uint256"
        },
        {
          "internalType": "uint256",
          "name": "totalTipsReceived",
          "type": "uint256"
        }
      ],
      "stateMutability": "view",
      "type": "function"
    },
    {
      "inputs": [
        {
          "internalType": "address",
          "name": "_creator",
          "type": "address"
        }
      ],
      "name": "followCreator",
      "outputs": [],
      "stateMutability": "nonpayable",
      "type": "function"
    },
    {
      "inputs": [
        {
          "internalType": "address",
          "name": "",
          "type": "address"
        },
        {
          "internalType": "address",
          "name": "",
          "type": "address"
        }
      ],
      "name": "following",
      "outputs": [
        {
          "internalType": "bool",
          "name": "",
          "type": "bool"
        }
      ],
      "stateMutability": "view",
      "type": "function"
    },
    {
      "inputs": [],
      "name": "getBalance",
      "outputs": [
        {
          "internalType": "uint256",
          "name": "",
          "type": "uint256"
        }
      ],
      "stateMutability": "view",
      "type": "function"
    },
    {
      "inputs": [
        {
          "internalType": "address",
          "name": "_creator",
          "type": "address"
        }
      ],
      "name": "getCreatorProfile",
      "outputs": [
        {
          "components": [
            {
              "internalType": "string",
              "name": "metadataUri",
              "type": "string"
            },
            {
              "internalType": "uint256",
              "name": "totalVideos",
              "type": "uint256"
            },
            {
              "internalType": "uint256",
              "name": "totalFollowers",
              "type": "uint256"
            },
            {
              "internalType": "uint256",
              "name": "totalTipsReceived",
              "type": "uint256"
            }
          ],
          "internalType": "struct ISessions.Creator",
          "name": "",
          "type": "tuple"
        }
      ],
      "stateMutability": "view",
      "type": "function"
    },
    {
      "inputs": [],
      "name": "getEthPrice",
      "outputs": [
        {
          "internalType": "uint256",
          "name": "",
          "type": "uint256"
        }
      ],
      "stateMutability": "view",
      "type": "function"
    },
    {
      "inputs": [],
      "name": "getEthPriceWithFallback",
      "outputs": [
        {
          "internalType": "uint256",
          "name": "",
          "type": "uint256"
        }
      ],
      "stateMutability": "view",
      "type": "function"
    },
    {
      "inputs": [],
      "name": "getSharedRevenue",
      "outputs": [
        {
          "internalType": "uint256[3]",
          "name": "",
          "type": "uint256[3]"
        }
      ],
      "stateMutability": "view",
      "type": "function"
    },
    {
      "inputs": [
        {
          "internalType": "uint256",
          "name": "_videoId",
          "type": "uint256"
        }
      ],
      "name": "getTotalComments",
      "outputs": [
        {
          "internalType": "uint256",
          "name": "",
          "type": "uint256"
        }
      ],
      "stateMutability": "view",
      "type": "function"
    },
    {
      "inputs": [
        {
          "internalType": "address",
          "name": "_creator",
          "type": "address"
        }
      ],
      "name": "getTotalFollowers",
      "outputs": [
        {
          "internalType": "uint256",
          "name": "",
          "type": "uint256"
        }
      ],
      "stateMutability": "view",
      "type": "function"
    },
    {
      "inputs": [],
      "name": "getUsdcFeeInEth",
      "outputs": [
        {
          "internalType": "uint256",
          "name": "",
          "type": "uint256"
        }
      ],
      "stateMutability": "view",
      "type": "function"
    },
    {
      "inputs": [
        {
          "internalType": "uint256",
          "name": "_videoId",
          "type": "uint256"
        }
      ],
      "name": "getVideoComments",
      "outputs": [
        {
          "components": [
            {
              "internalType": "address",
              "name": "commenter",
              "type": "address"
            },
            {
              "internalType": "string",
              "name": "text",
              "type": "string"
            },
            {
              "internalType": "uint256",
              "name": "timestamp",
              "type": "uint256"
            }
          ],
          "internalType": "struct ISessions.Comment[]",
          "name": "",
          "type": "tuple[]"
        }
      ],
      "stateMutability": "view",
      "type": "function"
    },
    {
      "inputs": [
        {
          "internalType": "uint256",
          "name": "_videoId",
          "type": "uint256"
        },
        {
          "internalType": "uint256",
          "name": "offset",
          "type": "uint256"
        },
        {
          "internalType": "uint256",
          "name": "limit",
          "type": "uint256"
        }
      ],
      "name": "getVideoCommentsPaginated",
      "outputs": [
        {
          "components": [
            {
              "internalType": "address",
              "name": "commenter",
              "type": "address"
            },
            {
              "internalType": "string",
              "name": "text",
              "type": "string"
            },
            {
              "internalType": "uint256",
              "name": "timestamp",
              "type": "uint256"
            }
          ],
          "internalType": "struct ISessions.Comment[]",
          "name": "",
          "type": "tuple[]"
        }
      ],
      "stateMutability": "view",
      "type": "function"
    },
    {
      "inputs": [
        {
          "internalType": "uint256",
          "name": "_videoId",
          "type": "uint256"
        },
        {
          "internalType": "address",
          "name": "_user",
          "type": "address"
        }
      ],
      "name": "hasLikedVideo",
      "outputs": [
        {
          "internalType": "bool",
          "name": "",
          "type": "bool"
        }
      ],
      "stateMutability": "view",
      "type": "function"
    },
    {
      "inputs": [
        {
          "internalType": "address",
          "name": "_follower",
          "type": "address"
        },
        {
          "internalType": "address",
          "name": "_creator",
          "type": "address"
        }
      ],
      "name": "isFollowing",
      "outputs": [
        {
          "internalType": "bool",
          "name": "",
          "type": "bool"
        }
      ],
      "stateMutability": "view",
      "type": "function"
    },
    {
      "inputs": [
        {
          "internalType": "uint256",
          "name": "_videoId",
          "type": "uint256"
        }
      ],
      "name": "likeVideo",
      "outputs": [],
      "stateMutability": "nonpayable",
      "type": "function"
    },
    {
      "inputs": [
        {
          "internalType": "uint256",
          "name": "",
          "type": "uint256"
        },
        {
          "internalType": "address",
          "name": "",
          "type": "address"
        }
      ],
      "name": "likedBy",
      "outputs": [
        {
          "internalType": "bool",
          "name": "",
          "type": "bool"
        }
      ],
      "stateMutability": "view",
      "type": "function"
    },
    {
      "inputs": [],
      "name": "maxMintPrice",
      "outputs": [
        {
          "internalType": "uint256",
          "name": "",
          "type": "uint256"
        }
      ],
      "stateMutability": "view",
      "type": "function"
    },
    {
      "inputs": [],
      "name": "mintLimit",
      "outputs": [
        {
          "internalType": "uint256",
          "name": "",
          "type": "uint256"
        }
      ],
      "stateMutability": "view",
      "type": "function"
    },
    {
      "inputs": [
        {
          "internalType": "uint256",
          "name": "_videoId",
          "type": "uint256"
        }
      ],
      "name": "mintVideo",
      "outputs": [],
      "stateMutability": "payable",
      "type": "function"
    },
    {
      "inputs": [],
      "name": "minterSharePercentage",
      "outputs": [
        {
          "internalType": "uint256",
          "name": "",
          "type": "uint256"
        }
      ],
      "stateMutability": "view",
      "type": "function"
    },
    {
      "inputs": [],
      "name": "owner",
      "outputs": [
        {
          "internalType": "address",
          "name": "",
          "type": "address"
        }
      ],
      "stateMutability": "view",
      "type": "function"
    },
    {
      "inputs": [],
      "name": "pendingOwner",
      "outputs": [
        {
          "internalType": "address",
          "name": "",
          "type": "address"
        }
      ],
      "stateMutability": "view",
      "type": "function"
    },
    {
      "inputs": [],
      "name": "projectSharePercentage",
      "outputs": [
        {
          "internalType": "uint256",
          "name": "",
          "type": "uint256"
        }
      ],
      "stateMutability": "view",
      "type": "function"
    },
    {
      "inputs": [],
      "name": "projectWallet",
      "outputs": [
        {
          "internalType": "address",
          "name": "",
          "type": "address"
        }
      ],
      "stateMutability": "view",
      "type": "function"
    },
    {
      "inputs": [
        {
          "internalType": "uint256",
          "name": "_emergencyPrice",
          "type": "uint256"
        },
        {
          "internalType": "bool",
          "name": "_useEmergency",
          "type": "bool"
        }
      ],
      "name": "setEmergencyPrice",
      "outputs": [],
      "stateMutability": "nonpayable",
      "type": "function"
    },
    {
      "inputs": [
        {
          "internalType": "uint256",
          "name": "_newFee",
          "type": "uint256"
        }
      ],
      "name": "setFee",
      "outputs": [],
      "stateMutability": "nonpayable",
      "type": "function"
    },
    {
      "inputs": [
        {
          "internalType": "address",
          "name": "_projectWallet",
          "type": "address"
        }
      ],
      "name": "setProjectWallet",
      "outputs": [],
      "stateMutability": "nonpayable",
      "type": "function"
    },
    {
      "inputs": [
        {
          "internalType": "uint256",
          "name": "_projectSharePercentage",
          "type": "uint256"
        },
        {
          "internalType": "uint256",
          "name": "_creatorSharePercentage",
          "type": "uint256"
        },
        {
          "internalType": "uint256",
          "name": "_minterSharePercentage",
          "type": "uint256"
        }
      ],
      "name": "setRevenueSplit",
      "outputs": [],
      "stateMutability": "nonpayable",
      "type": "function"
    },
    {
      "inputs": [
        {
          "internalType": "address",
          "name": "_creator",
          "type": "address"
        }
      ],
      "name": "tipCreator",
      "outputs": [],
      "stateMutability": "payable",
      "type": "function"
    },
    {
      "inputs": [
        {
          "internalType": "address",
          "name": "_newOwner",
          "type": "address"
        }
      ],
      "name": "transferOwnership",
      "outputs": [],
      "stateMutability": "nonpayable",
      "type": "function"
    },
    {
      "inputs": [
        {
          "internalType": "address",
          "name": "_creator",
          "type": "address"
        }
      ],
      "name": "unfollowCreator",
      "outputs": [],
      "stateMutability": "nonpayable",
      "type": "function"
    },
    {
      "inputs": [
        {
          "internalType": "uint256",
          "name": "_videoId",
          "type": "uint256"
        }
      ],
      "name": "unlikeVideo",
      "outputs": [],
      "stateMutability": "nonpayable",
      "type": "function"
    },
    {
      "inputs": [
        {
          "internalType": "uint256",
          "name": "_newMintLimit",
          "type": "uint256"
        }
      ],
      "name": "updateGlobalMintLimit",
      "outputs": [],
      "stateMutability": "nonpayable",
      "type": "function"
    },
    {
      "inputs": [
        {
          "internalType": "uint256",
          "name": "_newMaxMintPrice",
          "type": "uint256"
        }
      ],
      "name": "updateMaximumMintPrice",
      "outputs": [],
      "stateMutability": "nonpayable",
      "type": "function"
    },
    {
      "inputs": [
        {
          "internalType": "uint256",
          "name": "_videoId",
          "type": "uint256"
        },
        {
          "internalType": "uint256",
          "name": "_newMintLimit",
          "type": "uint256"
        }
      ],
      "name": "updateMintLimit",
      "outputs": [],
      "stateMutability": "nonpayable",
      "type": "function"
    },
    {
      "inputs": [
        {
          "internalType": "uint256",
          "name": "_videoId",
          "type": "uint256"
        },
        {
          "internalType": "uint256",
          "name": "_newPrice",
          "type": "uint256"
        }
      ],
      "name": "updateMintPrice",
      "outputs": [],
      "stateMutability": "nonpayable",
      "type": "function"
    },
    {
      "inputs": [
        {
          "internalType": "string",
          "name": "_metadataUri",
          "type": "string"
        }
      ],
      "name": "updateProfile",
      "outputs": [],
      "stateMutability": "nonpayable",
      "type": "function"
    },
    {
      "inputs": [
        {
          "internalType": "uint256",
          "name": "_mediaId",
          "type": "uint256"
        },
        {
          "internalType": "uint256",
          "name": "_mintLimit",
          "type": "uint256"
        },
        {
          "internalType": "uint256",
          "name": "_priceInWei",
          "type": "uint256"
        }
      ],
      "name": "uploadVideo",
      "outputs": [],
      "stateMutability": "payable",
      "type": "function"
    },
    {
      "inputs": [],
      "name": "usdcFee",
      "outputs": [
        {
          "internalType": "uint256",
          "name": "",
          "type": "uint256"
        }
      ],
      "stateMutability": "view",
      "type": "function"
    },
    {
      "inputs": [
        {
          "internalType": "uint256",
          "name": "",
          "type": "uint256"
        }
      ],
      "name": "videos",
      "outputs": [
        {
          "internalType": "address",
          "name": "creator",
          "type": "address"
        },
        {
          "internalType": "uint256",
          "name": "mediaId",
          "type": "uint256"
        },
        {
          "internalType": "uint256",
          "name": "totalMints",
          "type": "uint256"
        },
        {
          "internalType": "uint256",
          "name": "mintLimit",
          "type": "uint256"
        },
        {
          "internalType": "uint256",
          "name": "price",
          "type": "uint256"
        },
        {
          "internalType": "uint256",
          "name": "likes",
          "type": "uint256"
        }
      ],
      "stateMutability": "view",
      "type": "function"
    },
    {
      "inputs": [],
      "name": "videosCount",
      "outputs": [
        {
          "internalType": "uint256",
          "name": "",
          "type": "uint256"
        }
      ],
      "stateMutability": "view",
      "type": "function"
    },
    {
      "inputs": [],
      "name": "withdraw",
      "outputs": [],
      "stateMutability": "nonpayable",
      "type": "function"
    }
  ],
  "bytecode": "0x60806040526000600455620f423f600555670de0b6b3a7640000600655603c600755601e600855600a60095534801561003757600080fd5b50600160008190555033600160006101000a81548173ffffffffffffffffffffffffffffffffffffffff021916908373ffffffffffffffffffffffffffffffffffffffff16021790555033600360006101000a81548173ffffffffffffffffffffffffffffffffffffffff021916908373ffffffffffffffffffffffffffffffffffffffff160217905550606463042c1d806100d3919061016c565b600a81905550734adc67696ba383f43dd60a9e78f2c97fbbfc7cb1600b60006101000a81548173ffffffffffffffffffffffffffffffffffffffff021916908373ffffffffffffffffffffffffffffffffffffffff16021790555061019d565b6000819050919050565b7f4e487b7100000000000000000000000000000000000000000000000000000000600052601260045260246000fd5b600061017782610133565b915061018283610133565b9250826101925761019161013d565b5b828204905092915050565b615b9e806101ac6000396000f3fe6080604052600436106102c85760003560e01c806379ba509711610175578063beb08ab9116100dc578063e6821bf511610095578063ef08523b1161006f578063ef08523b14610ae4578063f2fde38b14610b0f578063f3a8caf514610b38578063fc6c776f14610b63576102c8565b8063e6821bf514610a50578063e8ed165314610a92578063ec9ca25814610abb576102c8565b8063beb08ab914610906578063c0a1996314610931578063ce9ae0011461096e578063d2825af3146109ab578063daf6160c146109e8578063e30c397814610a25576102c8565b806399ec3a421161012e57806399ec3a42146107e25780639d7f7e861461081f5780639e39e58d1461084a578063a05614e814610887578063a5b6f941146108b2578063a9cfab0b146108db576102c8565b806379ba5097146106f05780637ce2a824146107075780638a780447146107235780638da5cb5b1461074c578063933166e114610777578063996517cf146107b7576102c8565b80632e7a81cb116102345780634fb9b047116101ed578063587520fa116101c7578063587520fa1461064357806365c4e4aa1461068057806367c9b0171461069c57806369fe0e2d146106c7576102c8565b80634fb9b047146105bf57806353ae3586146105ea57806355e6a80614610606576102c8565b80632e7a81cb146104c157806332cb9eea146104ec5780633ccfd60b14610517578063445e475d1461052e57806346a094d2146105595780634d90bc3714610596576102c8565b8063136f5cdd11610286578063136f5cdd146103c9578063140da7cc146103f4578063150f885e1461041d57806318196191146104465780631b9ee4d11461046f57806327260d5c14610498576102c8565b80629299e3146102cd57806308796fda146102f657806308d5c32714610321578063098970971461034c57806311abd3241461037557806312065fe01461039e575b600080fd5b3480156102d957600080fd5b506102f460048036038101906102ef9190613eab565b610ba2565b005b34801561030257600080fd5b5061030b610d3f565b6040516103189190613f0d565b60405180910390f35b34801561032d57600080fd5b50610336610d44565b6040516103439190613f0d565b60405180910390f35b34801561035857600080fd5b50610373600480360381019061036e9190613f54565b610d83565b005b34801561038157600080fd5b5061039c60048036038101906103979190613f54565b610ea5565b005b3480156103aa57600080fd5b506103b361112e565b6040516103c09190613f0d565b60405180910390f35b3480156103d557600080fd5b506103de611136565b6040516103eb9190613f0d565b60405180910390f35b34801561040057600080fd5b5061041b60048036038101906104169190613f81565b61113c565b005b34801561042957600080fd5b50610444600480360381019061043f9190613fd4565b61127a565b005b34801561045257600080fd5b5061046d60048036038101906104689190614072565b611377565b005b34801561047b57600080fd5b50610496600480360381019061049191906140d7565b61161f565b005b3480156104a457600080fd5b506104bf60048036038101906104ba9190613f54565b611750565b005b3480156104cd57600080fd5b506104d6611981565b6040516104e39190613f0d565b60405180910390f35b3480156104f857600080fd5b50610501611987565b60405161050e9190613f0d565b60405180910390f35b34801561052357600080fd5b5061052c61198d565b005b34801561053a57600080fd5b50610543611aee565b6040516105509190613f0d565b60405180910390f35b34801561056557600080fd5b50610580600480360381019061057b9190614117565b611af4565b60405161058d9190614166565b60405180910390f35b3480156105a257600080fd5b506105bd60048036038101906105b89190614072565b611b5c565b005b3480156105cb57600080fd5b506105d4611dee565b6040516105e19190613f0d565b60405180910390f35b61060460048036038101906105ff9190613f81565b611df4565b005b34801561061257600080fd5b5061062d60048036038101906106289190614072565b612119565b60405161063a9190613f0d565b60405180910390f35b34801561064f57600080fd5b5061066a60048036038101906106659190613f54565b612165565b6040516106779190613f0d565b60405180910390f35b61069a60048036038101906106959190614072565b612185565b005b3480156106a857600080fd5b506106b16123b5565b6040516106be9190613f0d565b60405180910390f35b3480156106d357600080fd5b506106ee60048036038101906106e99190613f54565b6125c5565b005b3480156106fc57600080fd5b506107056126dc565b005b610721600480360381019061071c9190613f54565b612873565b005b34801561072f57600080fd5b5061074a60048036038101906107459190614072565b612a81565b005b34801561075857600080fd5b50610761612bfb565b60405161076e9190614190565b60405180910390f35b34801561078357600080fd5b5061079e60048036038101906107999190614072565b612c21565b6040516107ae949392919061422a565b60405180910390f35b3480156107c357600080fd5b506107cc612cd9565b6040516107d99190613f0d565b60405180910390f35b3480156107ee57600080fd5b5061080960048036038101906108049190614276565b612cdf565b6040516108169190614166565b60405180910390f35b34801561082b57600080fd5b50610834612d73565b6040516108419190613f0d565b60405180910390f35b34801561085657600080fd5b50610871600480360381019061086c9190614072565b612d79565b60405161087e9190614372565b60405180910390f35b34801561089357600080fd5b5061089c612e82565b6040516108a99190613f0d565b60405180910390f35b3480156108be57600080fd5b506108d960048036038101906108d49190613f54565b612eb1565b005b3480156108e757600080fd5b506108f0612fd3565b6040516108fd9190614430565b60405180910390f35b34801561091257600080fd5b5061091b613001565b6040516109289190614190565b60405180910390f35b34801561093d57600080fd5b5061095860048036038101906109539190614117565b613027565b6040516109659190614166565b60405180910390f35b34801561097a57600080fd5b5061099560048036038101906109909190614276565b613056565b6040516109a29190614166565b60405180910390f35b3480156109b757600080fd5b506109d260048036038101906109cd9190613f81565b613085565b6040516109df919061456c565b60405180910390f35b3480156109f457600080fd5b50610a0f6004803603810190610a0a9190613f54565b613300565b604051610a1c919061456c565b60405180910390f35b348015610a3157600080fd5b50610a3a613464565b604051610a479190614190565b60405180910390f35b348015610a5c57600080fd5b50610a776004803603810190610a729190613f54565b61348a565b604051610a899695949392919061458e565b60405180910390f35b348015610a9e57600080fd5b50610ab96004803603810190610ab491906145ef565b6134e6565b005b348015610ac757600080fd5b50610ae26004803603810190610add9190613fd4565b6136bc565b005b348015610af057600080fd5b50610af96137b9565b604051610b069190613f0d565b60405180910390f35b348015610b1b57600080fd5b50610b366004803603810190610b319190614072565b6137bf565b005b348015610b4457600080fd5b50610b4d613902565b604051610b5a9190613f0d565b60405180910390f35b348015610b6f57600080fd5b50610b8a6004803603810190610b859190613fd4565b613907565b604051610b999392919061464b565b60405180910390f35b6000600d60003373ffffffffffffffffffffffffffffffffffffffff1673ffffffffffffffffffffffffffffffffffffffff1681526020019081526020016000206000018054610bf1906146b8565b905003610c9757604051806080016040528082815260200160008152602001600081526020016000815250600d60003373ffffffffffffffffffffffffffffffffffffffff1673ffffffffffffffffffffffffffffffffffffffff1681526020019081526020016000206000820151816000019081610c709190614895565b50602082015181600101556040820151816002015560608201518160030155905050610cee565b6000600d60003373ffffffffffffffffffffffffffffffffffffffff1673ffffffffffffffffffffffffffffffffffffffff168152602001908152602001600020905081816000019081610ceb9190614895565b50505b3373ffffffffffffffffffffffffffffffffffffffff167fb07b7c8b0281bfa225d936eb4b081f263727dcaa3a2160038b8a947d75df5cb282604051610d349190614967565b60405180910390a250565b606481565b600080610d4f6123b5565b90506000816c0c9f2c9cd04674edea40000000600a54610d6f91906149b8565b610d799190614a29565b9050809250505090565b600160009054906101000a900473ffffffffffffffffffffffffffffffffffffffff1673ffffffffffffffffffffffffffffffffffffffff163373ffffffffffffffffffffffffffffffffffffffff1614610e13576040517f08c379a0000000000000000000000000000000000000000000000000000000008152600401610e0a90614aa6565b60405180910390fd5b600081118015610e2557506005548114155b610e64576040517f08c379a0000000000000000000000000000000000000000000000000000000008152600401610e5b90614b12565b60405180910390fd5b806005819055507ff56cd1c2276dd17bcff78ff95f3dcc99cb9595b770bc12da977b9c095c9bf96b81604051610e9a9190613f0d565b60405180910390a150565b80600073ffffffffffffffffffffffffffffffffffffffff16600c600083815260200190815260200160002060000160009054906101000a900473ffffffffffffffffffffffffffffffffffffffff1673ffffffffffffffffffffffffffffffffffffffff1603610f4b576040517f08c379a0000000000000000000000000000000000000000000000000000000008152600401610f4290614b7e565b60405180910390fd5b610f536139f6565b600f600083815260200190815260200160002060003373ffffffffffffffffffffffffffffffffffffffff1673ffffffffffffffffffffffffffffffffffffffff16815260200190815260200160002060009054906101000a900460ff16610ff0576040517f08c379a0000000000000000000000000000000000000000000000000000000008152600401610fe790614bea565b60405180910390fd5b6000600c60008481526020019081526020016000206005015411611049576040517f08c379a000000000000000000000000000000000000000000000000000000000815260040161104090614c56565b60405180910390fd5b600c6000838152602001908152602001600020600501600081548092919061107090614c76565b91905055506000600f600084815260200190815260200160002060003373ffffffffffffffffffffffffffffffffffffffff1673ffffffffffffffffffffffffffffffffffffffff16815260200190815260200160002060006101000a81548160ff0219169083151502179055503373ffffffffffffffffffffffffffffffffffffffff16827fe1ea13f5a6d14e33425b04b4cd2185c1919991c8b880eecaa279f4906475d6f960405160405180910390a361112a613a3c565b5050565b600047905090565b600a5481565b600160009054906101000a900473ffffffffffffffffffffffffffffffffffffffff1673ffffffffffffffffffffffffffffffffffffffff163373ffffffffffffffffffffffffffffffffffffffff16146111cc576040517f08c379a00000000000000000000000000000000000000000000000000000000081526004016111c390614aa6565b60405180910390fd5b60648183856111db9190614c9f565b6111e59190614c9f565b14611225576040517f08c379a000000000000000000000000000000000000000000000000000000000815260040161121c90614d1f565b60405180910390fd5b8260088190555081600781905550806009819055507f41fbb987eff495897d3076fa6ad5de848eb98f1d4e2c6922ebf510d75a79a57583838360405161126d93929190614d3f565b60405180910390a1505050565b813373ffffffffffffffffffffffffffffffffffffffff16600c600083815260200190815260200160002060000160009054906101000a900473ffffffffffffffffffffffffffffffffffffffff1673ffffffffffffffffffffffffffffffffffffffff161461131f576040517f08c379a000000000000000000000000000000000000000000000000000000000815260040161131690614aa6565b60405180910390fd5b81600c600085815260200190815260200160002060030181905550827f864790bdf9878a0378c6fc2b0ce53bf74ca13b901bc97a1cb94aa88f1600e4828360405161136a9190613f0d565b60405180910390a2505050565b61137f6139f6565b600e60003373ffffffffffffffffffffffffffffffffffffffff1673ffffffffffffffffffffffffffffffffffffffff16815260200190815260200160002060008273ffffffffffffffffffffffffffffffffffffffff1673ffffffffffffffffffffffffffffffffffffffff16815260200190815260200160002060009054906101000a900460ff16611448576040517f08c379a000000000000000000000000000000000000000000000000000000000815260040161143f90614dc2565b60405180910390fd5b6000600d60008373ffffffffffffffffffffffffffffffffffffffff1673ffffffffffffffffffffffffffffffffffffffff16815260200190815260200160002060020154116114cd576040517f08c379a00000000000000000000000000000000000000000000000000000000081526004016114c490614e2e565b60405180910390fd5b6000600e60003373ffffffffffffffffffffffffffffffffffffffff1673ffffffffffffffffffffffffffffffffffffffff16815260200190815260200160002060008373ffffffffffffffffffffffffffffffffffffffff1673ffffffffffffffffffffffffffffffffffffffff16815260200190815260200160002060006101000a81548160ff021916908315150217905550600d60008273ffffffffffffffffffffffffffffffffffffffff1673ffffffffffffffffffffffffffffffffffffffff16815260200190815260200160002060020160008154809291906115b590614c76565b91905055508073ffffffffffffffffffffffffffffffffffffffff163373ffffffffffffffffffffffffffffffffffffffff167f673e2dc2dff10ec8a44c707c34be5b2833e3b75618cb3bf22e1e31c1d6a1066860405160405180910390a361161c613a3c565b50565b600160009054906101000a900473ffffffffffffffffffffffffffffffffffffffff1673ffffffffffffffffffffffffffffffffffffffff163373ffffffffffffffffffffffffffffffffffffffff16146116af576040517f08c379a00000000000000000000000000000000000000000000000000000000081526004016116a690614aa6565b60405180910390fd5b600082116116f2576040517f08c379a00000000000000000000000000000000000000000000000000000000081526004016116e990614e9a565b60405180910390fd5b8160118190555080601260006101000a81548160ff0219169083151502179055507fa9495e17c26190da2181ac3c23342384e968c7ed3daf98df831d65060f83aeca8282604051611744929190614eba565b60405180910390a15050565b80600073ffffffffffffffffffffffffffffffffffffffff16600c600083815260200190815260200160002060000160009054906101000a900473ffffffffffffffffffffffffffffffffffffffff1673ffffffffffffffffffffffffffffffffffffffff16036117f6576040517f08c379a00000000000000000000000000000000000000000000000000000000081526004016117ed90614b7e565b60405180910390fd5b6117fe6139f6565b600f600083815260200190815260200160002060003373ffffffffffffffffffffffffffffffffffffffff1673ffffffffffffffffffffffffffffffffffffffff16815260200190815260200160002060009054906101000a900460ff161561189c576040517f08c379a000000000000000000000000000000000000000000000000000000000815260040161189390614f2f565b60405180910390fd5b600c600083815260200190815260200160002060050160008154809291906118c390614f4f565b91905055506001600f600084815260200190815260200160002060003373ffffffffffffffffffffffffffffffffffffffff1673ffffffffffffffffffffffffffffffffffffffff16815260200190815260200160002060006101000a81548160ff0219169083151502179055503373ffffffffffffffffffffffffffffffffffffffff16827f252555045b2bb75bbf4e656932c7fc2d63e8e7d9acc300a6b55d6575a2c8d42860405160405180910390a361197d613a3c565b5050565b60075481565b60065481565b600160009054906101000a900473ffffffffffffffffffffffffffffffffffffffff1673ffffffffffffffffffffffffffffffffffffffff163373ffffffffffffffffffffffffffffffffffffffff1614611a1d576040517f08c379a0000000000000000000000000000000000000000000000000000000008152600401611a1490614aa6565b60405180910390fd5b6000600360009054906101000a900473ffffffffffffffffffffffffffffffffffffffff1673ffffffffffffffffffffffffffffffffffffffff1647604051611a6590614fc8565b60006040518083038185875af1925050503d8060008114611aa2576040519150601f19603f3d011682016040523d82523d6000602084013e611aa7565b606091505b5050905080611aeb576040517f08c379a0000000000000000000000000000000000000000000000000000000008152600401611ae290615029565b60405180910390fd5b50565b60085481565b6000600f600084815260200190815260200160002060008373ffffffffffffffffffffffffffffffffffffffff1673ffffffffffffffffffffffffffffffffffffffff16815260200190815260200160002060009054906101000a900460ff16905092915050565b611b646139f6565b8073ffffffffffffffffffffffffffffffffffffffff163373ffffffffffffffffffffffffffffffffffffffff1603611bd2576040517f08c379a0000000000000000000000000000000000000000000000000000000008152600401611bc990615095565b60405180910390fd5b600e60003373ffffffffffffffffffffffffffffffffffffffff1673ffffffffffffffffffffffffffffffffffffffff16815260200190815260200160002060008273ffffffffffffffffffffffffffffffffffffffff1673ffffffffffffffffffffffffffffffffffffffff16815260200190815260200160002060009054906101000a900460ff1615611c9c576040517f08c379a0000000000000000000000000000000000000000000000000000000008152600401611c9390615101565b60405180910390fd5b6001600e60003373ffffffffffffffffffffffffffffffffffffffff1673ffffffffffffffffffffffffffffffffffffffff16815260200190815260200160002060008373ffffffffffffffffffffffffffffffffffffffff1673ffffffffffffffffffffffffffffffffffffffff16815260200190815260200160002060006101000a81548160ff021916908315150217905550600d60008273ffffffffffffffffffffffffffffffffffffffff1673ffffffffffffffffffffffffffffffffffffffff1681526020019081526020016000206002016000815480929190611d8490614f4f565b91905055508073ffffffffffffffffffffffffffffffffffffffff163373ffffffffffffffffffffffffffffffffffffffff167f1e4f76f27ac4380b0e6c2d1a24f025857826721375cb34acd4ac2cccd831eead60405160405180910390a3611deb613a3c565b50565b60095481565b611dfc6139f6565b6000611e06610d44565b905080670de0b6b3a764000034611e1d91906149b8565b1015611e5e576040517f08c379a0000000000000000000000000000000000000000000000000000000008152600401611e559061516d565b60405180910390fd5b60008311611ea1576040517f08c379a0000000000000000000000000000000000000000000000000000000008152600401611e98906151d9565b60405180910390fd5b600554831115611ee6576040517f08c379a0000000000000000000000000000000000000000000000000000000008152600401611edd90615245565b60405180910390fd5b60008211611f29576040517f08c379a0000000000000000000000000000000000000000000000000000000008152600401611f20906152b1565b60405180910390fd5b600654821115611f6e576040517f08c379a0000000000000000000000000000000000000000000000000000000008152600401611f659061531d565b60405180910390fd5b83600c60008681526020019081526020016000206001015403611fc6576040517f08c379a0000000000000000000000000000000000000000000000000000000008152600401611fbd90615389565b60405180910390fd5b60006040518060c001604052803373ffffffffffffffffffffffffffffffffffffffff168152602001868152602001600081526020018581526020018481526020016000815250905080600c600087815260200190815260200160002060008201518160000160006101000a81548173ffffffffffffffffffffffffffffffffffffffff021916908373ffffffffffffffffffffffffffffffffffffffff1602179055506020820151816001015560408201518160020155606082015181600301556080820151816004015560a082015181600501559050503373ffffffffffffffffffffffffffffffffffffffff16857fee2bb18d8855dfdb5d995a58bfd62de687f23bff5f41f6d2919ebb3bdf2be3a78787876040516120ea93929190614d3f565b60405180910390a36004600081548092919061210590614f4f565b91905055505050612114613a3c565b505050565b6000600d60008373ffffffffffffffffffffffffffffffffffffffff1673ffffffffffffffffffffffffffffffffffffffff168152602001908152602001600020600201549050919050565b600060106000838152602001908152602001600020805490509050919050565b61218d6139f6565b600034116121d0576040517f08c379a00000000000000000000000000000000000000000000000000000000081526004016121c7906153f5565b60405180910390fd5b600073ffffffffffffffffffffffffffffffffffffffff168173ffffffffffffffffffffffffffffffffffffffff160361223f576040517f08c379a000000000000000000000000000000000000000000000000000000000815260040161223690615461565b60405180910390fd5b34600d60008373ffffffffffffffffffffffffffffffffffffffff1673ffffffffffffffffffffffffffffffffffffffff16815260200190815260200160002060030160008282546122919190614c9f565b9250508190555060008173ffffffffffffffffffffffffffffffffffffffff16346040516122be90614fc8565b60006040518083038185875af1925050503d80600081146122fb576040519150601f19603f3d011682016040523d82523d6000602084013e612300565b606091505b5050905080612344576040517f08c379a000000000000000000000000000000000000000000000000000000000815260040161233b906154cd565b60405180910390fd5b8173ffffffffffffffffffffffffffffffffffffffff163373ffffffffffffffffffffffffffffffffffffffff167fa32d9d0d87d6c17bab78e0fe62ab9560e6f09ec4a903287bac5dd223e358c186346040516123a19190613f0d565b60405180910390a3506123b2613a3c565b50565b600080600080600080600b60009054906101000a900473ffffffffffffffffffffffffffffffffffffffff1673ffffffffffffffffffffffffffffffffffffffff1663feaf968c6040518163ffffffff1660e01b815260040160a060405180830381865afa15801561242b573d6000803e3d6000fd5b505050506040513d601f19601f8201168201806040525081019061244f919061557a565b9450945094509450945060008569ffffffffffffffffffff16116124a8576040517f08c379a000000000000000000000000000000000000000000000000000000000815260040161249f90615641565b60405180910390fd5b8469ffffffffffffffffffff168169ffffffffffffffffffff161015612503576040517f08c379a00000000000000000000000000000000000000000000000000000000081526004016124fa906156ad565b60405180910390fd5b60008413612546576040517f08c379a000000000000000000000000000000000000000000000000000000000815260040161253d90615719565b60405180910390fd5b6000824211612556576000612563565b82426125629190615739565b5b9050610e1081106125a9576040517f08c379a00000000000000000000000000000000000000000000000000000000081526004016125a0906157b9565b60405180910390fd5b6402540be400856125ba91906149b8565b965050505050505090565b600160009054906101000a900473ffffffffffffffffffffffffffffffffffffffff1673ffffffffffffffffffffffffffffffffffffffff163373ffffffffffffffffffffffffffffffffffffffff1614612655576040517f08c379a000000000000000000000000000000000000000000000000000000000815260040161264c90614aa6565b60405180910390fd5b620f424081111561269b576040517f08c379a000000000000000000000000000000000000000000000000000000000815260040161269290615825565b60405180910390fd5b80600a819055507f8c4d35e54a3f2ef1134138fd8ea3daee6a3c89e10d2665996babdf70261e2c76816040516126d19190613f0d565b60405180910390a150565b600260009054906101000a900473ffffffffffffffffffffffffffffffffffffffff1673ffffffffffffffffffffffffffffffffffffffff163373ffffffffffffffffffffffffffffffffffffffff161461276c576040517f08c379a000000000000000000000000000000000000000000000000000000000815260040161276390614aa6565b60405180910390fd5b6000600160009054906101000a900473ffffffffffffffffffffffffffffffffffffffff16905033600160006101000a81548173ffffffffffffffffffffffffffffffffffffffff021916908373ffffffffffffffffffffffffffffffffffffffff1602179055506000600260006101000a81548173ffffffffffffffffffffffffffffffffffffffff021916908373ffffffffffffffffffffffffffffffffffffffff1602179055503373ffffffffffffffffffffffffffffffffffffffff168173ffffffffffffffffffffffffffffffffffffffff167f8be0079c531659141344cd1fd0a4f28419497f9722a3daafe3b4186f6b6457e060405160405180910390a350565b80600c6000828152602001908152602001600020600401543410156128cd576040517f08c379a00000000000000000000000000000000000000000000000000000000081526004016128c490615891565b60405180910390fd5b81600073ffffffffffffffffffffffffffffffffffffffff16600c600083815260200190815260200160002060000160009054906101000a900473ffffffffffffffffffffffffffffffffffffffff1673ffffffffffffffffffffffffffffffffffffffff1603612973576040517f08c379a000000000000000000000000000000000000000000000000000000000815260040161296a90614b7e565b60405180910390fd5b61297b6139f6565b6000600c6000858152602001908152602001600020905080600301548160020154106129dc576040517f08c379a00000000000000000000000000000000000000000000000000000000081526004016129d3906158fd565b60405180910390fd5b8060020160008154809291906129f190614f4f565b9190505550612a24348260000160009054906101000a900473ffffffffffffffffffffffffffffffffffffffff16613a46565b3373ffffffffffffffffffffffffffffffffffffffff16847f6ca565cbe12d6a229e5001591809c6900e82e4dc3d5abc5d7f48e1a9c2073e9d34604051612a6b9190613f0d565b60405180910390a350612a7c613a3c565b505050565b600160009054906101000a900473ffffffffffffffffffffffffffffffffffffffff1673ffffffffffffffffffffffffffffffffffffffff163373ffffffffffffffffffffffffffffffffffffffff1614612b11576040517f08c379a0000000000000000000000000000000000000000000000000000000008152600401612b0890614aa6565b60405180910390fd5b600073ffffffffffffffffffffffffffffffffffffffff168173ffffffffffffffffffffffffffffffffffffffff1603612b80576040517f08c379a0000000000000000000000000000000000000000000000000000000008152600401612b7790615969565b60405180910390fd5b80600360006101000a81548173ffffffffffffffffffffffffffffffffffffffff021916908373ffffffffffffffffffffffffffffffffffffffff1602179055507fec859decd72bbc1028a5d9cff18865d253e0a9c46133f5de383c3cd73ab89b6581604051612bf09190614190565b60405180910390a150565b600160009054906101000a900473ffffffffffffffffffffffffffffffffffffffff1681565b600d602052806000526040600020600091509050806000018054612c44906146b8565b80601f0160208091040260200160405190810160405280929190818152602001828054612c70906146b8565b8015612cbd5780601f10612c9257610100808354040283529160200191612cbd565b820191906000526020600020905b815481529060010190602001808311612ca057829003601f168201915b5050505050908060010154908060020154908060030154905084565b60055481565b6000600e60008473ffffffffffffffffffffffffffffffffffffffff1673ffffffffffffffffffffffffffffffffffffffff16815260200190815260200160002060008373ffffffffffffffffffffffffffffffffffffffff1673ffffffffffffffffffffffffffffffffffffffff16815260200190815260200160002060009054906101000a900460ff16905092915050565b610e1081565b612d81613cd0565b600d60008373ffffffffffffffffffffffffffffffffffffffff1673ffffffffffffffffffffffffffffffffffffffff168152602001908152602001600020604051806080016040529081600082018054612ddb906146b8565b80601f0160208091040260200160405190810160405280929190818152602001828054612e07906146b8565b8015612e545780601f10612e2957610100808354040283529160200191612e54565b820191906000526020600020905b815481529060010190602001808311612e3757829003601f168201915b5050505050815260200160018201548152602001600282015481526020016003820154815250509050919050565b6000601260009054906101000a900460ff1615612ea3576011549050612eae565b612eab6123b5565b90505b90565b600160009054906101000a900473ffffffffffffffffffffffffffffffffffffffff1673ffffffffffffffffffffffffffffffffffffffff163373ffffffffffffffffffffffffffffffffffffffff1614612f41576040517f08c379a0000000000000000000000000000000000000000000000000000000008152600401612f3890614aa6565b60405180910390fd5b600081118015612f5357506006548114155b612f92576040517f08c379a0000000000000000000000000000000000000000000000000000000008152600401612f89906159d5565b60405180910390fd5b806006819055507f732603a291622cec912f16c1f255237a3c66fdaaebc8c61e72c21600547f61ee81604051612fc89190613f0d565b60405180910390a150565b612fdb613cf8565b604051806060016040528060085481526020016007548152602001600954815250905090565b600360009054906101000a900473ffffffffffffffffffffffffffffffffffffffff1681565b600f6020528160005260406000206020528060005260406000206000915091509054906101000a900460ff1681565b600e6020528160005260406000206020528060005260406000206000915091509054906101000a900460ff1681565b6060600060106000868152602001908152602001600020905060008180549050905080851061310c57600067ffffffffffffffff8111156130c9576130c8613d80565b5b60405190808252806020026020018201604052801561310257816020015b6130ef613d1a565b8152602001906001900390816130e75790505b50925050506132f9565b6000848661311a9190614c9f565b905081811115613128578190505b600086826131369190615739565b905060008167ffffffffffffffff81111561315457613153613d80565b5b60405190808252806020026020018201604052801561318d57816020015b61317a613d1a565b8152602001906001900390816131725790505b50905060005b828110156132ef5785818a6131a89190614c9f565b815481106131b9576131b86159f5565b5b90600052602060002090600302016040518060600160405290816000820160009054906101000a900473ffffffffffffffffffffffffffffffffffffffff1673ffffffffffffffffffffffffffffffffffffffff1673ffffffffffffffffffffffffffffffffffffffff168152602001600182018054613238906146b8565b80601f0160208091040260200160405190810160405280929190818152602001828054613264906146b8565b80156132b15780601f10613286576101008083540402835291602001916132b1565b820191906000526020600020905b81548152906001019060200180831161329457829003601f168201915b505050505081526020016002820154815250508282815181106132d7576132d66159f5565b5b60200260200101819052508080600101915050613193565b5080955050505050505b9392505050565b606060106000838152602001908152602001600020805480602002602001604051908101604052809291908181526020016000905b8282101561345957838290600052602060002090600302016040518060600160405290816000820160009054906101000a900473ffffffffffffffffffffffffffffffffffffffff1673ffffffffffffffffffffffffffffffffffffffff1673ffffffffffffffffffffffffffffffffffffffff1681526020016001820180546133be906146b8565b80601f01602080910402602001604051908101604052809291908181526020018280546133ea906146b8565b80156134375780601f1061340c57610100808354040283529160200191613437565b820191906000526020600020905b81548152906001019060200180831161341a57829003601f168201915b5050505050815260200160028201548152505081526020019060010190613335565b505050509050919050565b600260009054906101000a900473ffffffffffffffffffffffffffffffffffffffff1681565b600c6020528060005260406000206000915090508060000160009054906101000a900473ffffffffffffffffffffffffffffffffffffffff16908060010154908060020154908060030154908060040154908060050154905086565b81600073ffffffffffffffffffffffffffffffffffffffff16600c600083815260200190815260200160002060000160009054906101000a900473ffffffffffffffffffffffffffffffffffffffff1673ffffffffffffffffffffffffffffffffffffffff160361358c576040517f08c379a000000000000000000000000000000000000000000000000000000000815260040161358390614b7e565b60405180910390fd5b600060405180606001604052803373ffffffffffffffffffffffffffffffffffffffff1681526020018481526020014281525090506010600085815260200190815260200160002081908060018154018082558091505060019003906000526020600020906003020160009091909190915060008201518160000160006101000a81548173ffffffffffffffffffffffffffffffffffffffff021916908373ffffffffffffffffffffffffffffffffffffffff160217905550602082015181600101908161365a9190614895565b506040820151816002015550503373ffffffffffffffffffffffffffffffffffffffff16847fcc2d7dd2085ae6644799a42c0174adf9afc10a43f26db5eac3ddd1f96d1d64be856040516136ae9190614967565b60405180910390a350505050565b813373ffffffffffffffffffffffffffffffffffffffff16600c600083815260200190815260200160002060000160009054906101000a900473ffffffffffffffffffffffffffffffffffffffff1673ffffffffffffffffffffffffffffffffffffffff1614613761576040517f08c379a000000000000000000000000000000000000000000000000000000000815260040161375890614aa6565b60405180910390fd5b81600c600085815260200190815260200160002060040181905550827f2e1c9e000c6e8dda4d03536adb13b7cb6034ccff90d17f01de381e4d5097b525836040516137ac9190613f0d565b60405180910390a2505050565b60045481565b600160009054906101000a900473ffffffffffffffffffffffffffffffffffffffff1673ffffffffffffffffffffffffffffffffffffffff163373ffffffffffffffffffffffffffffffffffffffff161461384f576040517f08c379a000000000000000000000000000000000000000000000000000000000815260040161384690614aa6565b60405180910390fd5b600073ffffffffffffffffffffffffffffffffffffffff168173ffffffffffffffffffffffffffffffffffffffff16036138be576040517f08c379a00000000000000000000000000000000000000000000000000000000081526004016138b590615969565b60405180910390fd5b80600260006101000a81548173ffffffffffffffffffffffffffffffffffffffff021916908373ffffffffffffffffffffffffffffffffffffffff16021790555050565b601e81565b6010602052816000526040600020818154811061392357600080fd5b9060005260206000209060030201600091509150508060000160009054906101000a900473ffffffffffffffffffffffffffffffffffffffff169080600101805461396d906146b8565b80601f0160208091040260200160405190810160405280929190818152602001828054613999906146b8565b80156139e65780601f106139bb576101008083540402835291602001916139e6565b820191906000526020600020905b8154815290600101906020018083116139c957829003601f168201915b5050505050908060020154905083565b600260005403613a32576040517f3ee5aeb500000000000000000000000000000000000000000000000000000000815260040160405180910390fd5b6002600081905550565b6001600081905550565b6000606460075484613a5891906149b8565b613a629190614a29565b90506000606460095485613a7691906149b8565b613a809190614a29565b90506000606460085486613a9491906149b8565b613a9e9190614a29565b905060008473ffffffffffffffffffffffffffffffffffffffff1684604051613ac690614fc8565b60006040518083038185875af1925050503d8060008114613b03576040519150601f19603f3d011682016040523d82523d6000602084013e613b08565b606091505b5050905080613b4c576040517f08c379a0000000000000000000000000000000000000000000000000000000008152600401613b4390615a70565b60405180910390fd5b60003373ffffffffffffffffffffffffffffffffffffffff1684604051613b7290614fc8565b60006040518083038185875af1925050503d8060008114613baf576040519150601f19603f3d011682016040523d82523d6000602084013e613bb4565b606091505b5050905080613bf8576040517f08c379a0000000000000000000000000000000000000000000000000000000008152600401613bef90615adc565b60405180910390fd5b6000600360009054906101000a900473ffffffffffffffffffffffffffffffffffffffff1673ffffffffffffffffffffffffffffffffffffffff1684604051613c4090614fc8565b60006040518083038185875af1925050503d8060008114613c7d576040519150601f19603f3d011682016040523d82523d6000602084013e613c82565b606091505b5050905080613cc6576040517f08c379a0000000000000000000000000000000000000000000000000000000008152600401613cbd90615b48565b60405180910390fd5b5050505050505050565b6040518060800160405280606081526020016000815260200160008152602001600081525090565b6040518060600160405280600390602082028036833780820191505090505090565b6040518060600160405280600073ffffffffffffffffffffffffffffffffffffffff16815260200160608152602001600081525090565b6000604051905090565b600080fd5b600080fd5b600080fd5b600080fd5b6000601f19601f8301169050919050565b7f4e487b7100000000000000000000000000000000000000000000000000000000600052604160045260246000fd5b613db882613d6f565b810181811067ffffffffffffffff82111715613dd757613dd6613d80565b5b80604052505050565b6000613dea613d51565b9050613df68282613daf565b919050565b600067ffffffffffffffff821115613e1657613e15613d80565b5b613e1f82613d6f565b9050602081019050919050565b82818337600083830152505050565b6000613e4e613e4984613dfb565b613de0565b905082815260208101848484011115613e6a57613e69613d6a565b5b613e75848285613e2c565b509392505050565b600082601f830112613e9257613e91613d65565b5b8135613ea2848260208601613e3b565b91505092915050565b600060208284031215613ec157613ec0613d5b565b5b600082013567ffffffffffffffff811115613edf57613ede613d60565b5b613eeb84828501613e7d565b91505092915050565b6000819050919050565b613f0781613ef4565b82525050565b6000602082019050613f226000830184613efe565b92915050565b613f3181613ef4565b8114613f3c57600080fd5b50565b600081359050613f4e81613f28565b92915050565b600060208284031215613f6a57613f69613d5b565b5b6000613f7884828501613f3f565b91505092915050565b600080600060608486031215613f9a57613f99613d5b565b5b6000613fa886828701613f3f565b9350506020613fb986828701613f3f565b9250506040613fca86828701613f3f565b9150509250925092565b60008060408385031215613feb57613fea613d5b565b5b6000613ff985828601613f3f565b925050602061400a85828601613f3f565b9150509250929050565b600073ffffffffffffffffffffffffffffffffffffffff82169050919050565b600061403f82614014565b9050919050565b61404f81614034565b811461405a57600080fd5b50565b60008135905061406c81614046565b92915050565b60006020828403121561408857614087613d5b565b5b60006140968482850161405d565b91505092915050565b60008115159050919050565b6140b48161409f565b81146140bf57600080fd5b50565b6000813590506140d1816140ab565b92915050565b600080604083850312156140ee576140ed613d5b565b5b60006140fc85828601613f3f565b925050602061410d858286016140c2565b9150509250929050565b6000806040838503121561412e5761412d613d5b565b5b600061413c85828601613f3f565b925050602061414d8582860161405d565b9150509250929050565b6141608161409f565b82525050565b600060208201905061417b6000830184614157565b92915050565b61418a81614034565b82525050565b60006020820190506141a56000830184614181565b92915050565b600081519050919050565b600082825260208201905092915050565b60005b838110156141e55780820151818401526020810190506141ca565b60008484015250505050565b60006141fc826141ab565b61420681856141b6565b93506142168185602086016141c7565b61421f81613d6f565b840191505092915050565b6000608082019050818103600083015261424481876141f1565b90506142536020830186613efe565b6142606040830185613efe565b61426d6060830184613efe565b95945050505050565b6000806040838503121561428d5761428c613d5b565b5b600061429b8582860161405d565b92505060206142ac8582860161405d565b9150509250929050565b600082825260208201905092915050565b60006142d2826141ab565b6142dc81856142b6565b93506142ec8185602086016141c7565b6142f581613d6f565b840191505092915050565b61430981613ef4565b82525050565b6000608083016000830151848203600086015261432c82826142c7565b91505060208301516143416020860182614300565b5060408301516143546040860182614300565b5060608301516143676060860182614300565b508091505092915050565b6000602082019050818103600083015261438c818461430f565b905092915050565b600060039050919050565b600081905092915050565b6000819050919050565b60006143c08383614300565b60208301905092915050565b6000602082019050919050565b6143e281614394565b6143ec818461439f565b92506143f7826143aa565b8060005b8381101561442857815161440f87826143b4565b965061441a836143cc565b9250506001810190506143fb565b505050505050565b600060608201905061444560008301846143d9565b92915050565b600081519050919050565b600082825260208201905092915050565b6000819050602082019050919050565b61448081614034565b82525050565b600060608301600083015161449e6000860182614477565b50602083015184820360208601526144b682826142c7565b91505060408301516144cb6040860182614300565b508091505092915050565b60006144e28383614486565b905092915050565b6000602082019050919050565b60006145028261444b565b61450c8185614456565b93508360208202850161451e85614467565b8060005b8581101561455a578484038952815161453b85826144d6565b9450614546836144ea565b925060208a01995050600181019050614522565b50829750879550505050505092915050565b6000602082019050818103600083015261458681846144f7565b905092915050565b600060c0820190506145a36000830189614181565b6145b06020830188613efe565b6145bd6040830187613efe565b6145ca6060830186613efe565b6145d76080830185613efe565b6145e460a0830184613efe565b979650505050505050565b6000806040838503121561460657614605613d5b565b5b600061461485828601613f3f565b925050602083013567ffffffffffffffff81111561463557614634613d60565b5b61464185828601613e7d565b9150509250929050565b60006060820190506146606000830186614181565b818103602083015261467281856141f1565b90506146816040830184613efe565b949350505050565b7f4e487b7100000000000000000000000000000000000000000000000000000000600052602260045260246000fd5b600060028204905060018216806146d057607f821691505b6020821081036146e3576146e2614689565b5b50919050565b60008190508160005260206000209050919050565b60006020601f8301049050919050565b600082821b905092915050565b60006008830261474b7fffffffffffffffffffffffffffffffffffffffffffffffffffffffffffffffff8261470e565b614755868361470e565b95508019841693508086168417925050509392505050565b6000819050919050565b600061479261478d61478884613ef4565b61476d565b613ef4565b9050919050565b6000819050919050565b6147ac83614777565b6147c06147b882614799565b84845461471b565b825550505050565b600090565b6147d56147c8565b6147e08184846147a3565b505050565b5b81811015614804576147f96000826147cd565b6001810190506147e6565b5050565b601f8211156148495761481a816146e9565b614823846146fe565b81016020851015614832578190505b61484661483e856146fe565b8301826147e5565b50505b505050565b600082821c905092915050565b600061486c6000198460080261484e565b1980831691505092915050565b6000614885838361485b565b9150826002028217905092915050565b61489e826141ab565b67ffffffffffffffff8111156148b7576148b6613d80565b5b6148c182546146b8565b6148cc828285614808565b600060209050601f8311600181146148ff57600084156148ed578287015190505b6148f78582614879565b86555061495f565b601f19841661490d866146e9565b60005b8281101561493557848901518255600182019150602085019450602081019050614910565b86831015614952578489015161494e601f89168261485b565b8355505b6001600288020188555050505b505050505050565b6000602082019050818103600083015261498181846141f1565b905092915050565b7f4e487b7100000000000000000000000000000000000000000000000000000000600052601160045260246000fd5b60006149c382613ef4565b91506149ce83613ef4565b92508282026149dc81613ef4565b915082820484148315176149f3576149f2614989565b5b5092915050565b7f4e487b7100000000000000000000000000000000000000000000000000000000600052601260045260246000fd5b6000614a3482613ef4565b9150614a3f83613ef4565b925082614a4f57614a4e6149fa565b5b828204905092915050565b7f4e6f7420617574686f72697a6564000000000000000000000000000000000000600082015250565b6000614a90600e836141b6565b9150614a9b82614a5a565b602082019050919050565b60006020820190508181036000830152614abf81614a83565b9050919050565b7f496e76616c6964206d696e74206c696d69740000000000000000000000000000600082015250565b6000614afc6012836141b6565b9150614b0782614ac6565b602082019050919050565b60006020820190508181036000830152614b2b81614aef565b9050919050565b7f566964656f20646f65736e277420657869737400000000000000000000000000600082015250565b6000614b686013836141b6565b9150614b7382614b32565b602082019050919050565b60006020820190508181036000830152614b9781614b5b565b9050919050565b7f43616e6e6f7420756e6c696b6520766964656f00000000000000000000000000600082015250565b6000614bd46013836141b6565b9150614bdf82614b9e565b602082019050919050565b60006020820190508181036000830152614c0381614bc7565b9050919050565b7f4e6f206c696b657320746f2072656d6f76650000000000000000000000000000600082015250565b6000614c406012836141b6565b9150614c4b82614c0a565b602082019050919050565b60006020820190508181036000830152614c6f81614c33565b9050919050565b6000614c8182613ef4565b915060008203614c9457614c93614989565b5b600182039050919050565b6000614caa82613ef4565b9150614cb583613ef4565b9250828201905080821115614ccd57614ccc614989565b5b92915050565b7f496e76616c69642073706c697420726174696f00000000000000000000000000600082015250565b6000614d096013836141b6565b9150614d1482614cd3565b602082019050919050565b60006020820190508181036000830152614d3881614cfc565b9050919050565b6000606082019050614d546000830186613efe565b614d616020830185613efe565b614d6e6040830184613efe565b949350505050565b7f4e6f7420666f6c6c6f77696e672063726561746f720000000000000000000000600082015250565b6000614dac6015836141b6565b9150614db782614d76565b602082019050919050565b60006020820190508181036000830152614ddb81614d9f565b9050919050565b7f4e6f20666f6c6c6f7765727320746f2072656d6f766500000000000000000000600082015250565b6000614e186016836141b6565b9150614e2382614de2565b602082019050919050565b60006020820190508181036000830152614e4781614e0b565b9050919050565b7f496e76616c696420656d657267656e6379207072696365000000000000000000600082015250565b6000614e846017836141b6565b9150614e8f82614e4e565b602082019050919050565b60006020820190508181036000830152614eb381614e77565b9050919050565b6000604082019050614ecf6000830185613efe565b614edc6020830184614157565b9392505050565b7f766964656f20616c7265616479206c696b656400000000000000000000000000600082015250565b6000614f196013836141b6565b9150614f2482614ee3565b602082019050919050565b60006020820190508181036000830152614f4881614f0c565b9050919050565b6000614f5a82613ef4565b91507fffffffffffffffffffffffffffffffffffffffffffffffffffffffffffffffff8203614f8c57614f8b614989565b5b600182019050919050565b600081905092915050565b50565b6000614fb2600083614f97565b9150614fbd82614fa2565b600082019050919050565b6000614fd382614fa5565b9150819050919050565b7f7769746864726177206661696c65640000000000000000000000000000000000600082015250565b6000615013600f836141b6565b915061501e82614fdd565b602082019050919050565b6000602082019050818103600083015261504281615006565b9050919050565b7f43616e6e6f7420666f6c6c6f772073656c660000000000000000000000000000600082015250565b600061507f6012836141b6565b915061508a82615049565b602082019050919050565b600060208201905081810360008301526150ae81615072565b9050919050565b7f416c726561647920666f6c6c6f77696e67000000000000000000000000000000600082015250565b60006150eb6011836141b6565b91506150f6826150b5565b602082019050919050565b6000602082019050818103600083015261511a816150de565b9050919050565b7f496e73756666696369656e742075706c6f616420666565000000000000000000600082015250565b60006151576017836141b6565b915061516282615121565b602082019050919050565b600060208201905081810360008301526151868161514a565b9050919050565b7f496e76616c6964204d696e74204c696d69742100000000000000000000000000600082015250565b60006151c36013836141b6565b91506151ce8261518d565b602082019050919050565b600060208201905081810360008301526151f2816151b6565b9050919050565b7f4d696e74206c696d697420746f6f206869676800000000000000000000000000600082015250565b600061522f6013836141b6565b915061523a826151f9565b602082019050919050565b6000602082019050818103600083015261525e81615222565b9050919050565b7f4d696e7420707269636520746f6f206c6f772100000000000000000000000000600082015250565b600061529b6013836141b6565b91506152a682615265565b602082019050919050565b600060208201905081810360008301526152ca8161528e565b9050919050565b7f4d696e7420707269636520746f6f206869676800000000000000000000000000600082015250565b60006153076013836141b6565b9150615312826152d1565b602082019050919050565b60006020820190508181036000830152615336816152fa565b9050919050565b7f566964656f20616c726561647920657869737473210000000000000000000000600082015250565b60006153736015836141b6565b915061537e8261533d565b602082019050919050565b600060208201905081810360008301526153a281615366565b9050919050565b7f496e76616c69642074697020616d6f756e740000000000000000000000000000600082015250565b60006153df6012836141b6565b91506153ea826153a9565b602082019050919050565b6000602082019050818103600083015261540e816153d2565b9050919050565b7f496e76616c69642063726561746f722061646472657373000000000000000000600082015250565b600061544b6017836141b6565b915061545682615415565b602082019050919050565b6000602082019050818103600083015261547a8161543e565b9050919050565b7f4661696c656420746f207469702063726561746f720000000000000000000000600082015250565b60006154b76015836141b6565b91506154c282615481565b602082019050919050565b600060208201905081810360008301526154e6816154aa565b9050919050565b600069ffffffffffffffffffff82169050919050565b61550c816154ed565b811461551757600080fd5b50565b60008151905061552981615503565b92915050565b6000819050919050565b6155428161552f565b811461554d57600080fd5b50565b60008151905061555f81615539565b92915050565b60008151905061557481613f28565b92915050565b600080600080600060a0868803121561559657615595613d5b565b5b60006155a48882890161551a565b95505060206155b588828901615550565b94505060406155c688828901615565565b93505060606155d788828901615565565b92505060806155e88882890161551a565b9150509295509295909350565b7f496e76616c696420726f756e6420494400000000000000000000000000000000600082015250565b600061562b6010836141b6565b9150615636826155f5565b602082019050919050565b6000602082019050818103600083015261565a8161561e565b9050919050565b7f5374616c65207072696365206461746100000000000000000000000000000000600082015250565b60006156976010836141b6565b91506156a282615661565b602082019050919050565b600060208201905081810360008301526156c68161568a565b9050919050565b7f496e76616c69642070726963652066726f6d206f7261636c6500000000000000600082015250565b60006157036019836141b6565b915061570e826156cd565b602082019050919050565b60006020820190508181036000830152615732816156f6565b9050919050565b600061574482613ef4565b915061574f83613ef4565b925082820390508181111561576757615766614989565b5b92915050565b7f5072696365206461746120746f6f206f6c640000000000000000000000000000600082015250565b60006157a36012836141b6565b91506157ae8261576d565b602082019050919050565b600060208201905081810360008301526157d281615796565b9050919050565b7f46656520697320746f6f20686967680000000000000000000000000000000000600082015250565b600061580f600f836141b6565b915061581a826157d9565b602082019050919050565b6000602082019050818103600083015261583e81615802565b9050919050565b7f496e636f7272656374206d696e74206665650000000000000000000000000000600082015250565b600061587b6012836141b6565b915061588682615845565b602082019050919050565b600060208201905081810360008301526158aa8161586e565b9050919050565b7f4d696e74206c696d697420726561636865640000000000000000000000000000600082015250565b60006158e76012836141b6565b91506158f2826158b1565b602082019050919050565b60006020820190508181036000830152615916816158da565b9050919050565b7f496e76616c696420616464726573730000000000000000000000000000000000600082015250565b6000615953600f836141b6565b915061595e8261591d565b602082019050919050565b6000602082019050818103600083015261598281615946565b9050919050565b7f496e76616c6964204d696e742066656500000000000000000000000000000000600082015250565b60006159bf6010836141b6565b91506159ca82615989565b602082019050919050565b600060208201905081810360008301526159ee816159b2565b9050919050565b7f4e487b7100000000000000000000000000000000000000000000000000000000600052603260045260246000fd5b7f43726561746f72207061796d656e74206661696c656400000000000000000000600082015250565b6000615a5a6016836141b6565b9150615a6582615a24565b602082019050919050565b60006020820190508181036000830152615a8981615a4d565b9050919050565b7f4d696e746572207061796d656e74206661696c65640000000000000000000000600082015250565b6000615ac66015836141b6565b9150615ad182615a90565b602082019050919050565b60006020820190508181036000830152615af581615ab9565b9050919050565b7f50726f6a656374207061796d656e74206661696c656400000000000000000000600082015250565b6000615b326016836141b6565b9150615b3d82615afc565b602082019050919050565b60006020820190508181036000830152615b6181615b25565b905091905056fea2646970667358221220f8a8f8ae55702aa5995f09d2f23ed852505d4537d0fdb1d90d8d23f7d011b90364736f6c634300081c0033",
  "linkReferences": {},
  "deployedLinkReferences": {}
}